{
  "_format": "hh-sol-artifact-1",
  "contractName": "Shadow",
  "sourceName": "contracts/Shadow.sol",
  "abi": [
    {
      "inputs": [
        {
          "internalType": "address",
          "name": "weth_",
          "type": "address"
        },
        {
          "internalType": "address",
          "name": "uniswapV3Factory_",
          "type": "address"
        },
        {
          "internalType": "address",
          "name": "positionManager_",
          "type": "address"
        },
        {
          "internalType": "address",
          "name": "swapRouter_",
          "type": "address"
        },
        {
          "internalType": "address",
          "name": "owner_",
          "type": "address"
        }
      ],
      "stateMutability": "nonpayable",
      "type": "constructor"
    },
    {
      "inputs": [],
      "name": "InvalidTokenOrder",
      "type": "error"
    },
    {
      "inputs": [
        {
          "internalType": "address",
          "name": "owner",
          "type": "address"
        }
      ],
      "name": "OwnableInvalidOwner",
      "type": "error"
    },
    {
      "inputs": [
        {
          "internalType": "address",
          "name": "account",
          "type": "address"
        }
      ],
      "name": "OwnableUnauthorizedAccount",
      "type": "error"
    },
    {
      "anonymous": false,
      "inputs": [
        {
          "indexed": false,
          "internalType": "bool",
          "name": "enabled",
          "type": "bool"
        }
      ],
      "name": "CreationStatusChanged",
      "type": "event"
    },
    {
      "anonymous": false,
      "inputs": [
        {
          "indexed": false,
          "internalType": "string",
          "name": "message",
          "type": "string"
        }
      ],
      "name": "Debug",
      "type": "event"
    },
    {
      "anonymous": false,
      "inputs": [
        {
          "indexed": true,
          "internalType": "address",
          "name": "previousOwner",
          "type": "address"
        },
        {
          "indexed": true,
          "internalType": "address",
          "name": "newOwner",
          "type": "address"
        }
      ],
      "name": "OwnershipTransferred",
      "type": "event"
    },
    {
      "anonymous": false,
      "inputs": [
        {
          "indexed": false,
          "internalType": "address",
          "name": "tokenAddress",
          "type": "address"
        },
        {
          "indexed": false,
          "internalType": "address",
          "name": "deployer",
          "type": "address"
        },
        {
          "indexed": false,
          "internalType": "string",
          "name": "name",
          "type": "string"
        },
        {
          "indexed": false,
          "internalType": "string",
          "name": "symbol",
          "type": "string"
        },
        {
          "indexed": false,
          "internalType": "uint256",
          "name": "supply",
          "type": "uint256"
        }
      ],
      "name": "TokenCreated",
      "type": "event"
    },
    {
      "inputs": [],
      "name": "DEAD_ADDRESS",
      "outputs": [
        {
          "internalType": "address",
          "name": "",
          "type": "address"
        }
      ],
      "stateMutability": "view",
      "type": "function"
    },
    {
      "inputs": [],
      "name": "TICK_SPACING",
      "outputs": [
        {
          "internalType": "int24",
          "name": "",
          "type": "int24"
        }
      ],
      "stateMutability": "view",
      "type": "function"
    },
    {
      "inputs": [
        {
          "internalType": "uint256",
          "name": "supply",
          "type": "uint256"
        },
        {
          "internalType": "uint256",
          "name": "liquidity",
          "type": "uint256"
        }
      ],
      "name": "calculateNumerator",
      "outputs": [
        {
          "internalType": "uint256",
          "name": "",
          "type": "uint256"
        }
      ],
      "stateMutability": "pure",
      "type": "function"
    },
    {
      "inputs": [
        {
          "internalType": "uint256",
          "name": "numerator",
          "type": "uint256"
        }
      ],
      "name": "calculateTickFromNumerator",
      "outputs": [
        {
          "internalType": "int256",
          "name": "",
          "type": "int256"
        }
      ],
      "stateMutability": "pure",
      "type": "function"
    },
    {
      "inputs": [],
      "name": "collectAllFees",
      "outputs": [],
      "stateMutability": "nonpayable",
      "type": "function"
    },
    {
      "inputs": [
        {
          "internalType": "address",
          "name": "token",
          "type": "address"
        }
      ],
      "name": "collectFees",
      "outputs": [],
      "stateMutability": "nonpayable",
      "type": "function"
    },
    {
      "inputs": [
        {
          "internalType": "string",
          "name": "name",
          "type": "string"
        },
        {
          "internalType": "string",
          "name": "symbol",
          "type": "string"
        },
        {
          "internalType": "uint256",
          "name": "supply",
          "type": "uint256"
        },
        {
          "internalType": "uint256",
          "name": "liquidity",
          "type": "uint256"
        },
        {
          "internalType": "uint24",
          "name": "fee",
          "type": "uint24"
        },
        {
          "internalType": "bytes32",
          "name": "salt",
          "type": "bytes32"
        },
        {
          "internalType": "address",
          "name": "deployer",
          "type": "address"
        },
        {
          "internalType": "uint256",
          "name": "maxWalletPercentage",
          "type": "uint256"
        },
        {
          "internalType": "uint256",
          "name": "firstBuyAmount",
          "type": "uint256"
        },
        {
          "internalType": "string",
          "name": "twitterName",
          "type": "string"
        },
        {
          "internalType": "string",
          "name": "websiteUrl",
          "type": "string"
        }
      ],
      "name": "deployToken",
      "outputs": [],
      "stateMutability": "payable",
      "type": "function"
    },
    {
      "inputs": [
        {
          "internalType": "address",
          "name": "deployer",
          "type": "address"
        },
        {
          "internalType": "string",
          "name": "name",
          "type": "string"
        },
        {
          "internalType": "string",
          "name": "symbol",
          "type": "string"
        },
        {
          "internalType": "uint256",
          "name": "supply",
          "type": "uint256"
        },
        {
          "internalType": "uint256",
          "name": "maxWalletPercentage",
          "type": "uint256"
        },
        {
          "internalType": "string",
          "name": "twitterName",
          "type": "string"
        },
        {
          "internalType": "string",
          "name": "websiteUrl",
          "type": "string"
        }
      ],
      "name": "generateSalt",
      "outputs": [
        {
          "internalType": "bytes32",
          "name": "salt",
          "type": "bytes32"
        },
        {
          "internalType": "address",
          "name": "token",
          "type": "address"
        }
      ],
      "stateMutability": "view",
      "type": "function"
    },
    {
      "inputs": [],
      "name": "isCreationEnabled",
      "outputs": [
        {
          "internalType": "bool",
          "name": "",
          "type": "bool"
        }
      ],
      "stateMutability": "view",
      "type": "function"
    },
    {
      "inputs": [],
      "name": "owner",
      "outputs": [
        {
          "internalType": "address",
          "name": "",
          "type": "address"
        }
      ],
      "stateMutability": "view",
      "type": "function"
    },
    {
      "inputs": [],
      "name": "positionManager",
      "outputs": [
        {
          "internalType": "contract INonfungiblePositionManager",
          "name": "",
          "type": "address"
        }
      ],
      "stateMutability": "view",
      "type": "function"
    },
    {
      "inputs": [
        {
          "internalType": "address",
          "name": "deployer",
          "type": "address"
        },
        {
          "internalType": "string",
          "name": "name",
          "type": "string"
        },
        {
          "internalType": "string",
          "name": "symbol",
          "type": "string"
        },
        {
          "internalType": "uint256",
          "name": "supply",
          "type": "uint256"
        },
        {
          "internalType": "bytes32",
          "name": "salt",
          "type": "bytes32"
        },
        {
          "internalType": "uint256",
          "name": "maxWalletPercentage",
          "type": "uint256"
        },
        {
          "internalType": "string",
          "name": "twitterName",
          "type": "string"
        },
        {
          "internalType": "string",
          "name": "websiteUrl",
          "type": "string"
        }
      ],
      "name": "predictToken",
      "outputs": [
        {
          "internalType": "address",
          "name": "",
          "type": "address"
        }
      ],
      "stateMutability": "view",
      "type": "function"
    },
    {
      "inputs": [],
      "name": "renounceOwnership",
      "outputs": [],
      "stateMutability": "nonpayable",
      "type": "function"
    },
    {
      "inputs": [
        {
          "internalType": "bool",
          "name": "enabled",
          "type": "bool"
        }
      ],
      "name": "setCreationEnabled",
      "outputs": [],
      "stateMutability": "nonpayable",
      "type": "function"
    },
    {
      "inputs": [],
      "name": "swapRouter",
      "outputs": [
        {
          "internalType": "address",
          "name": "",
          "type": "address"
        }
      ],
      "stateMutability": "view",
      "type": "function"
    },
    {
      "inputs": [
        {
          "internalType": "uint256",
          "name": "",
          "type": "uint256"
        }
      ],
      "name": "tokenList",
      "outputs": [
        {
          "internalType": "address",
          "name": "",
          "type": "address"
        }
      ],
      "stateMutability": "view",
      "type": "function"
    },
    {
      "inputs": [
        {
          "internalType": "address",
          "name": "",
          "type": "address"
        },
        {
          "internalType": "uint256",
          "name": "",
          "type": "uint256"
        }
      ],
      "name": "tokenPositions",
      "outputs": [
        {
          "internalType": "uint256",
          "name": "",
          "type": "uint256"
        }
      ],
      "stateMutability": "view",
      "type": "function"
    },
    {
      "inputs": [
        {
          "internalType": "address",
          "name": "newOwner",
          "type": "address"
        }
      ],
      "name": "transferOwnership",
      "outputs": [],
      "stateMutability": "nonpayable",
      "type": "function"
    },
    {
      "inputs": [],
      "name": "uniswapV3Factory",
      "outputs": [
        {
          "internalType": "contract IUniswapV3Factory",
          "name": "",
          "type": "address"
        }
      ],
      "stateMutability": "view",
      "type": "function"
    },
    {
      "inputs": [],
      "name": "usdc",
      "outputs": [
        {
          "internalType": "address",
          "name": "",
          "type": "address"
        }
      ],
      "stateMutability": "view",
      "type": "function"
    },
    {
      "inputs": [],
      "name": "weth",
      "outputs": [
        {
          "internalType": "address",
          "name": "",
          "type": "address"
        }
      ],
      "stateMutability": "view",
      "type": "function"
    },
    {
      "stateMutability": "payable",
      "type": "receive"
    }
  ],
  "bytecode": "0x6101403461021457601f61422d38819003918201601f19168301916001600160401b038311848410176102195780849260a094604052833981010312610214576100488161022f565b906100556020820161022f565b6100616040830161022f565b9061006e6060840161022f565b926001600160a01b03906100849060800161022f565b169384156101fe57600080546001600160a01b031981168717825560405196916001600160a01b03909116907f8be0079c531659141344cd1fd0a4f28419497f9722a3daafe3b4186f6b6457e09080a373833589fcd6edb6e08f4c7c32d4f71b54bda0291360a05261dead60c0526003805460ff191660011790556080526001600160a01b0390811660e052166101005261012052613fe9908161024482396080518181816101dd01528181610c2701528181610fa601528181610fef015281816111cf01528181611383015281816115cd0152818161165f015281816116c60152611ad6015260a05181610c6c015260c05181610bc6015260e051818181610aae01528181610e2101528181610f1b0152818161102d0152818161120e01528181611b1901526127b9015261010051818181610470015281816106e20152818161082801528181610f43015281816112b80152818161148d0152818161155801526127e1015261012051818181610374015261161a0152f35b631e4fbdf760e01b600052600060045260246000fd5b600080fd5b634e487b7160e01b600052604160045260246000fd5b51906001600160a01b03821682036102145756fe6080604052600436101561001b575b361561001957600080fd5b005b6000803560e01c80630d9a4446146124fb57806313a9e9d914610c9b5780633e413bee14610c565780633fc8cef314610c1157806346ca626b14610bf55780634e6fd6c414610bb0578063599b261e14610add5780635b54918214610a98578063686f2c90146107cf5780636a5dab9f1461076b578063715018a614610711578063791b98bc146106cc5780638da5cb5b146106a55780639ead722214610661578063a10b521b1461063e578063a480ca79146103fa578063c0dd7cd5146103a3578063c31c9c071461035e578063c43cb3fb14610334578063f2fde38b146102ae5763fd8b3c9d1461010e575061000e565b346102ab5760e03660031901126102ab576101276125d5565b906024356001600160401b0381116102a9576101479036906004016125eb565b916044356001600160401b0381116102a9576101679036906004016125eb565b92909360a4356001600160401b0381116102a5576101899036906004016125eb565b92909160c435976001600160401b0389116102a157826101d385899b98886101b78d9c9b36906004016125eb565b9c819c848f969395509788915b608435938c606435938d612701565b6001600160a01b037f000000000000000000000000000000000000000000000000000000000000000081169082161080610298575b61027e5750610216906128ec565b986103e88a1015610239576101d3988a919a888888848f94959e958a8f966101c4565b60405162461bcd60e51b815260206004820152601960248201527f436f756c64206e6f742066696e642076616c69642073616c74000000000000006044820152606490fd5b604080519283526001600160a01b03909116602083015290f35b50803b15610208565b8580fd5b8380fd5b505b80fd5b50346102ab5760203660031901126102ab576102c86125d5565b6102d0612994565b6001600160a01b031680156103205781546001600160a01b03198116821783556001600160a01b03167f8be0079c531659141344cd1fd0a4f28419497f9722a3daafe3b4186f6b6457e08380a380f35b631e4fbdf760e01b82526004829052602482fd5b50346102ab5760403660031901126102ab576020610356602435600435612911565b604051908152f35b50346102ab57806003193601126102ab576040517f00000000000000000000000000000000000000000000000000000000000000006001600160a01b03168152602090f35b50346102ab5760403660031901126102ab576103bd6125d5565b6001600160a01b03168152600260205260408120805460243592908310156102ab5760206103eb8484612649565b90549060031b1c604051908152f35b50346102ab5760203660031901126102ab576104146125d5565b61041c612994565b60018060a01b031681526002602052604081206040518082602082945493848152019085526020852092855b81811061062557505061045d9250038261255e565b8051156105e05781546001600160a01b037f000000000000000000000000000000000000000000000000000000000000000081169184911661049e846128cb565b5190833b156105d15760405163095ea7b360e01b81526001600160a01b039190911660048201526024810191909152818160448183875af180156105d5576105bc575b505b82518110156105b8576104f681846128d8565b518454604051916001600160801b03916001600160a01b0316906105198461252d565b835260208301908152604080840183815260608501848152825163fc6f786560e01b81529551600487015292516001600160a01b031660248601525183166044850152905190911660648301528160848188875af180156105ad57610582575b506001016104e3565b604090813d81116105a6575b610598818361255e565b810103126102a55738610579565b503d61058e565b6040513d87823e3d90fd5b8380f35b816105c69161255e565b6105d15782386104e1565b8280fd5b6040513d84823e3d90fd5b60405162461bcd60e51b815260206004820152601b60248201527f4e6f20706f736974696f6e7320666f72207468697320746f6b656e00000000006044820152606490fd5b8454835260019485019486945060209093019201610448565b50346102ab57806003193601126102ab57602060ff600354166040519015158152f35b50346102ab5760203660031901126102ab57600435906001548210156102ab57602061068c83612618565b905460405160039290921b1c6001600160a01b03168152f35b50346102ab57806003193601126102ab57546040516001600160a01b039091168152602090f35b50346102ab57806003193601126102ab576040517f00000000000000000000000000000000000000000000000000000000000000006001600160a01b03168152602090f35b50346102ab57806003193601126102ab5761072a612994565b80546001600160a01b03198116825581906001600160a01b03167f8be0079c531659141344cd1fd0a4f28419497f9722a3daafe3b4186f6b6457e08280a380f35b50346102ab5760203660031901126102ab576004358015158091036102a95760207f1a3f40fae3a310ca113098ad34d161433ab7e470c2a167b60a190a80364043bc916107b6612994565b60ff196003541660ff821617600355604051908152a180f35b50346102ab57806003193601126102ab576107e8612994565b6001546107f4816128b4565b90610802604051928361255e565b808252601f19610811826128b4565b013660208401378290835b818110610a2e575083927f00000000000000000000000000000000000000000000000000000000000000006001600160a01b03169291505b81841061085f578480f35b6001600160a01b0361087185836128d8565b511661087b612994565b85526002602052604085209160405180938491602082549182815201918952602089209089905b808210610a1657505050906108b891038461255e565b8251156105e057855486906001600160a01b03166108d5856128cb565b5190863b156105d15760405163095ea7b360e01b81526001600160a01b0391909116600482015260248101919091528181604481838a5af180156105d557610a01575b505b83518110156109f35761092d81856128d8565b518754604051916001600160801b03916001600160a01b0316906109508461252d565b835260208301908152604080840183815260608501848152825163fc6f786560e01b81529551600487015292516001600160a01b03166024860152518316604485015290519091166064830152816084818b8a5af180156109e8576109b9575b5060010161091a565b604090813d81116109e1575b6109cf818361255e565b810103126109dd57386109b0565b8680fd5b503d6109c5565b6040513d8a823e3d90fd5b506001909401939150610854565b81610a0b9161255e565b6102a1578538610918565b909192600160208192865481520194019201906108a2565b610a3781612618565b905460039190911b1c6001600160a01b0316855260026020526040852054610a62575b60010161081c565b91610a90600191610a7285612618565b848060a01b0391549060031b1c16610a8a82886128d8565b526128ec565b929050610a5a565b50346102ab57806003193601126102ab576040517f00000000000000000000000000000000000000000000000000000000000000006001600160a01b03168152602090f35b50346102ab576101003660031901126102ab57610af86125d5565b906024356001600160401b0381116102a957610b189036906004016125eb565b9290916044356001600160401b0381116102a957610b3a9036906004016125eb565b94909360c4356001600160401b0381116102a557610b5c9036906004016125eb565b94909360e435906001600160401b0382116102ab576020610b9e8a8a8a8a8a8a8a610b8a3660048d016125eb565b97909660a435946084359460643594612701565b6040516001600160a01b039091168152f35b50346102ab57806003193601126102ab576040517f00000000000000000000000000000000000000000000000000000000000000006001600160a01b03168152602090f35b50346102ab57806003193601126102ab57602060405160c88152f35b50346102ab57806003193601126102ab576040517f00000000000000000000000000000000000000000000000000000000000000006001600160a01b03168152602090f35b50346102ab57806003193601126102ab576040517f00000000000000000000000000000000000000000000000000000000000000006001600160a01b03168152602090f35b506101603660031901126102ab576004356001600160401b0381116102a957610cc890369060040161257f565b6024356001600160401b0381116105d157610ce790369060040161257f565b9062ffffff60843516608435036105d15760c435906001600160a01b03821682036102a557610124356001600160401b0381116124f757610d2c90369060040161257f565b90610144356001600160401b0381116102a157610d4d90369060040161257f565b9160ff60035416156124b2576044351561246d576001600160a01b03841615612428578151156123ec578451156123ae5761271062ffffff6084351603612376578051156123315760405192610dd6600a6020868651610db281848401858b01612661565b81016920627920536861646f7760b01b83820152030160151981018752018561255e565b670de0b6b3a7640000655af1e6795710610df4606435604435612911565b05059187831315612300576040516322afcccb60e01b815260843562ffffff1660048201526020816024817f00000000000000000000000000000000000000000000000000000000000000006001600160a01b03165afa908115611aac5789916122c0575b5060020b9485156122ac5785620d89e80793627fffff8560020b620d89e80313627fffff198660020b620d89e8031217611bce5760020b627fffff198114611bce578903958660020b81810760020b61227d575b5050604051916115f691828401928484106001600160401b0385111761226957610f9192610f01610ef3879694610f7e946129be89396101208652610120860190612684565b84810360208601528d612684565b60443560408501526001600160a01b038c811660608601527f0000000000000000000000000000000000000000000000000000000000000000811660808601527f00000000000000000000000000000000000000000000000000000000000000001660a085015260e43560c085015283810360e085015290612684565b9061010081830391015260a43594612684565b039088f592831561186f576001600160a01b037f00000000000000000000000000000000000000000000000000000000000000008116908516101561221857604051630b4c774160e11b81526001600160a01b0385811660048301527f000000000000000000000000000000000000000000000000000000000000000016602482015262ffffff608435166044820152602081806064810103817f00000000000000000000000000000000000000000000000000000000000000006001600160a01b03165afa9081156109e85788916121f9575b5080888360020b126000146121ef57600283900b600160ff1b146121db578260020b8903905b620d89e882116121b25760018216156121a0576001600160881b036ffffcb933bd6fad37aa2d162d1a5940015b169160028116612155575b6004811661210a575b600881166120bf575b60108116612074575b60208116612029575b60408116611fde575b60808116611f93575b6101008116611f48575b6102008116611efd575b6104008116611eb2575b6108008116611e67575b6110008116611e1c575b6120008116611dd1575b6140008116611d86575b6180008116611d3b575b620100008116611cf0575b620200008116611ca8575b620400008116611c4f575b6208000016611c10575b898460020b13611beb575b63ffffffff8260201c921615600014611be25760ff8a5b168201809211611bce576001600160a01b031615611ab7575b50604051630b4c774160e11b81526001600160a01b0386811660048301527f000000000000000000000000000000000000000000000000000000000000000016602482015262ffffff60843516604482015290602082806064810103817f00000000000000000000000000000000000000000000000000000000000000006001600160a01b03165afa918215611aac578992611a7b575b506001600160a01b039081169116819003611a435787906001600160a01b0386163b156102a95760405163e9e15b4f60e01b815260048101919091528181602481836001600160a01b038b165af180156105d557611a2e575b505060405163095ea7b360e01b81526001600160a01b037f0000000000000000000000000000000000000000000000000000000000000000811660048301526000196024830152602090829060449082908c908a165af180156109e857611a11575b5060405163a9059cbb60e01b81523060048201526044803560248301526020908290818b6001600160a01b038a165af180156109e8576119f4575b50603c4201908142116119e0576040519261016084018481106001600160401b038211176119cc5790899160405260018060a01b0387168552602085019260018060a01b037f0000000000000000000000000000000000000000000000000000000000000000168452604086019162ffffff608435168352606087019160020b8252608087019060020b620d89e80360020b815260a0870190604435825260c088019285845262ffffff60e08a01958787526101008b019788526101208b0198308a526101408c019a8b526040519b634418b22b60e11b8d5260018060a01b0390511660048d015260018060a01b0390511660248c0152511660448a01525160020b60648901525160020b60848801525160a48701525160c48601525160e48501525161010484015260018060a01b0390511661012483015251610144820152608081610164818960018060a01b037f0000000000000000000000000000000000000000000000000000000000000000165af190811561186f578691611985575b506001600160a01b0383168652600260205260408620805490600160401b82101561187a57906114f291600182018155612649565b819291549060031b91821b91600019901b1916179055600154600160401b811015611971578060016115279201600155612618565b81546001600160a01b0360039290921b82811b199091168583169182901b1790925560405163095ea7b360e01b81527f00000000000000000000000000000000000000000000000000000000000000009091166004820152600019602482015290602090829060449082908a905af1801561186f57611954575b506040516323b872dd60e01b8152336004820152306024820152610104356044820152602081606481897f00000000000000000000000000000000000000000000000000000000000000006001600160a01b03165af190811561186f578691611935575b50156118fe5760405163095ea7b360e01b81527f00000000000000000000000000000000000000000000000000000000000000006001600160a01b038116600483015261010435602483015290602081806044810103818a7f00000000000000000000000000000000000000000000000000000000000000006001600160a01b03165af19081156118f35787916118c4575b501561188e5760405160e081018181106001600160401b0382111761187a579060209160405260018060a01b037f000000000000000000000000000000000000000000000000000000000000000016815260e48282019160018060a01b038716835289604082019562ffffff608435168752606083013081526080840161010435815260a085019084825260c086019285845262ffffff6040519b8c9a8b996304e45aaf60e01b8b5260018060a01b0390511660048b015260018060a01b0390511660248a01525116604488015260018060a01b0390511660648701525160848601525160a485015260018060a01b0390511660c484015260018060a01b03165af1801561186f57611818575b507f6e6ae68e7d7d45fbd855c40d1eaafa8de46c5fbec3ee26f1af88730e400bc92c936117fc61180a9260405195869560018060a01b0316865260018060a01b0316602086015260a0604086015260a0850190612684565b908382036060850152612684565b60443560808301520390a180f35b936020853d602011611867575b816118326020938361255e565b810103126118625793507f6e6ae68e7d7d45fbd855c40d1eaafa8de46c5fbec3ee26f1af88730e400bc92c6117a4565b600080fd5b3d9150611825565b6040513d88823e3d90fd5b634e487b7160e01b88526041600452602488fd5b60405162461bcd60e51b815260206004820152600e60248201526d105c1c1c9bdd994819985a5b195960921b6044820152606490fd5b6118e6915060203d6020116118ec575b6118de818361255e565b8101906126c8565b38611697565b503d6118d4565b6040513d89823e3d90fd5b60405162461bcd60e51b815260206004820152600f60248201526e151c985b9cd9995c8819985a5b1959608a1b6044820152606490fd5b61194e915060203d6020116118ec576118de818361255e565b38611605565b61196c9060203d6020116118ec576118de818361255e565b6115a1565b634e487b7160e01b86526041600452602486fd5b90506080813d6080116119c4575b816119a06080938361255e565b810103126102a157602081519101516001600160801b038116036102a157386114bd565b3d9150611993565b634e487b7160e01b8a52604160045260248afd5b634e487b7160e01b88526011600452602488fd5b611a0c9060203d6020116118ec576118de818361255e565b61133c565b611a299060203d6020116118ec576118de818361255e565b611301565b81611a389161255e565b6109dd57863861129f565b60405162461bcd60e51b815260206004820152601060248201526f141bdbdb081b9bdd0818dc99585d195960821b6044820152606490fd5b611a9e91925060203d602011611aa5575b611a96818361255e565b8101906126a9565b9038611246565b503d611a8c565b6040513d8b823e3d90fd5b60405163a167129560e01b81526001600160a01b0387811660048301527f000000000000000000000000000000000000000000000000000000000000000016602482015262ffffff6084351660448201529150889060208380606481010381857f00000000000000000000000000000000000000000000000000000000000000006001600160a01b03165af19283156105d5578293611bad575b50826001600160a01b0381163b156105d15760405163f637731d60e01b81526001600160a01b0392831660048201529291839160249183918591165af18015611aac57156111af5788611ba69199929961255e565b96386111af565b611bc791935060203d602011611aa557611a96818361255e565b9138611b51565b634e487b7160e01b8a52601160045260248afd5b60ff6001611196565b908015611bfc57600019049061117f565b634e487b7160e01b8a52601260045260248afd5b90806b048a170391f7dc42444e8fa28102046b048a170391f7dc42444e8fa21481151715611bce576b048a170391f7dc42444e8fa20260801c90611174565b91806d2216e584f5fa1ea926041bedfe988102046d2216e584f5fa1ea926041bedfe981481151715611c94576d2216e584f5fa1ea926041bedfe980260801c9161116a565b634e487b7160e01b8b52601160045260248bfd5b91806e5d6af8dedb81196699c329225ee6048102046e5d6af8dedb81196699c329225ee6041481151715611c94576e5d6af8dedb81196699c329225ee6040260801c9161115f565b91806f09aa508b5b7a84e1c677de54f3e99bc98102046f09aa508b5b7a84e1c677de54f3e99bc91481151715611c94576f09aa508b5b7a84e1c677de54f3e99bc90260801c91611154565b91806f31be135f97d08fd981231505542fcfa68102046f31be135f97d08fd981231505542fcfa61481151715611c94576f31be135f97d08fd981231505542fcfa60260801c91611149565b91806f70d869a156d2a1b890bb3df62baf32f78102046f70d869a156d2a1b890bb3df62baf32f71481151715611c94576f70d869a156d2a1b890bb3df62baf32f70260801c9161113f565b91806fa9f746462d870fdf8a65dc1f90e061e58102046fa9f746462d870fdf8a65dc1f90e061e51481151715611c94576fa9f746462d870fdf8a65dc1f90e061e50260801c91611135565b91806fd097f3bdfd2022b8845ad8f792aa58258102046fd097f3bdfd2022b8845ad8f792aa58251481151715611c94576fd097f3bdfd2022b8845ad8f792aa58250260801c9161112b565b91806fe7159475a2c29b7443b29c7fa6e889d98102046fe7159475a2c29b7443b29c7fa6e889d91481151715611c94576fe7159475a2c29b7443b29c7fa6e889d90260801c91611121565b91806ff3392b0822b70005940c7a398e4b70f38102046ff3392b0822b70005940c7a398e4b70f31481151715611c94576ff3392b0822b70005940c7a398e4b70f30260801c91611117565b91806ff987a7253ac413176f2b074cf7815e548102046ff987a7253ac413176f2b074cf7815e541481151715611c94576ff987a7253ac413176f2b074cf7815e540260801c9161110d565b91806ffcbe86c7900a88aedcffc83b479aa3a48102046ffcbe86c7900a88aedcffc83b479aa3a41481151715611c94576ffcbe86c7900a88aedcffc83b479aa3a40260801c91611103565b91806ffe5dee046a99a2a811c461f1969c30538102046ffe5dee046a99a2a811c461f1969c30531481151715611c94576ffe5dee046a99a2a811c461f1969c30530260801c916110f9565b91806fff2ea16466c96a3843ec78b326b528618102046fff2ea16466c96a3843ec78b326b528611481151715611c94576fff2ea16466c96a3843ec78b326b528610260801c916110f0565b91806fff973b41fa98c081472e6896dfb254c08102046fff973b41fa98c081472e6896dfb254c01481151715611c94576fff973b41fa98c081472e6896dfb254c00260801c916110e7565b91806fffcb9843d60f6159c9db58835c9266448102046fffcb9843d60f6159c9db58835c9266441481151715611c94576fffcb9843d60f6159c9db58835c9266440260801c916110de565b91806fffe5caca7e10e4e61c3624eaa0941cd08102046fffe5caca7e10e4e61c3624eaa0941cd01481151715611c94576fffe5caca7e10e4e61c3624eaa0941cd00260801c916110d5565b91806ffff2e50f5f656932ef12357cf3c7fdcc8102046ffff2e50f5f656932ef12357cf3c7fdcc1481151715611c94576ffff2e50f5f656932ef12357cf3c7fdcc0260801c916110cc565b91806ffff97272373d413259a46990580e213a8102046ffff97272373d413259a46990580e213a1481151715611c94576ffff97272373d413259a46990580e213a0260801c916110c3565b6001600160881b03600160801b6110b8565b60405162461bcd60e51b81526020600482015260016024820152601560fa1b6044820152606490fd5b634e487b7160e01b89526011600452602489fd5b8260020b9061108b565b612212915060203d602011611aa557611a96818361255e565b38611065565b60405162461bcd60e51b8152602060048201526024808201527f546f6b656e2061646472657373206d757374206265206c657373207468616e206044820152630ae8aa8960e31b6064820152608490fd5b634e487b7160e01b8c52604160045260248cfd5b91965090627fffff198114600019831416611bce5781900560020b028060020b9081036121db57943880610ead565b634e487b7160e01b89526012600452602489fd5b90506020813d6020116122f8575b816122db6020938361255e565b810103126122f457518060020b81036122f45738610e59565b8880fd5b3d91506122ce565b60405162461bcd60e51b815260206004820152600960248201526805072696365203c20360bc1b6044820152606490fd5b60405162461bcd60e51b815260206004820152601c60248201527f54776974746572206e616d652063616e6e6f7420626520656d707479000000006044820152606490fd5b60405162461bcd60e51b815260206004820152601060248201526f24b73b30b634b2103332b2903a34b2b960811b6044820152606490fd5b60405162461bcd60e51b815260206004820152601660248201527553796d626f6c2063616e6e6f7420626520656d70747960501b6044820152606490fd5b60405162461bcd60e51b81526020600482015260146024820152734e616d652063616e6e6f7420626520656d70747960601b6044820152606490fd5b60405162461bcd60e51b815260206004820152601860248201527f496e76616c6964206465706c6f796572206164647265737300000000000000006044820152606490fd5b60405162461bcd60e51b815260206004820152601d60248201527f537570706c79206d7573742062652067726561746572207468616e20300000006044820152606490fd5b60405162461bcd60e51b815260206004820152601a60248201527f546f6b656e206372656174696f6e2069732064697361626c65640000000000006044820152606490fd5b8480fd5b50346102ab5760203660031901126102ab5750604051670de0b6b3a7640000655af1e679571060043505058152602090f35b608081019081106001600160401b0382111761254857604052565b634e487b7160e01b600052604160045260246000fd5b90601f801991011681019081106001600160401b0382111761254857604052565b81601f82011215611862578035906001600160401b03821161254857604051926125b3601f8401601f19166020018561255e565b8284526020838301011161186257816000926020809301838601378301015290565b600435906001600160a01b038216820361186257565b9181601f84011215611862578235916001600160401b038311611862576020838186019501011161186257565b60015481101561263357600160005260206000200190600090565b634e487b7160e01b600052603260045260246000fd5b80548210156126335760005260206000200190600090565b60005b8381106126745750506000910152565b8181015183820152602001612664565b9060209161269d81518092818552858086019101612661565b601f01601f1916010190565b9081602091031261186257516001600160a01b03811681036118625790565b90816020910312611862575180151581036118625790565b908060209392818452848401376000828201840152601f01601f1916010190565b979298909a93959a99949196998760405198899260208401378101602081016920627920536861646f7760b01b90520360200160151981018852600a01612748908861255e565b6115f6996040519860208c0161275e908b61255e565b8b8a5260208a019b6129be8d396040519a8b9860208a019a6101208c526101408b0161278991612684565b90601f198b83030160408c015261279f926126e0565b60608901949094526001600160a01b0390811660808901527f0000000000000000000000000000000000000000000000000000000000000000811660a08901527f00000000000000000000000000000000000000000000000000000000000000001660c088015260e0870152858203601f1901610100870152612821926126e0565b90601f1984830301610120850152612838926126e0565b03601f198101845261284a908461255e565b6040519283926020840195869151809261286392612661565b8301905191826020830161287692612661565b0103808252612888906020018261255e565b519020906040519160408301526020820152308152600b0160ff8153605590206001600160a01b031690565b6001600160401b0381116125485760051b60200190565b8051156126335760200190565b80518210156126335760209160051b010190565b60001981146128fb5760010190565b634e487b7160e01b600052601160045260246000fd5b906040519163c43cb3fb60e01b83526004830152602482015260208160448173__$e02074b1f9eeb976d6d8fd3b2944d7d6c9$__5af490811561298857600091612959575090565b90506020813d602011612980575b816129746020938361255e565b81010312611862575190565b3d9150612967565b6040513d6000823e3d90fd5b6000546001600160a01b031633036129a857565b63118cdaa760e01b6000523360045260246000fdfe60c0604052346107a7576115f680380380610019816107ac565b928339810190610120818303126107a75780516001600160401b0381116107a757826100469183016107d1565b60208201519091906001600160401b0381116107a757836100689183016107d1565b9060408101519161007b6060830161083c565b6100876080840161083c565b9061009460a0850161083c565b9260c08501519460e081015160018060401b0381116107a757896100b99183016107d1565b6101008201519099906001600160401b0381116107a7576100da92016107d1565b875190976001600160401b0382116106a45760035490600182811c9216801561079d575b60208310146106845781601f84931161072d575b50602090601f83116001146106c5576000926106ba575b50508160011b916000199060031b1c1916176003555b8051906001600160401b0382116106a45760045490600182811c9216801561069a575b60208310146106845781601f849311610614575b50602090601f83116001146105ac576000926105a1575b50508160011b916000199060031b1c1916176004555b6001600160a01b0316801561058b57600580546001600160a01b03198116831790915581906001600160a01b03167f8be0079c531659141344cd1fd0a4f28419497f9722a3daafe3b4186f6b6457e0600080a360018060a01b031960065416176006553360018060a01b0319600754161760075560805260a05233156105755760025482810180911161055f576002556000913383528260205260408320818154019055604051908152827fddf252ad1be2c89b69c2b068fc378daa952ba7f163c4a11628f55a4df523b3ef60203393a360095582516001600160401b03811161054b57600b54600181811c91168015610541575b602082101461052d57601f81116104ca575b506020601f82116001146104675782939482939261045c575b50508160011b916000199060031b1c191617600b555b8151906001600160401b03821161044857600c54600181811c9116801561043e575b602082101461042a57601f81116103c7575b50602090601f83116001146103665791928361035b575b50508160011b916000199060031b1c191617600c555b604051610da5908161085182396080518161060a015260a051816105270152f35b015190503880610324565b90601f19831693600c8352818320925b8581106103af57508360019510610396575b505050811b01600c5561033a565b015160001960f88460031b161c19169055388080610388565b91926020600181928685015181550194019201610376565b600c82527fdf6966c971051c3d54ec59162606531493a51404a002842f56009d7e5cf4a8c7601f840160051c81019160208510610420575b601f0160051c01905b818110610415575061030d565b828155600101610408565b90915081906103ff565b634e487b7160e01b82526022600452602482fd5b90607f16906102fb565b634e487b7160e01b81526041600452602490fd5b0151905038806102c3565b600b835280832090601f198316845b8181106104b257509583600195969710610499575b505050811b01600b556102d9565b015160001960f88460031b161c1916905538808061048b565b9192602060018192868b015181550194019201610476565b600b83527f0175b7a638427703f0dbe7bb9bbf987a2551717b34e79f33b5b1008d1fa01db9601f830160051c81019160208410610523575b601f0160051c01905b81811061051857506102aa565b83815560010161050b565b9091508190610502565b634e487b7160e01b83526022600452602483fd5b90607f1690610298565b634e487b7160e01b82526041600452602482fd5b634e487b7160e01b600052601160045260246000fd5b63ec442f0560e01b600052600060045260246000fd5b631e4fbdf760e01b600052600060045260246000fd5b01519050388061018d565b600460009081528281209350601f198516905b8181106105fc57509084600195949392106105e3575b505050811b016004556101a3565b015160001960f88460031b161c191690553880806105d5565b929360206001819287860151815501950193016105bf565b60046000529091507f8a35acfbc15ff81a39ae7d344fd709f28e8600b4aa8c65c6b64bfe7fe36bd19b601f840160051c8101916020851061067a575b90601f859493920160051c01905b81811061066b5750610176565b6000815584935060010161065e565b9091508190610650565b634e487b7160e01b600052602260045260246000fd5b91607f1691610162565b634e487b7160e01b600052604160045260246000fd5b015190503880610129565b600360009081528281209350601f198516905b81811061071557509084600195949392106106fc575b505050811b0160035561013f565b015160001960f88460031b161c191690553880806106ee565b929360206001819287860151815501950193016106d8565b60036000529091507fc2575a0e9e593c00f959f8c92f12db2869c3395a3b0502d05e2516446f71f85b601f840160051c81019160208510610793575b90601f859493920160051c01905b8181106107845750610112565b60008155849350600101610777565b9091508190610769565b91607f16916100fe565b600080fd5b6040519190601f01601f191682016001600160401b038111838210176106a457604052565b81601f820112156107a7578051906001600160401b0382116106a457610800601f8301601f19166020016107ac565b92828452602083830101116107a75760005b82811061082757505060206000918301015290565b80602080928401015182828701015201610812565b51906001600160a01b03821682036107a75756fe6080604052600436101561001257600080fd5b60003560e01c806306fdde0314610b3c578063095ea7b314610ab65780630d43e8ad14610a8d5780631755ff2114610a6457806318160ddd14610a4657806323b872dd14610959578063313ce5671461093d57806340c10f191461089b57806342966c681461072f5780634d669f8714610657578063599ca397146106395780635b549182146105f457806370a08231146105b3578063715018a614610556578063791b98bc146105115780638da5cb5b146104e857806395d89b4114610410578063a9059cbb146103df578063abb5ca09146102bc578063ac600a3c14610293578063d5f394881461026a578063dd62ed3e14610219578063e9e15b4f146101885763f2fde38b1461012457600080fd5b346101835760203660031901126101835761013d610c5d565b5060405162461bcd60e51b815260206004820152601e60248201527f4f776e657273686970207472616e736665722069732064697361626c656400006044820152606490fd5b600080fd5b34610183576020366003190112610183576101a1610c5d565b6007546001600160a01b031633036101d557600880546001600160a01b0319166001600160a01b0392909216919091179055005b606460405162461bcd60e51b815260206004820152602060248201527f4f6e6c7920536861646f772063616e2073657420706f6f6c20616464726573736044820152fd5b3461018357604036600319011261018357610232610c5d565b61023a610c73565b6001600160a01b039182166000908152600160209081526040808320949093168252928352819020549051908152f35b34610183576000366003190112610183576006546040516001600160a01b039091168152602090f35b34610183576000366003190112610183576007546040516001600160a01b039091168152602090f35b34610183576000366003190112610183576040516000600c548060011c906001811680156103d5575b6020831081146103c1578285529081156103a5575060011461034e575b50819003601f01601f191681019067ffffffffffffffff82118183101761033857604082905281906103349082610c14565b0390f35b634e487b7160e01b600052604160045260246000fd5b600c60009081529091507fdf6966c971051c3d54ec59162606531493a51404a002842f56009d7e5cf4a8c75b82821061038f57506020915082010182610302565b600181602092548385880101520191019061037a565b90506020925060ff191682840152151560051b82010182610302565b634e487b7160e01b84526022600452602484fd5b91607f16916102e5565b34610183576040366003190112610183576104056103fb610c5d565b6024359033610c89565b602060405160018152f35b346101835760003660031901126101835760405160006004548060011c906001811680156104de575b6020831081146103c1578285529081156103a557506001146104875750819003601f01601f191681019067ffffffffffffffff82118183101761033857604082905281906103349082610c14565b600460009081529091507f8a35acfbc15ff81a39ae7d344fd709f28e8600b4aa8c65c6b64bfe7fe36bd19b5b8282106104c857506020915082010182610302565b60018160209254838588010152019101906104b3565b91607f1691610439565b34610183576000366003190112610183576005546040516001600160a01b039091168152602090f35b34610183576000366003190112610183576040517f00000000000000000000000000000000000000000000000000000000000000006001600160a01b03168152602090f35b346101835760003660031901126101835761056f610d26565b600580546001600160a01b031981169091556000906001600160a01b03167f8be0079c531659141344cd1fd0a4f28419497f9722a3daafe3b4186f6b6457e08280a3005b346101835760203660031901126101835760206105ec6105d1610c5d565b6001600160a01b031660009081526020819052604090205490565b604051908152f35b34610183576000366003190112610183576040517f00000000000000000000000000000000000000000000000000000000000000006001600160a01b03168152602090f35b34610183576000366003190112610183576020600954604051908152f35b34610183576000366003190112610183576040516000600b548060011c90600181168015610725575b6020831081146103c1578285529081156103a557506001146106ce5750819003601f01601f191681019067ffffffffffffffff82118183101761033857604082905281906103349082610c14565b600b60009081529091507f0175b7a638427703f0dbe7bb9bbf987a2551717b34e79f33b5b1008d1fa01db95b82821061070f57506020915082010182610302565b60018160209254838588010152019101906106fa565b91607f1691610680565b346101835760203660031901126101835760043561074b610d26565b6008546001600160a01b03168015610867576001600160a01b038116600090815260208190526040902054821161082257600090806107cf576002548381018091116107bb5760208394600080516020610d50833981519152926002555b8060025403600255604051908152a380f35b634e487b7160e01b83526011600452602483fd5b9182825281602052604082205481811061080a576020828593600080516020610d5083398151915293869787528684520360408620556107a9565b60649363391434e360e21b8452600452602452604452fd5b60405162461bcd60e51b815260206004820152601760248201527f496e73756666696369656e74204c502062616c616e63650000000000000000006044820152606490fd5b60405162461bcd60e51b815260206004820152600c60248201526b141bdbdb081b9bdd081cd95d60a21b6044820152606490fd5b34610183576040366003190112610183576108b4610c5d565b602435906108c0610d26565b6001600160a01b03168015610927576002549180830180931161091157602092600255600080516020610d50833981519152600093849284845283825260408420818154019055604051908152a380f35b634e487b7160e01b600052601160045260246000fd5b63ec442f0560e01b600052600060045260246000fd5b3461018357600036600319011261018357602060405160128152f35b3461018357606036600319011261018357610972610c5d565b61097a610c73565b6001600160a01b03821660008181526001602081815260408084203385529091529091205491936044359392909181016109ba575b506104059350610c89565b838110610a29578415610a135733156109fd57610405946000526001602052604060002060018060a01b03331660005260205283604060002091039055846109af565b634a1406b160e11b600052600060045260246000fd5b63e602df0560e01b600052600060045260246000fd5b8390637dc7a0d960e11b6000523360045260245260445260646000fd5b34610183576000366003190112610183576020600254604051908152f35b34610183576000366003190112610183576008546040516001600160a01b039091168152602090f35b3461018357600036600319011261018357600a546040516001600160a01b039091168152602090f35b3461018357604036600319011261018357610acf610c5d565b602435903315610a13576001600160a01b03169081156109fd57336000526001602052604060002082600052602052806040600020556040519081527f8c5be1e5ebec7d5bd14f71427d1e84f3dd0314c0f7b2291e5b200ac8c7c3b92560203392a3602060405160018152f35b346101835760003660031901126101835760405160006003548060011c90600181168015610c0a575b6020831081146103c1578285529081156103a55750600114610bb35750819003601f01601f191681019067ffffffffffffffff82118183101761033857604082905281906103349082610c14565b600360009081529091507fc2575a0e9e593c00f959f8c92f12db2869c3395a3b0502d05e2516446f71f85b5b828210610bf457506020915082010182610302565b6001816020925483858801015201910190610bdf565b91607f1691610b65565b91909160208152825180602083015260005b818110610c47575060409293506000838284010152601f8019910116010190565b8060208092870101516040828601015201610c26565b600435906001600160a01b038216820361018357565b602435906001600160a01b038216820361018357565b6001600160a01b0316908115610d10576001600160a01b0316918215610927576000828152806020526040812054828110610cf6579160408282600080516020610d50833981519152958760209652828652038282205586815280845220818154019055604051908152a3565b916064928463391434e360e21b8452600452602452604452fd5b634b637e8f60e11b600052600060045260246000fd5b6005546001600160a01b03163303610d3a57565b63118cdaa760e01b6000523360045260246000fdfeddf252ad1be2c89b69c2b068fc378daa952ba7f163c4a11628f55a4df523b3efa2646970667358221220477460da2f44d9bf8d6c7342bd968e6aad46cee0f074c73dd7de012b69a78f2764736f6c634300081b0033a264697066735822122098ca58078f537191f5110164b05660a7c72f3d0bb30bc47490582a73bb8dd2d864736f6c634300081b0033",
  "linkReferences": {
    "contracts/ShadowMathLib.sol": {
      "ShadowMathLib": [
        {
          "length": 20,
          "start": 11126
        }
      ]
    }
  },
  "deployedLinkReferences": {
    "contracts/ShadowMathLib.sol": {
      "ShadowMathLib": [
        {
          "length": 20,
          "start": 10546
        }
      ]
    }
  }
}