{
  "_format": "hh-sol-artifact-1",
  "contractName": "Shadow",
  "sourceName": "contracts/Shadow.sol",
  "abi": [
    {
      "inputs": [
        {
          "internalType": "address",
          "name": "weth_",
          "type": "address"
        },
        {
          "internalType": "address",
          "name": "uniswapV3Factory_",
          "type": "address"
        },
        {
          "internalType": "address",
          "name": "positionManager_",
          "type": "address"
        },
        {
          "internalType": "address",
          "name": "swapRouter_",
          "type": "address"
        },
        {
          "internalType": "address",
          "name": "owner_",
          "type": "address"
        }
      ],
      "stateMutability": "nonpayable",
      "type": "constructor"
    },
    {
      "inputs": [],
      "name": "InvalidTokenOrder",
      "type": "error"
    },
    {
      "inputs": [
        {
          "internalType": "address",
          "name": "owner",
          "type": "address"
        }
      ],
      "name": "OwnableInvalidOwner",
      "type": "error"
    },
    {
      "inputs": [
        {
          "internalType": "address",
          "name": "account",
          "type": "address"
        }
      ],
      "name": "OwnableUnauthorizedAccount",
      "type": "error"
    },
    {
      "anonymous": false,
      "inputs": [
        {
          "indexed": false,
          "internalType": "bool",
          "name": "enabled",
          "type": "bool"
        }
      ],
      "name": "CreationStatusChanged",
      "type": "event"
    },
    {
      "anonymous": false,
      "inputs": [
        {
          "indexed": false,
          "internalType": "string",
          "name": "message",
          "type": "string"
        }
      ],
      "name": "Debug",
      "type": "event"
    },
    {
      "anonymous": false,
      "inputs": [
        {
          "indexed": true,
          "internalType": "address",
          "name": "previousOwner",
          "type": "address"
        },
        {
          "indexed": true,
          "internalType": "address",
          "name": "newOwner",
          "type": "address"
        }
      ],
      "name": "OwnershipTransferred",
      "type": "event"
    },
    {
      "anonymous": false,
      "inputs": [
        {
          "indexed": false,
          "internalType": "address",
          "name": "tokenAddress",
          "type": "address"
        },
        {
          "indexed": false,
          "internalType": "address",
          "name": "deployer",
          "type": "address"
        },
        {
          "indexed": false,
          "internalType": "string",
          "name": "name",
          "type": "string"
        },
        {
          "indexed": false,
          "internalType": "string",
          "name": "symbol",
          "type": "string"
        },
        {
          "indexed": false,
          "internalType": "uint256",
          "name": "supply",
          "type": "uint256"
        }
      ],
      "name": "TokenCreated",
      "type": "event"
    },
    {
      "inputs": [],
      "name": "DEAD_ADDRESS",
      "outputs": [
        {
          "internalType": "address",
          "name": "",
          "type": "address"
        }
      ],
      "stateMutability": "view",
      "type": "function"
    },
    {
      "inputs": [],
      "name": "TICK_SPACING",
      "outputs": [
        {
          "internalType": "int24",
          "name": "",
          "type": "int24"
        }
      ],
      "stateMutability": "view",
      "type": "function"
    },
    {
      "inputs": [
        {
          "internalType": "uint256",
          "name": "supply",
          "type": "uint256"
        },
        {
          "internalType": "uint256",
          "name": "liquidity",
          "type": "uint256"
        }
      ],
      "name": "calculateNumerator",
      "outputs": [
        {
          "internalType": "uint256",
          "name": "",
          "type": "uint256"
        }
      ],
      "stateMutability": "pure",
      "type": "function"
    },
    {
      "inputs": [
        {
          "internalType": "uint256",
          "name": "numerator",
          "type": "uint256"
        }
      ],
      "name": "calculateTickFromNumerator",
      "outputs": [
        {
          "internalType": "int256",
          "name": "",
          "type": "int256"
        }
      ],
      "stateMutability": "pure",
      "type": "function"
    },
    {
      "inputs": [],
      "name": "collectAllFees",
      "outputs": [],
      "stateMutability": "nonpayable",
      "type": "function"
    },
    {
      "inputs": [
        {
          "internalType": "address",
          "name": "token",
          "type": "address"
        }
      ],
      "name": "collectFees",
      "outputs": [],
      "stateMutability": "nonpayable",
      "type": "function"
    },
    {
      "inputs": [
        {
          "internalType": "string",
          "name": "name",
          "type": "string"
        },
        {
          "internalType": "string",
          "name": "symbol",
          "type": "string"
        },
        {
          "internalType": "uint256",
          "name": "supply",
          "type": "uint256"
        },
        {
          "internalType": "uint256",
          "name": "liquidity",
          "type": "uint256"
        },
        {
          "internalType": "uint24",
          "name": "fee",
          "type": "uint24"
        },
        {
          "internalType": "bytes32",
          "name": "salt",
          "type": "bytes32"
        },
        {
          "internalType": "address",
          "name": "deployer",
          "type": "address"
        },
        {
          "internalType": "uint256",
          "name": "maxWalletPercentage",
          "type": "uint256"
        },
        {
          "internalType": "uint256",
          "name": "firstBuyAmount",
          "type": "uint256"
        },
        {
          "internalType": "string",
          "name": "twitterName",
          "type": "string"
        }
      ],
      "name": "deployToken",
      "outputs": [],
      "stateMutability": "payable",
      "type": "function"
    },
    {
      "inputs": [
        {
          "internalType": "address",
          "name": "deployer",
          "type": "address"
        },
        {
          "internalType": "string",
          "name": "name",
          "type": "string"
        },
        {
          "internalType": "string",
          "name": "symbol",
          "type": "string"
        },
        {
          "internalType": "uint256",
          "name": "supply",
          "type": "uint256"
        },
        {
          "internalType": "uint256",
          "name": "maxWalletPercentage",
          "type": "uint256"
        },
        {
          "internalType": "string",
          "name": "twitterName",
          "type": "string"
        }
      ],
      "name": "generateSalt",
      "outputs": [
        {
          "internalType": "bytes32",
          "name": "salt",
          "type": "bytes32"
        },
        {
          "internalType": "address",
          "name": "token",
          "type": "address"
        }
      ],
      "stateMutability": "view",
      "type": "function"
    },
    {
      "inputs": [],
      "name": "isCreationEnabled",
      "outputs": [
        {
          "internalType": "bool",
          "name": "",
          "type": "bool"
        }
      ],
      "stateMutability": "view",
      "type": "function"
    },
    {
      "inputs": [],
      "name": "owner",
      "outputs": [
        {
          "internalType": "address",
          "name": "",
          "type": "address"
        }
      ],
      "stateMutability": "view",
      "type": "function"
    },
    {
      "inputs": [],
      "name": "positionManager",
      "outputs": [
        {
          "internalType": "contract INonfungiblePositionManager",
          "name": "",
          "type": "address"
        }
      ],
      "stateMutability": "view",
      "type": "function"
    },
    {
      "inputs": [
        {
          "internalType": "address",
          "name": "deployer",
          "type": "address"
        },
        {
          "internalType": "string",
          "name": "name",
          "type": "string"
        },
        {
          "internalType": "string",
          "name": "symbol",
          "type": "string"
        },
        {
          "internalType": "uint256",
          "name": "supply",
          "type": "uint256"
        },
        {
          "internalType": "bytes32",
          "name": "salt",
          "type": "bytes32"
        },
        {
          "internalType": "uint256",
          "name": "maxWalletPercentage",
          "type": "uint256"
        },
        {
          "internalType": "string",
          "name": "twitterName",
          "type": "string"
        }
      ],
      "name": "predictToken",
      "outputs": [
        {
          "internalType": "address",
          "name": "",
          "type": "address"
        }
      ],
      "stateMutability": "view",
      "type": "function"
    },
    {
      "inputs": [],
      "name": "renounceOwnership",
      "outputs": [],
      "stateMutability": "nonpayable",
      "type": "function"
    },
    {
      "inputs": [
        {
          "internalType": "bool",
          "name": "enabled",
          "type": "bool"
        }
      ],
      "name": "setCreationEnabled",
      "outputs": [],
      "stateMutability": "nonpayable",
      "type": "function"
    },
    {
      "inputs": [],
      "name": "swapRouter",
      "outputs": [
        {
          "internalType": "address",
          "name": "",
          "type": "address"
        }
      ],
      "stateMutability": "view",
      "type": "function"
    },
    {
      "inputs": [
        {
          "internalType": "uint256",
          "name": "",
          "type": "uint256"
        }
      ],
      "name": "tokenList",
      "outputs": [
        {
          "internalType": "address",
          "name": "",
          "type": "address"
        }
      ],
      "stateMutability": "view",
      "type": "function"
    },
    {
      "inputs": [
        {
          "internalType": "address",
          "name": "",
          "type": "address"
        },
        {
          "internalType": "uint256",
          "name": "",
          "type": "uint256"
        }
      ],
      "name": "tokenPositions",
      "outputs": [
        {
          "internalType": "uint256",
          "name": "",
          "type": "uint256"
        }
      ],
      "stateMutability": "view",
      "type": "function"
    },
    {
      "inputs": [
        {
          "internalType": "address",
          "name": "newOwner",
          "type": "address"
        }
      ],
      "name": "transferOwnership",
      "outputs": [],
      "stateMutability": "nonpayable",
      "type": "function"
    },
    {
      "inputs": [],
      "name": "uniswapV3Factory",
      "outputs": [
        {
          "internalType": "contract IUniswapV3Factory",
          "name": "",
          "type": "address"
        }
      ],
      "stateMutability": "view",
      "type": "function"
    },
    {
      "inputs": [],
      "name": "usdc",
      "outputs": [
        {
          "internalType": "address",
          "name": "",
          "type": "address"
        }
      ],
      "stateMutability": "view",
      "type": "function"
    },
    {
      "inputs": [],
      "name": "weth",
      "outputs": [
        {
          "internalType": "address",
          "name": "",
          "type": "address"
        }
      ],
      "stateMutability": "view",
      "type": "function"
    },
    {
      "stateMutability": "payable",
      "type": "receive"
    }
  ],
  "bytecode": "0x610140346101b257601f6139f338819003918201601f19168301916001600160401b038311848410176101b75780849260a0946040528339810103126101b257610048816101cd565b90610055602082016101cd565b610061604083016101cd565b9061006e606084016101cd565b926001600160a01b0390610084906080016101cd565b1693841561019c57600080546001600160a01b031981168717825560405196916001600160a01b03909116907f8be0079c531659141344cd1fd0a4f28419497f9722a3daafe3b4186f6b6457e09080a373833589fcd6edb6e08f4c7c32d4f71b54bda0291360a05261dead60c0526003805460ff191660011790556080526001600160a01b0390811660e05216610100526101205261381190816101e282396080518181816108c701528181611de60152611eca015260a05181611f0f015260c05181611d13015260e05181818161076f01528181611cce015261224e0152610100518181816102d7015281816105360152818161080601528181611a5601526122760152610120518181816101d40152610d930152f35b631e4fbdf760e01b600052600060045260246000fd5b600080fd5b634e487b7160e01b600052604160045260246000fd5b51906001600160a01b03821682036101b25756fe6080604052600436101561001b575b361561001957600080fd5b005b60003560e01c80630a676fa814611f6e5780630d9a444614611f3e5780633e413bee14611ef95780633fc8cef314611eb457806346ca626b14611e985780634de8fad914611d425780634e6fd6c414611cfd5780635b54918214611cb8578063686f2c90146119fc57806369b3a9b4146106205780636a5dab9f146105be578063715018a614610565578063791b98bc146105205780638da5cb5b146104f75780639ead7222146104b5578063a10b521b14610492578063a480ca791461025c578063c0dd7cd514610203578063c31c9c07146101be578063c43cb3fb146101955763f2fde38b0361000e573461019057602036600319011261019057610120612012565b610128612427565b6001600160a01b0316801561017a57600080546001600160a01b03198116831782556001600160a01b0316907f8be0079c531659141344cd1fd0a4f28419497f9722a3daafe3b4186f6b6457e09080a3005b631e4fbdf760e01b600052600060045260246000fd5b600080fd5b346101905760403660031901126101905760206101b66024356004356123b0565b604051908152f35b34610190576000366003190112610190576040517f00000000000000000000000000000000000000000000000000000000000000006001600160a01b03168152602090f35b346101905760403660031901126101905761021c612012565b6001600160a01b03166000908152600260205260409020805460243591908210156101905760209161024d91612118565b90549060031b1c604051908152f35b3461019057602036600319011261019057610275612012565b61027d612427565b60018060a01b0316600052600260205260406000206040518082602082945493848152019060005260206000209260005b8181106104795750506102c392500382612070565b805115610434576000546001600160a01b037f00000000000000000000000000000000000000000000000000000000000000008116911661030383612358565b5190823b156101905760405163095ea7b360e01b81526001600160a01b03919091166004820152602481019190915260008160448183865af1801561041757610423575b5060005b82518110156100195761035e8184612365565b51600054604051916001600160801b03916001600160a01b03169061038284612055565b835260208301908152604080840183815260608501848152825163fc6f786560e01b81529551600487015292516001600160a01b03166024860152518316604485015290519091166064830152816084816000875af18015610417576103ec575b5060010161034b565b604090813d8111610410575b6104028183612070565b8101031261019057836103e3565b503d6103f8565b6040513d6000823e3d90fd5b600061042e91612070565b82610347565b60405162461bcd60e51b815260206004820152601b60248201527f4e6f20706f736974696f6e7320666f72207468697320746f6b656e00000000006044820152606490fd5b84548352600194850194869450602090930192016102ae565b3461019057600036600319011261019057602060ff600354166040519015158152f35b3461019057602036600319011261019057600435600154811015610190576104de6020916120e7565b905460405160039290921b1c6001600160a01b03168152f35b34610190576000366003190112610190576000546040516001600160a01b039091168152602090f35b34610190576000366003190112610190576040517f00000000000000000000000000000000000000000000000000000000000000006001600160a01b03168152602090f35b346101905760003660031901126101905761057e612427565b600080546001600160a01b0319811682556001600160a01b03167f8be0079c531659141344cd1fd0a4f28419497f9722a3daafe3b4186f6b6457e08280a3005b34610190576020366003190112610190576004358015158091036101905760207f1a3f40fae3a310ca113098ad34d161433ab7e470c2a167b60a190a80364043bc91610608612427565b60ff196003541660ff821617600355604051908152a1005b610140366003190112610190576004356001600160401b0381116101905761064c903690600401612091565b6024356001600160401b0381116101905761066b903690600401612091565b906044356084359062ffffff8216928383036101905760c4356001600160a01b0381169490859003610190576101043593610124356001600160401b038111610190576106bc903690600401612091565b9460ff60035416156119b757841561197257861561192d578351156118f1578751156118b357612710830361187b5785511561183657604051610732600a602083885161070e81848401858d01612130565b81016920627920536861646f7760b01b838201520301601519810184520182612070565b670de0b6b3a7640000655af1e679571061074e606435896123b0565b05056000811315611805576040516322afcccb60e01b8152600481018690527f00000000000000000000000000000000000000000000000000000000000000006001600160a01b03169490602081602481895afa908115610417576000916117c5575b5060020b98891561124f5789620d89e80760020b620d89e80392627fffff8413627fffff1985121761108e5760020b627fffff19811461108e57600003998a60020b9080820760020b611769575b50506040517f00000000000000000000000000000000000000000000000000000000000000006001600160a01b03169461138b80830191906001600160401b03831184841017610f56578f928f61087e8f93956108706108ae9689986124518a396101008652610100860190612153565b908482036020860152612153565b92604083015260608201528a60808201528860a082015260e43560c082015260e081830391015260a43594612153565b03906000f58015610417576001600160a01b03908116997f000000000000000000000000000000000000000000000000000000000000000091821696878c101561171857604051630b4c774160e11b81526001600160a01b038d811660048301528416602482015262ffffff851660448201529390602085606481845afa948515610417576000956116f7575b50849260020b94600086126000146116f157600160ff1b861461108e57856000035b620d89e881116116c85760018116156116b6576001600160881b036ffffcb933bd6fad37aa2d162d1a5940015b16906002811661167b575b60048116611640575b60088116611605575b601081166115ca575b6020811661158f575b60408116611554575b60808116611519575b61010081166114de575b61020081166114a3575b6104008116611468575b610800811661142d575b61100081166113f2575b61200081166113b7575b614000811661137c575b6180008116611341575b620100008116611306575b6202000081166112cd575b620400008116611296575b6208000016611265575b60008713611240575b63ffffffff8160201c9116156000146112375760ff60005b16810180911161108e578e916001600160a01b031615611158575b50604051630b4c774160e11b81526001600160a01b0391821660048201529416602485015262ffffff909116604484015260209083908180606481015b03915afa91821561041757600092611127575b506001600160a01b0390811691168190036110ef57893b156101905760405163e9e15b4f60e01b81526004810191909152600081602481838e5af18015610417576110de575b5060405163095ea7b360e01b815260048101849052600019602482015260208160448160008e5af18015610417576110c1575b5060405163a9059cbb60e01b81523060048201526024810189905260208160448160008e5af18015610417576110a4575b50603c42019081421161108e576040519261016084018481106001600160401b03821117610f56576040528a84526020840191878352604085019189835260608601918252608086019060020b815260a086018c815260c08701916000835260e08801936000855262ffffff6101008a0196600088526101208b0198308a526101408c019a8b526040519b634418b22b60e11b8d5260018060a01b0390511660048d015260018060a01b0390511660248c0152511660448a01525160020b60648901525160020b60848801525160a48701525160c48601525160e48501525161010484015260018060a01b0390511661012483015251610144820152608081610164816000865af190811561041757600091611044575b5087600052600260205260406000208054600160401b811015610f5657610cbf91600182018155612118565b819291549060031b91821b91600019901b1916179055600154600160401b811015610f5657806001610cf492016001556120e7565b81546001600160a01b0360039290921b91821b19169089901b17905560405163095ea7b360e01b81526004810191909152600019602482015260208160448160008b5af1801561041757611027575b506040516323b872dd60e01b8152336004820152306024820152604481018290526020816064816000875af190811561041757600091611008575b5015610fd15760405163095ea7b360e01b81527f00000000000000000000000000000000000000000000000000000000000000006001600160a01b03811660048301526024820183905292906020816044816000865af190811561041757600091610fa2575b5015610f6c5760405160e081018181106001600160401b03821117610f565760409081529181526020818101898152828401968752306060840190815260808401958652600060a0850181815260c0860182815296516304e45aaf60e01b815295516001600160a01b039081166004880152935184166024870152985162ffffff16604486015290518216606485015294516084840152955160a48301529151851660c4820152939092849260e4928492165af1801561041757610f04575b507f6e6ae68e7d7d45fbd855c40d1eaafa8de46c5fbec3ee26f1af88730e400bc92c94610eeb610ef9926040519687968752602087015260a0604087015260a0860190612153565b908482036060860152612153565b9060808301520390a1005b946020863d602011610f4e575b81610f1e60209383612070565b810103126101905794507f6e6ae68e7d7d45fbd855c40d1eaafa8de46c5fbec3ee26f1af88730e400bc92c610ea3565b3d9150610f11565b634e487b7160e01b600052604160045260246000fd5b60405162461bcd60e51b815260206004820152600e60248201526d105c1c1c9bdd994819985a5b195960921b6044820152606490fd5b610fc4915060203d602011610fca575b610fbc8183612070565b810190612398565b8a610de4565b503d610fb2565b60405162461bcd60e51b815260206004820152600f60248201526e151c985b9cd9995c8819985a5b1959608a1b6044820152606490fd5b611021915060203d602011610fca57610fbc8183612070565b89610d7e565b61103f9060203d602011610fca57610fbc8183612070565b610d43565b906080823d608011611086575b8161105e60809383612070565b8101031261108357602082519201516001600160801b0381160361108357508a610c93565b80fd5b3d9150611051565b634e487b7160e01b600052601160045260246000fd5b6110bc9060203d602011610fca57610fbc8183612070565b610b7c565b6110d99060203d602011610fca57610fbc8183612070565b610b4b565b60006110e991612070565b8b610b18565b60405162461bcd60e51b815260206004820152601060248201526f141bdbdb081b9bdd0818dc99585d195960821b6044820152606490fd5b61114a91925060203d602011611151575b6111428183612070565b810190612379565b908d610ad2565b503d611138565b60405163a167129560e01b81526001600160a01b039283166004820152918616602483015262ffffff8416604483015290935091906020846064816000855af193841561041757600094611216575b506001600160a01b03841692833b156101905760405163f637731d60e01b81526001600160a01b039091166004820152926000908490602490829084905af1948515610417578e602094610abf97611205575b509192935094610a82565b600061121091612070565b386111fa565b61123091945060203d602011611151576111428183612070565b92386111a7565b60ff6001610a67565b801561124f5760001904610a4f565b634e487b7160e01b600052601260045260246000fd5b6b048a170391f7dc42444e8fa28102908082046b048a170391f7dc42444e8fa2149015171561108e5760801c610a46565b906d2216e584f5fa1ea926041bedfe988102908082046d2216e584f5fa1ea926041bedfe98149015171561108e5760801c90610a3c565b906e5d6af8dedb81196699c329225ee6048102908082046e5d6af8dedb81196699c329225ee604149015171561108e5760801c90610a31565b906f09aa508b5b7a84e1c677de54f3e99bc98102908082046f09aa508b5b7a84e1c677de54f3e99bc9149015171561108e5760801c90610a26565b906f31be135f97d08fd981231505542fcfa68102908082046f31be135f97d08fd981231505542fcfa6149015171561108e5760801c90610a1b565b906f70d869a156d2a1b890bb3df62baf32f78102908082046f70d869a156d2a1b890bb3df62baf32f7149015171561108e5760801c90610a11565b906fa9f746462d870fdf8a65dc1f90e061e58102908082046fa9f746462d870fdf8a65dc1f90e061e5149015171561108e5760801c90610a07565b906fd097f3bdfd2022b8845ad8f792aa58258102908082046fd097f3bdfd2022b8845ad8f792aa5825149015171561108e5760801c906109fd565b906fe7159475a2c29b7443b29c7fa6e889d98102908082046fe7159475a2c29b7443b29c7fa6e889d9149015171561108e5760801c906109f3565b906ff3392b0822b70005940c7a398e4b70f38102908082046ff3392b0822b70005940c7a398e4b70f3149015171561108e5760801c906109e9565b906ff987a7253ac413176f2b074cf7815e548102908082046ff987a7253ac413176f2b074cf7815e54149015171561108e5760801c906109df565b906ffcbe86c7900a88aedcffc83b479aa3a48102908082046ffcbe86c7900a88aedcffc83b479aa3a4149015171561108e5760801c906109d5565b906ffe5dee046a99a2a811c461f1969c30538102908082046ffe5dee046a99a2a811c461f1969c3053149015171561108e5760801c906109cb565b906fff2ea16466c96a3843ec78b326b528618102908082046fff2ea16466c96a3843ec78b326b52861149015171561108e5760801c906109c2565b906fff973b41fa98c081472e6896dfb254c08102908082046fff973b41fa98c081472e6896dfb254c0149015171561108e5760801c906109b9565b906fffcb9843d60f6159c9db58835c9266448102908082046fffcb9843d60f6159c9db58835c926644149015171561108e5760801c906109b0565b906fffe5caca7e10e4e61c3624eaa0941cd08102908082046fffe5caca7e10e4e61c3624eaa0941cd0149015171561108e5760801c906109a7565b906ffff2e50f5f656932ef12357cf3c7fdcc8102908082046ffff2e50f5f656932ef12357cf3c7fdcc149015171561108e5760801c9061099e565b906ffff97272373d413259a46990580e213a8102908082046ffff97272373d413259a46990580e213a149015171561108e5760801c90610995565b6001600160881b03600160801b61098a565b60405162461bcd60e51b81526020600482015260016024820152601560fa1b6044820152606490fd5b8561095d565b61171191955060203d602011611151576111428183612070565b938f61093b565b60405162461bcd60e51b8152602060048201526024808201527f546f6b656e2061646472657373206d757374206265206c657373207468616e206044820152630ae8aa8960e31b6064820152608490fd5b919a5060009190627fffff1981146000198314166117b15781900560020b02908160020b91820361179d5750988c806107ff565b634e487b7160e01b81526011600452602490fd5b634e487b7160e01b83526011600452602483fd5b6020813d6020116117fd575b816117de60209383612070565b810103126117f95751908160020b820361108357508c6107b1565b5080fd5b3d91506117d1565b60405162461bcd60e51b815260206004820152600960248201526805072696365203c20360bc1b6044820152606490fd5b60405162461bcd60e51b815260206004820152601c60248201527f54776974746572206e616d652063616e6e6f7420626520656d707479000000006044820152606490fd5b60405162461bcd60e51b815260206004820152601060248201526f24b73b30b634b2103332b2903a34b2b960811b6044820152606490fd5b60405162461bcd60e51b815260206004820152601660248201527553796d626f6c2063616e6e6f7420626520656d70747960501b6044820152606490fd5b60405162461bcd60e51b81526020600482015260146024820152734e616d652063616e6e6f7420626520656d70747960601b6044820152606490fd5b60405162461bcd60e51b815260206004820152601860248201527f496e76616c6964206465706c6f796572206164647265737300000000000000006044820152606490fd5b60405162461bcd60e51b815260206004820152601d60248201527f537570706c79206d7573742062652067726561746572207468616e20300000006044820152606490fd5b60405162461bcd60e51b815260206004820152601a60248201527f546f6b656e206372656174696f6e2069732064697361626c65640000000000006044820152606490fd5b3461019057600036600319011261019057611a15612427565b600154611a2181612341565b90611a2f6040519283612070565b808252601f19611a3e82612341565b0136602084013760009060005b818110611c4f5760007f00000000000000000000000000000000000000000000000000000000000000006001600160a01b031684865b818410611a8a57005b6001600160a01b03611a9c8583612365565b5116611aa6612427565b600052600260205260406000209160405180938491602082549182815201916000526020600020906000905b808210611c375750505090611ae8910384612070565b825115610434576000546001600160a01b0316611b0484612358565b5190853b156101905760405163095ea7b360e01b81526001600160a01b03919091166004820152602481019190915260008160448183895af1801561041757611c26575b5060005b8351811015611c1857611b5f8185612365565b51600054604051916001600160801b03916001600160a01b031690611b8384612055565b835260208301908152604080840183815260608501848152825163fc6f786560e01b81529551600487015292516001600160a01b031660248601525183166044850152905190911660648301528160848160008a5af1801561041757611bed575b50600101611b4c565b604090813d8111611c11575b611c038183612070565b810103126101905786611be4565b503d611bf9565b506001909401939150611a81565b6000611c3191612070565b85611b48565b90919260016020819286548152019401920190611ad2565b611c58816120e7565b60018060a01b0391549060031b1c166000526002602052604060002054611c82575b600101611a4b565b91611cb0600191611c92856120e7565b848060a01b0391549060031b1c16611caa8288612365565b52612332565b929050611c7a565b34610190576000366003190112610190576040517f00000000000000000000000000000000000000000000000000000000000000006001600160a01b03168152602090f35b34610190576000366003190112610190576040517f00000000000000000000000000000000000000000000000000000000000000006001600160a01b03168152602090f35b346101905760c036600319011261019057611d5b612012565b6024356001600160401b03811161019057611d7a903690600401612028565b90916044356001600160401b03811161019057611d9b903690600401612028565b909360a435936001600160401b03851161019057838692611dc0873690600401612028565b93909260005b611ddc8686608435846064358d8d8a8c8b612199565b6001600160a01b037f000000000000000000000000000000000000000000000000000000000000000081169082161080611e8f575b611e755750611e1f90612332565b966103e8881015611e305796611dc6565b60405162461bcd60e51b815260206004820152601960248201527f436f756c64206e6f742066696e642076616c69642073616c74000000000000006044820152606490fd5b604080519283526001600160a01b03909116602083015290f35b50803b15611e11565b3461019057600036600319011261019057602060405160c88152f35b34610190576000366003190112610190576040517f00000000000000000000000000000000000000000000000000000000000000006001600160a01b03168152602090f35b34610190576000366003190112610190576040517f00000000000000000000000000000000000000000000000000000000000000006001600160a01b03168152602090f35b34610190576020366003190112610190576020670de0b6b3a7640000655af1e67957106004350505604051908152f35b346101905760e036600319011261019057611f87612012565b6024356001600160401b03811161019057611fa6903690600401612028565b6044356001600160401b03811161019057611fc5903690600401612028565b9160c435936001600160401b03851161019057602095611fec612000963690600401612028565b95909460a435946084359460643594612199565b6040516001600160a01b039091168152f35b600435906001600160a01b038216820361019057565b9181601f84011215610190578235916001600160401b038311610190576020838186019501011161019057565b608081019081106001600160401b03821117610f5657604052565b90601f801991011681019081106001600160401b03821117610f5657604052565b81601f82011215610190578035906001600160401b038211610f5657604051926120c5601f8401601f191660200185612070565b8284526020838301011161019057816000926020809301838601378301015290565b60015481101561210257600160005260206000200190600090565b634e487b7160e01b600052603260045260246000fd5b80548210156121025760005260206000200190600090565b60005b8381106121435750506000910152565b8181015183820152602001612133565b9060209161216c81518092818552858086019101612130565b601f01601f1916010190565b908060209392818452848401376000828201840152601f01601f1916010190565b959890979296979491948560405196879260208401378101602081016920627920536861646f7760b01b90520360200160151981018652600a016121dd9086612070565b61138b976040519660208a016121f39089612070565b89885260208801996124518b3960405198899660208801986101008a52610120890161221e91612153565b90601f198983030160408a015261223492612178565b60608701949094526001600160a01b0390811660808701527f0000000000000000000000000000000000000000000000000000000000000000811660a08701527f00000000000000000000000000000000000000000000000000000000000000001660c086015260e0850152838203601f19016101008501526122b692612178565b03601f19810184526122c89084612070565b604051928392602084019586915180926122e192612130565b830190519182602083016122f492612130565b01038082526123069060200182612070565b519020906040519160408301526020820152308152600b0160ff8153605590206001600160a01b031690565b600019811461108e5760010190565b6001600160401b038111610f565760051b60200190565b8051156121025760200190565b80518210156121025760209160051b010190565b9081602091031261019057516001600160a01b03811681036101905790565b90816020910312610190575180151581036101905790565b906040519163c43cb3fb60e01b83526004830152602482015260208160448173__$e02074b1f9eeb976d6d8fd3b2944d7d6c9$__5af4908115610417576000916123f8575090565b90506020813d60201161241f575b8161241360209383612070565b81010312610190575190565b3d9150612406565b6000546001600160a01b0316330361243b57565b63118cdaa760e01b6000523360045260246000fdfe60c06040523461061f5761138b8038038061001981610624565b9283398101906101008183031261061f5780516001600160401b03811161061f5782610046918301610649565b60208201519092906001600160401b03811161061f5781610068918401610649565b9160408101519261007b606083016106b4565b610087608084016106b4565b9161009460a085016106b4565b9360c08101519560e082015160018060401b03811161061f576100b79201610649565b875190976001600160401b03821161051c5760035490600182811c92168015610615575b60208310146104fc5781601f8493116105a5575b50602090601f831160011461053d57600092610532575b50508160011b916000199060031b1c1916176003555b8051906001600160401b03821161051c5760045490600182811c92168015610512575b60208310146104fc5781601f84931161048c575b50602090601f831160011461042457600092610419575b50508160011b916000199060031b1c1916176004555b6001600160a01b0316801561040357600580546001600160a01b03198116831790915581906001600160a01b03167f8be0079c531659141344cd1fd0a4f28419497f9722a3daafe3b4186f6b6457e0600080a360018060a01b031960065416176006553360018060a01b0319600754161760075560805260a05233156103ed576002548281018091116103d7576002556000913383528260205260408320818154019055604051908152827fddf252ad1be2c89b69c2b068fc378daa952ba7f163c4a11628f55a4df523b3ef60203393a36009558151906001600160401b0382116103c357600b54600181811c911680156103b9575b60208210146103a557601f8111610342575b50602090601f83116001146102e1579192836102d6575b50508160011b916000199060031b1c191617600b555b604051610cc290816106c9823960805181610527015260a051816104440152f35b01519050388061029f565b90601f19831693600b8352818320925b85811061032a57508360019510610311575b505050811b01600b556102b5565b015160001960f88460031b161c19169055388080610303565b919260206001819286850151815501940192016102f1565b600b82527f0175b7a638427703f0dbe7bb9bbf987a2551717b34e79f33b5b1008d1fa01db9601f840160051c8101916020851061039b575b601f0160051c01905b8181106103905750610288565b828155600101610383565b909150819061037a565b634e487b7160e01b82526022600452602482fd5b90607f1690610276565b634e487b7160e01b81526041600452602490fd5b634e487b7160e01b600052601160045260246000fd5b63ec442f0560e01b600052600060045260246000fd5b631e4fbdf760e01b600052600060045260246000fd5b01519050388061016a565b600460009081528281209350601f198516905b818110610474575090846001959493921061045b575b505050811b01600455610180565b015160001960f88460031b161c1916905538808061044d565b92936020600181928786015181550195019301610437565b60046000529091507f8a35acfbc15ff81a39ae7d344fd709f28e8600b4aa8c65c6b64bfe7fe36bd19b601f840160051c810191602085106104f2575b90601f859493920160051c01905b8181106104e35750610153565b600081558493506001016104d6565b90915081906104c8565b634e487b7160e01b600052602260045260246000fd5b91607f169161013f565b634e487b7160e01b600052604160045260246000fd5b015190503880610106565b600360009081528281209350601f198516905b81811061058d5750908460019594939210610574575b505050811b0160035561011c565b015160001960f88460031b161c19169055388080610566565b92936020600181928786015181550195019301610550565b60036000529091507fc2575a0e9e593c00f959f8c92f12db2869c3395a3b0502d05e2516446f71f85b601f840160051c8101916020851061060b575b90601f859493920160051c01905b8181106105fc57506100ef565b600081558493506001016105ef565b90915081906105e1565b91607f16916100db565b600080fd5b6040519190601f01601f191682016001600160401b0381118382101761051c57604052565b81601f8201121561061f578051906001600160401b03821161051c57610678601f8301601f1916602001610624565b928284526020838301011161061f5760005b82811061069f57505060206000918301015290565b8060208092840101518282870101520161068a565b51906001600160a01b038216820361061f5756fe6080604052600436101561001257600080fd5b60003560e01c806306fdde0314610a59578063095ea7b3146109d35780630d43e8ad146109aa5780631755ff211461098157806318160ddd1461096357806323b872dd14610876578063313ce5671461085a57806340c10f19146107b857806342966c681461064c5780634d669f8714610574578063599ca397146105565780635b5491821461051157806370a08231146104d0578063715018a614610473578063791b98bc1461042e5780638da5cb5b1461040557806395d89b41146102e2578063a9059cbb146102b1578063ac600a3c14610288578063d5f394881461025f578063dd62ed3e1461020e578063e9e15b4f1461017d5763f2fde38b1461011957600080fd5b3461017857602036600319011261017857610132610b7a565b5060405162461bcd60e51b815260206004820152601e60248201527f4f776e657273686970207472616e736665722069732064697361626c656400006044820152606490fd5b600080fd5b3461017857602036600319011261017857610196610b7a565b6007546001600160a01b031633036101ca57600880546001600160a01b0319166001600160a01b0392909216919091179055005b606460405162461bcd60e51b815260206004820152602060248201527f4f6e6c7920536861646f772063616e2073657420706f6f6c20616464726573736044820152fd5b3461017857604036600319011261017857610227610b7a565b61022f610b90565b6001600160a01b039182166000908152600160209081526040808320949093168252928352819020549051908152f35b34610178576000366003190112610178576006546040516001600160a01b039091168152602090f35b34610178576000366003190112610178576007546040516001600160a01b039091168152602090f35b34610178576040366003190112610178576102d76102cd610b7a565b6024359033610ba6565b602060405160018152f35b346101785760003660031901126101785760405160006004548060011c906001811680156103fb575b6020831081146103e7578285529081156103cb5750600114610374575b50819003601f01601f191681019067ffffffffffffffff82118183101761035e576040829052819061035a9082610b31565b0390f35b634e487b7160e01b600052604160045260246000fd5b600460009081529091507f8a35acfbc15ff81a39ae7d344fd709f28e8600b4aa8c65c6b64bfe7fe36bd19b5b8282106103b557506020915082010182610328565b60018160209254838588010152019101906103a0565b90506020925060ff191682840152151560051b82010182610328565b634e487b7160e01b84526022600452602484fd5b91607f169161030b565b34610178576000366003190112610178576005546040516001600160a01b039091168152602090f35b34610178576000366003190112610178576040517f00000000000000000000000000000000000000000000000000000000000000006001600160a01b03168152602090f35b346101785760003660031901126101785761048c610c43565b600580546001600160a01b031981169091556000906001600160a01b03167f8be0079c531659141344cd1fd0a4f28419497f9722a3daafe3b4186f6b6457e08280a3005b346101785760203660031901126101785760206105096104ee610b7a565b6001600160a01b031660009081526020819052604090205490565b604051908152f35b34610178576000366003190112610178576040517f00000000000000000000000000000000000000000000000000000000000000006001600160a01b03168152602090f35b34610178576000366003190112610178576020600954604051908152f35b34610178576000366003190112610178576040516000600b548060011c90600181168015610642575b6020831081146103e7578285529081156103cb57506001146105eb5750819003601f01601f191681019067ffffffffffffffff82118183101761035e576040829052819061035a9082610b31565b600b60009081529091507f0175b7a638427703f0dbe7bb9bbf987a2551717b34e79f33b5b1008d1fa01db95b82821061062c57506020915082010182610328565b6001816020925483858801015201910190610617565b91607f169161059d565b3461017857602036600319011261017857600435610668610c43565b6008546001600160a01b03168015610784576001600160a01b038116600090815260208190526040902054821161073f57600090806106ec576002548381018091116106d85760208394600080516020610c6d833981519152926002555b8060025403600255604051908152a380f35b634e487b7160e01b83526011600452602483fd5b91828252816020526040822054818110610727576020828593600080516020610c6d83398151915293869787528684520360408620556106c6565b60649363391434e360e21b8452600452602452604452fd5b60405162461bcd60e51b815260206004820152601760248201527f496e73756666696369656e74204c502062616c616e63650000000000000000006044820152606490fd5b60405162461bcd60e51b815260206004820152600c60248201526b141bdbdb081b9bdd081cd95d60a21b6044820152606490fd5b34610178576040366003190112610178576107d1610b7a565b602435906107dd610c43565b6001600160a01b03168015610844576002549180830180931161082e57602092600255600080516020610c6d833981519152600093849284845283825260408420818154019055604051908152a380f35b634e487b7160e01b600052601160045260246000fd5b63ec442f0560e01b600052600060045260246000fd5b3461017857600036600319011261017857602060405160128152f35b346101785760603660031901126101785761088f610b7a565b610897610b90565b6001600160a01b03821660008181526001602081815260408084203385529091529091205491936044359392909181016108d7575b506102d79350610ba6565b83811061094657841561093057331561091a576102d7946000526001602052604060002060018060a01b03331660005260205283604060002091039055846108cc565b634a1406b160e11b600052600060045260246000fd5b63e602df0560e01b600052600060045260246000fd5b8390637dc7a0d960e11b6000523360045260245260445260646000fd5b34610178576000366003190112610178576020600254604051908152f35b34610178576000366003190112610178576008546040516001600160a01b039091168152602090f35b3461017857600036600319011261017857600a546040516001600160a01b039091168152602090f35b34610178576040366003190112610178576109ec610b7a565b602435903315610930576001600160a01b031690811561091a57336000526001602052604060002082600052602052806040600020556040519081527f8c5be1e5ebec7d5bd14f71427d1e84f3dd0314c0f7b2291e5b200ac8c7c3b92560203392a3602060405160018152f35b346101785760003660031901126101785760405160006003548060011c90600181168015610b27575b6020831081146103e7578285529081156103cb5750600114610ad05750819003601f01601f191681019067ffffffffffffffff82118183101761035e576040829052819061035a9082610b31565b600360009081529091507fc2575a0e9e593c00f959f8c92f12db2869c3395a3b0502d05e2516446f71f85b5b828210610b1157506020915082010182610328565b6001816020925483858801015201910190610afc565b91607f1691610a82565b91909160208152825180602083015260005b818110610b64575060409293506000838284010152601f8019910116010190565b8060208092870101516040828601015201610b43565b600435906001600160a01b038216820361017857565b602435906001600160a01b038216820361017857565b6001600160a01b0316908115610c2d576001600160a01b0316918215610844576000828152806020526040812054828110610c13579160408282600080516020610c6d833981519152958760209652828652038282205586815280845220818154019055604051908152a3565b916064928463391434e360e21b8452600452602452604452fd5b634b637e8f60e11b600052600060045260246000fd5b6005546001600160a01b03163303610c5757565b63118cdaa760e01b6000523360045260246000fdfeddf252ad1be2c89b69c2b068fc378daa952ba7f163c4a11628f55a4df523b3efa264697066735822122041d0fb258e3c277a818cb0e25d5a424f876f2508c6daa8eb36479a24b772640964736f6c634300081b0033a2646970667358221220e2d21160c550e703db7aac94f781fef776f502d2fd53984f71621270d2428cdb64736f6c634300081b0033",
  "linkReferences": {
    "contracts/ShadowMathLib.sol": {
      "ShadowMathLib": [
        {
          "length": 20,
          "start": 9651
        }
      ]
    }
  },
  "deployedLinkReferences": {
    "contracts/ShadowMathLib.sol": {
      "ShadowMathLib": [
        {
          "length": 20,
          "start": 9169
        }
      ]
    }
  }
}