{
  "_format": "hh-sol-artifact-1",
  "contractName": "Shadow",
  "sourceName": "contracts/Shadow.sol",
  "abi": [
    {
      "inputs": [
        {
          "internalType": "address",
          "name": "sonic_",
          "type": "address"
        },
        {
          "internalType": "address",
          "name": "owner_",
          "type": "address"
        },
        {
          "internalType": "address",
          "name": "algebraFactory_",
          "type": "address"
        },
        {
          "internalType": "address",
          "name": "swapRouter_",
          "type": "address"
        },
        {
          "internalType": "address",
          "name": "positionManager_",
          "type": "address"
        }
      ],
      "stateMutability": "nonpayable",
      "type": "constructor"
    },
    {
      "inputs": [],
      "name": "AddressAlreadyInTeam",
      "type": "error"
    },
    {
      "inputs": [],
      "name": "AddressNotInTeam",
      "type": "error"
    },
    {
      "inputs": [],
      "name": "InvalidTokenOrder",
      "type": "error"
    },
    {
      "inputs": [
        {
          "internalType": "address",
          "name": "owner",
          "type": "address"
        }
      ],
      "name": "OwnableInvalidOwner",
      "type": "error"
    },
    {
      "inputs": [
        {
          "internalType": "address",
          "name": "account",
          "type": "address"
        }
      ],
      "name": "OwnableUnauthorizedAccount",
      "type": "error"
    },
    {
      "anonymous": false,
      "inputs": [
        {
          "indexed": false,
          "internalType": "bool",
          "name": "enabled",
          "type": "bool"
        }
      ],
      "name": "CreationStatusChanged",
      "type": "event"
    },
    {
      "anonymous": false,
      "inputs": [
        {
          "indexed": false,
          "internalType": "string",
          "name": "message",
          "type": "string"
        },
        {
          "indexed": false,
          "internalType": "uint256",
          "name": "value",
          "type": "uint256"
        }
      ],
      "name": "Debug",
      "type": "event"
    },
    {
      "anonymous": false,
      "inputs": [
        {
          "indexed": true,
          "internalType": "address",
          "name": "previousOwner",
          "type": "address"
        },
        {
          "indexed": true,
          "internalType": "address",
          "name": "newOwner",
          "type": "address"
        }
      ],
      "name": "OwnershipTransferred",
      "type": "event"
    },
    {
      "anonymous": false,
      "inputs": [
        {
          "indexed": false,
          "internalType": "string",
          "name": "reason",
          "type": "string"
        }
      ],
      "name": "SwapFailed",
      "type": "event"
    },
    {
      "anonymous": false,
      "inputs": [
        {
          "indexed": false,
          "internalType": "address",
          "name": "member",
          "type": "address"
        }
      ],
      "name": "TeamMemberAdded",
      "type": "event"
    },
    {
      "anonymous": false,
      "inputs": [
        {
          "indexed": false,
          "internalType": "address",
          "name": "member",
          "type": "address"
        }
      ],
      "name": "TeamMemberRemoved",
      "type": "event"
    },
    {
      "anonymous": false,
      "inputs": [
        {
          "indexed": false,
          "internalType": "address",
          "name": "tokenAddress",
          "type": "address"
        },
        {
          "indexed": false,
          "internalType": "address",
          "name": "deployer",
          "type": "address"
        },
        {
          "indexed": false,
          "internalType": "string",
          "name": "name",
          "type": "string"
        },
        {
          "indexed": false,
          "internalType": "string",
          "name": "symbol",
          "type": "string"
        },
        {
          "indexed": false,
          "internalType": "uint256",
          "name": "supply",
          "type": "uint256"
        },
        {
          "indexed": false,
          "internalType": "address",
          "name": "poolAddress",
          "type": "address"
        }
      ],
      "name": "TokenCreated",
      "type": "event"
    },
    {
      "inputs": [],
      "name": "DEAD_ADDRESS",
      "outputs": [
        {
          "internalType": "address",
          "name": "",
          "type": "address"
        }
      ],
      "stateMutability": "view",
      "type": "function"
    },
    {
      "inputs": [],
      "name": "TICK_SPACING",
      "outputs": [
        {
          "internalType": "int24",
          "name": "",
          "type": "int24"
        }
      ],
      "stateMutability": "view",
      "type": "function"
    },
    {
      "inputs": [
        {
          "internalType": "address",
          "name": "member",
          "type": "address"
        }
      ],
      "name": "addTeamMember",
      "outputs": [],
      "stateMutability": "nonpayable",
      "type": "function"
    },
    {
      "inputs": [],
      "name": "algebraFactory",
      "outputs": [
        {
          "internalType": "address",
          "name": "",
          "type": "address"
        }
      ],
      "stateMutability": "view",
      "type": "function"
    },
    {
      "inputs": [
        {
          "internalType": "uint256",
          "name": "supply",
          "type": "uint256"
        },
        {
          "internalType": "uint256",
          "name": "liquidity",
          "type": "uint256"
        }
      ],
      "name": "calculateNumerator",
      "outputs": [
        {
          "internalType": "uint256",
          "name": "",
          "type": "uint256"
        }
      ],
      "stateMutability": "pure",
      "type": "function"
    },
    {
      "inputs": [
        {
          "internalType": "uint256",
          "name": "numerator",
          "type": "uint256"
        }
      ],
      "name": "calculateTickFromNumerator",
      "outputs": [
        {
          "internalType": "int256",
          "name": "",
          "type": "int256"
        }
      ],
      "stateMutability": "pure",
      "type": "function"
    },
    {
      "inputs": [],
      "name": "collectAllFees",
      "outputs": [],
      "stateMutability": "nonpayable",
      "type": "function"
    },
    {
      "inputs": [
        {
          "internalType": "address",
          "name": "token",
          "type": "address"
        }
      ],
      "name": "collectFees",
      "outputs": [],
      "stateMutability": "nonpayable",
      "type": "function"
    },
    {
      "inputs": [
        {
          "internalType": "string",
          "name": "name",
          "type": "string"
        },
        {
          "internalType": "string",
          "name": "symbol",
          "type": "string"
        },
        {
          "internalType": "uint256",
          "name": "supply",
          "type": "uint256"
        },
        {
          "internalType": "uint256",
          "name": "liquidity",
          "type": "uint256"
        },
        {
          "internalType": "uint24",
          "name": "fee",
          "type": "uint24"
        },
        {
          "internalType": "bytes32",
          "name": "salt",
          "type": "bytes32"
        },
        {
          "internalType": "address",
          "name": "deployer",
          "type": "address"
        },
        {
          "internalType": "uint256",
          "name": "maxWalletPercentage",
          "type": "uint256"
        },
        {
          "internalType": "uint256",
          "name": "firstBuyAmount",
          "type": "uint256"
        },
        {
          "internalType": "string",
          "name": "twitterName",
          "type": "string"
        },
        {
          "internalType": "string",
          "name": "websiteUrl",
          "type": "string"
        }
      ],
      "name": "deployToken",
      "outputs": [],
      "stateMutability": "payable",
      "type": "function"
    },
    {
      "inputs": [
        {
          "internalType": "address",
          "name": "deployer",
          "type": "address"
        },
        {
          "internalType": "string",
          "name": "name",
          "type": "string"
        },
        {
          "internalType": "string",
          "name": "symbol",
          "type": "string"
        },
        {
          "internalType": "uint256",
          "name": "supply",
          "type": "uint256"
        },
        {
          "internalType": "uint256",
          "name": "maxWalletPercentage",
          "type": "uint256"
        },
        {
          "internalType": "string",
          "name": "twitterName",
          "type": "string"
        },
        {
          "internalType": "string",
          "name": "websiteUrl",
          "type": "string"
        }
      ],
      "name": "generateSalt",
      "outputs": [
        {
          "internalType": "bytes32",
          "name": "salt",
          "type": "bytes32"
        },
        {
          "internalType": "address",
          "name": "token",
          "type": "address"
        }
      ],
      "stateMutability": "view",
      "type": "function"
    },
    {
      "inputs": [],
      "name": "getTeamMembers",
      "outputs": [
        {
          "internalType": "address[]",
          "name": "",
          "type": "address[]"
        }
      ],
      "stateMutability": "view",
      "type": "function"
    },
    {
      "inputs": [],
      "name": "isCreationEnabled",
      "outputs": [
        {
          "internalType": "bool",
          "name": "",
          "type": "bool"
        }
      ],
      "stateMutability": "view",
      "type": "function"
    },
    {
      "inputs": [
        {
          "internalType": "address",
          "name": "",
          "type": "address"
        }
      ],
      "name": "isTeamMember",
      "outputs": [
        {
          "internalType": "bool",
          "name": "",
          "type": "bool"
        }
      ],
      "stateMutability": "view",
      "type": "function"
    },
    {
      "inputs": [],
      "name": "liquidity_adding_value",
      "outputs": [
        {
          "internalType": "uint256",
          "name": "",
          "type": "uint256"
        }
      ],
      "stateMutability": "view",
      "type": "function"
    },
    {
      "inputs": [],
      "name": "owner",
      "outputs": [
        {
          "internalType": "address",
          "name": "",
          "type": "address"
        }
      ],
      "stateMutability": "view",
      "type": "function"
    },
    {
      "inputs": [],
      "name": "poolCreator",
      "outputs": [
        {
          "internalType": "contract SwapXPoolCreator",
          "name": "",
          "type": "address"
        }
      ],
      "stateMutability": "view",
      "type": "function"
    },
    {
      "inputs": [],
      "name": "positionManager",
      "outputs": [
        {
          "internalType": "contract INonfungiblePositionManager",
          "name": "",
          "type": "address"
        }
      ],
      "stateMutability": "view",
      "type": "function"
    },
    {
      "inputs": [
        {
          "internalType": "address",
          "name": "member",
          "type": "address"
        }
      ],
      "name": "removeTeamMember",
      "outputs": [],
      "stateMutability": "nonpayable",
      "type": "function"
    },
    {
      "inputs": [],
      "name": "renounceOwnership",
      "outputs": [],
      "stateMutability": "nonpayable",
      "type": "function"
    },
    {
      "inputs": [
        {
          "internalType": "bool",
          "name": "enabled",
          "type": "bool"
        }
      ],
      "name": "setCreationEnabled",
      "outputs": [],
      "stateMutability": "nonpayable",
      "type": "function"
    },
    {
      "inputs": [],
      "name": "sonic",
      "outputs": [
        {
          "internalType": "address",
          "name": "",
          "type": "address"
        }
      ],
      "stateMutability": "view",
      "type": "function"
    },
    {
      "inputs": [],
      "name": "sonicToken",
      "outputs": [
        {
          "internalType": "contract ISONIC",
          "name": "",
          "type": "address"
        }
      ],
      "stateMutability": "view",
      "type": "function"
    },
    {
      "inputs": [],
      "name": "swapRouter",
      "outputs": [
        {
          "internalType": "contract IAlgebraSwapRouter",
          "name": "",
          "type": "address"
        }
      ],
      "stateMutability": "view",
      "type": "function"
    },
    {
      "inputs": [
        {
          "internalType": "uint256",
          "name": "",
          "type": "uint256"
        }
      ],
      "name": "teamMembers",
      "outputs": [
        {
          "internalType": "address",
          "name": "",
          "type": "address"
        }
      ],
      "stateMutability": "view",
      "type": "function"
    },
    {
      "inputs": [
        {
          "internalType": "uint256",
          "name": "",
          "type": "uint256"
        }
      ],
      "name": "tokenList",
      "outputs": [
        {
          "internalType": "address",
          "name": "",
          "type": "address"
        }
      ],
      "stateMutability": "view",
      "type": "function"
    },
    {
      "inputs": [
        {
          "internalType": "address",
          "name": "",
          "type": "address"
        },
        {
          "internalType": "uint256",
          "name": "",
          "type": "uint256"
        }
      ],
      "name": "tokenPositions",
      "outputs": [
        {
          "internalType": "uint256",
          "name": "",
          "type": "uint256"
        }
      ],
      "stateMutability": "view",
      "type": "function"
    },
    {
      "inputs": [
        {
          "internalType": "address",
          "name": "newOwner",
          "type": "address"
        }
      ],
      "name": "transferOwnership",
      "outputs": [],
      "stateMutability": "nonpayable",
      "type": "function"
    },
    {
      "inputs": [],
      "name": "usdc",
      "outputs": [
        {
          "internalType": "address",
          "name": "",
          "type": "address"
        }
      ],
      "stateMutability": "view",
      "type": "function"
    },
    {
      "stateMutability": "payable",
      "type": "receive"
    }
  ],
  "bytecode": "0x6101803461022b57601f61452b38819003918201601f19168301916001600160401b038311848410176101ff5780849260a09460405283398101031261022b5761004881610230565b9061005560208201610230565b9061006260408201610230565b61007a608061007360608501610230565b9301610230565b926001600160a01b031690811561021557600080546001600160a01b031981168417825560405193916001600160a01b03909116907f8be0079c531659141344cd1fd0a4f28419497f9722a3daafe3b4186f6b6457e09080a36509184e72a0006001557329219dd400f2bf60e5a23d13be72b486d403889460a05261dead60c052600160ff1960065416176006558460805280610100526102d880830183811060018060401b038211176101ff57602092849261425384396001600160a01b031681520301906000f080156101f35760e0526001600160a01b039081166101205290811661016052166101405260405161400e908161024582396080518181816105060152611307015260a051818181610c0901528181610fd00152612a2b015260c05181610a6c015260e0518181816103fb01526111650152610100518161058a01526101205181818161046a0152611284015261014051818181610acd01526111dc01526101605181818161075b015261147b0152f35b6040513d6000823e3d90fd5b634e487b7160e01b600052604160045260246000fd5b631e4fbdf760e01b600052600060045260246000fd5b600080fd5b51906001600160a01b038216820361022b5756fe610120604052600436101561001c575b361561001a57600080fd5b005b6000803560e01c80630d9a4446146123c857806313a9e9d914610db457806314eba02614610c385780633e413bee14610bf35780633eb2b5ad14610afc578063461a3a9514610ab757806346ca626b14610a9b5780634e6fd6c414610a56578063686f2c90146108725780636a5dab9f146107e4578063715018a61461078a578063791b98bc146107455780638da5cb5b1461071e5780639ead7222146106f3578063a10b521b146106d0578063a480ca79146105b9578063a7b64b0414610574578063bbe9f99d14610535578063bf1795f4146104f0578063c0dd7cd514610499578063c31c9c0714610454578063c43cb3fb1461042a578063c6c1decd146103e5578063d27e72cd146103c7578063e75f7ddb14610383578063efded147146102bb578063f2fde38b146102355763fd8b3c9d1461015c575061000f565b3461022a5760e036600319011261022a576101756124a2565b906024356001600160401b0381116102315761019590369060040161251c565b916044356001600160401b038111610231576101b590369060040161251c565b92909460a4356001600160401b03811161022d576101d790369060040161251c565b94909360c435906001600160401b03821161022a5760406102158a8a8a8a8a8a8a6102053660048d0161251c565b97909660843594606435946127ac565b82519182526001600160a01b03166020820152f35b80fd5b8380fd5b5080fd5b503461022a57602036600319011261022a5761024f6124a2565b610257612a6e565b6001600160a01b031680156102a75781546001600160a01b03198116821783556001600160a01b03167f8be0079c531659141344cd1fd0a4f28419497f9722a3daafe3b4186f6b6457e08380a380f35b631e4fbdf760e01b82526004829052602482fd5b503461022a578060031936011261022a5760405180602060055491828152018091600585527f036b6384b5eca791c62761152d0c79bb0604c104a5fb6f4eb0703f3154bb3db090855b818110610364575050508261031a91038361242b565b604051928392602084019060208552518091526040840192915b818110610342575050500390f35b82516001600160a01b0316845285945060209384019390920191600101610334565b82546001600160a01b0316845260209093019260019283019201610304565b503461022a57602036600319011261022a576004359060055482101561022a5760206103ae836124b8565b905460405160039290921b1c6001600160a01b03168152f35b503461022a578060031936011261022a576020600154604051908152f35b503461022a578060031936011261022a576040517f00000000000000000000000000000000000000000000000000000000000000006001600160a01b03168152602090f35b503461022a57604036600319011261022a57602061044c602435600435612729565b604051908152f35b503461022a578060031936011261022a576040517f00000000000000000000000000000000000000000000000000000000000000006001600160a01b03168152602090f35b503461022a57604036600319011261022a576104b36124a2565b6001600160a01b031681526003602052604081208054602435929083101561022a5760206104e18484612504565b90549060031b1c604051908152f35b503461022a578060031936011261022a576040517f00000000000000000000000000000000000000000000000000000000000000006001600160a01b03168152602090f35b503461022a57602036600319011261022a5760209060ff906040906001600160a01b036105606124a2565b168152600484522054166040519015158152f35b503461022a578060031936011261022a576040517f00000000000000000000000000000000000000000000000000000000000000006001600160a01b03168152602090f35b503461022a57602036600319011261022a576105d36124a2565b338252600460205260ff60408320541680156106bd575b6105f3906126be565b60018060a01b03168152600360205260408120906040518083602082955493848152019084526020842092845b8181106106a45750506106359250038361242b565b81511561065f57805b825181101561065b578061065460019285612715565b500161063e565b5080f35b60405162461bcd60e51b815260206004820152601b60248201527f4e6f20706f736974696f6e7320666f72207468697320746f6b656e00000000006044820152606490fd5b8454835260019485019487945060209093019201610620565b5081546001600160a01b031633146105ea565b503461022a578060031936011261022a57602060ff600654166040519015158152f35b503461022a57602036600319011261022a576004359060025482101561022a5760206103ae836124e9565b503461022a578060031936011261022a57546040516001600160a01b039091168152602090f35b503461022a578060031936011261022a576040517f00000000000000000000000000000000000000000000000000000000000000006001600160a01b03168152602090f35b503461022a578060031936011261022a576107a3612a6e565b80546001600160a01b03198116825581906001600160a01b03167f8be0079c531659141344cd1fd0a4f28419497f9722a3daafe3b4186f6b6457e08280a380f35b503461022a57602036600319011261022a576004358015158091036102315760207f1a3f40fae3a310ca113098ad34d161433ab7e470c2a167b60a190a80364043bc913384526004825260ff604085205416801561085f575b610846906126be565b60ff196006541660ff821617600655604051908152a180f35b5083546001600160a01b0316331461083d565b503461022a578060031936011261022a57338152600460205260ff6040822054168015610a43575b6108a3906126be565b6002546108af816126fe565b6108bc604051918261242b565b818152601f196108cb836126fe565b013660208301378291835b8181106109c55750509082905b8082106108ee578380f35b91929091906001600160a01b036109058486612715565b5116338252600460205260ff60408320541680156109b2575b610927906126be565b815260036020526040812091604051808460208296549384815201908552602085209285905b8082106109965750506109629250038461242b565b82511561065f57815b8351811015610988578061098160019286612715565b500161096b565b5090939260010191506108e3565b916001919350602082918654815201940192018692939161094d565b5081546001600160a01b0316331461091e565b6109ce816124e9565b9054600391821b1c6001600160a01b0316865260205260408520546109f6575b6001016108d6565b92610a00846124e9565b905460039190911b1c6001600160a01b0316610a1c8285612715565b526000198114610a2f57600101926109ee565b634e487b7160e01b85526011600452602485fd5b5080546001600160a01b0316331461089a565b503461022a578060031936011261022a576040517f00000000000000000000000000000000000000000000000000000000000000006001600160a01b03168152602090f35b503461022a578060031936011261022a57602060405160c88152f35b503461022a578060031936011261022a576040517f00000000000000000000000000000000000000000000000000000000000000006001600160a01b03168152602090f35b503461022a57602036600319011261022a57610b166124a2565b610b1e612a6e565b6001600160a01b0381168083526004602052604083205490919060ff16610be157818352600460205260408320805460ff19166001179055600554600160401b811015610bcd5791610bc3602092610b9f8560017fcb5d35f3d58007ab65c22252d42a544314d3bf8e16e71d153996fd99735653de97016005556005612504565b81546001600160a01b0393841660039290921b91821b9390911b1916919091179055565b604051908152a180f35b634e487b7160e01b84526041600452602484fd5b6001622d600560e11b03198352600483fd5b503461022a578060031936011261022a576040517f00000000000000000000000000000000000000000000000000000000000000006001600160a01b03168152602090f35b503461022a57602036600319011261022a57610c526124a2565b610c5a612a6e565b6001600160a01b03168082526004602052604082205460ff1615610da557808252600460205260408220805460ff19169055815b60055480821015610d7a5782610ca3836124b8565b905460039190911b1c6001600160a01b031614610cc35750600101610c8e565b6000198101908111610d665790610b9f610cdf610cf7936124b8565b905460039190911b1c6001600160a01b0316916124b8565b6005548015610d52577f113ac15d1e9d35bbc48c65ac66da9d44808929220056e22450b3c48222e8ec739160209160001901610d32816124b8565b81549060018060a01b039060031b1b19169055600555604051908152a180f35b634e487b7160e01b83526031600452602483fd5b634e487b7160e01b84526011600452602484fd5b505060207f113ac15d1e9d35bbc48c65ac66da9d44808929220056e22450b3c48222e8ec7391610bc3565b6306278fb360e21b8252600482fd5b5061016036600319011261022a576004356001600160401b03811161023157610de190369060040161244c565b906024356001600160401b03811161023157610e0190369060040161244c565b91604435926084359362ffffff851680950361022d5760c4356001600160a01b03811693908490036123c4576101043590610124356001600160401b0381116123c057610e5290369060040161244c565b96610144356001600160401b0381116123bc57610e7390369060040161244c565b9060ff60065416156123775784156123325786156122ed578251156122b157855115612273576127100361223b578751156121f6578234106121b95760405197610ef0600a60208b8651610ecc81848401858b01612549565b81016920627920536861646f7760b01b83820152030160151981018c52018a61242b565b670de0b6b3a7640000655af1e6795710610f0c60643588612729565b0505888113156121885760020b627fffff198114611c14578803988960020b603c810760020b61216a575b50604051916114e091828401928484106001600160401b03851117611a8857610fbc92610f88610f7a879694610faa94612ab9893960e0865260e086019061256c565b84810360208601528c61256c565b908a60408501528c606085015260e435608085015283820360a085015261256c565b9060c081830391015260a4359461256c565b039088f5801561215f576001600160a01b037f0000000000000000000000000000000000000000000000000000000000000000811698911694908886101561210e5760020b978789121561210857600160ff1b89146120f4578888035b620d89e881116120cb5760018116156120b9576001600160881b036ffffcb933bd6fad37aa2d162d1a5940015b16906002811661207e575b60048116612043575b60088116612008575b60108116611fcd575b60208116611f92575b60408116611f57575b60808116611f1c575b6101008116611ee1575b6102008116611ea6575b6104008116611e6b575b6108008116611e30575b6110008116611df5575b6120008116611dba575b6140008116611d7f575b6180008116611d44575b620100008116611d09575b620200008116611cd0575b620400008116611c85575b6208000016611c54575b888a13611c31575b63ffffffff8160201c911615600014611c285760ff895b168101809111611c1457604051630515c83960e01b815260048101889052602481018390526001600160a01b03918216604482015290602090829060649082908d907f0000000000000000000000000000000000000000000000000000000000000000165af1908115611c09578991611bc3575b5060018060a01b031693600080516020613fb9833981519152608060405160408152600c60408201526b141bdbdb0818dc99585d195960a21b6060820152876020820152a17f00000000000000000000000000000000000000000000000000000000000000006001600160a01b0316998a3b15611bbf57818a8c600460405180948193630d0e30db60e41b83525af18015611a6957611ba4575b506112cc6020838c9d600080516020613fb9833981519152608060405160408152600f60408201526e14d3d39250c819195c1bdcda5d1959608a1b60608201528486820152a160405163095ea7b360e01b81527f00000000000000000000000000000000000000000000000000000000000000006001600160a01b0316600482018190526024820193909352919e91938492839182906044820190565b03925af18015611a6957611b87575b50610384420191824211611b735760206113678d8d93604051906112fe826123fa565b60018060a01b037f0000000000000000000000000000000000000000000000000000000000000000168252888583015230604083015287606083015260808201528460a08201528460c082015260405194858094819363178ca23160e31b8352600483016125a9565b03925af18b9181611b3f575b5061141f57611380612602565b6308c379a0146113e5575b600080516020613f99833981519152604051806113a781612696565b0390a160405162461bcd60e51b815260206004820152601360248201527214ddd85c081d1bc81554d110c819985a5b1959606a1b6044820152606490fd5b6113ed612620565b806113f8575061138b565b6113a7600080516020613f998339815191529160405191829160208352602083019061256c565b6080600080516020613fb9833981519152916040519060408252601760408301527f5377617020746f2055534443207375636365737366756c00000000000000000060608301526020820152a160405163095ea7b360e01b81527f00000000000000000000000000000000000000000000000000000000000000006001600160a01b0316600482018190526000196024830152906020816044818f8e5af18015611a0a57611b22575b5060405163095ea7b360e01b81526004810182905260001960248201526020816044818f895af18015611a0a57611b05575b50600154906040519161014083018381106001600160401b03821117611af157928d8b9387610144948f608098604052855260208501968b885260408601998a526060860191620d89b4835289870191825260a0870190815260c087019086825260e08801928784526101008901943086526101208a019687526040519d8e9c8d9b639cc1a28360e01b8d5260018060a01b0390511660048d015260018060a01b0390511660248c01525160020b60448b01525160020b60648a01525160848901525160a48801525160c48701525160e486015260018060a01b03905116610104850152516101248401525af1808b928c92611a9c575b506116a7576115fe612602565b6308c379a01461166d575b600080516020613f998339815191526040518061162581612696565b0390a160405162461bcd60e51b815260206004820152601960248201527f4c6971756964697479206164646974696f6e206661696c6564000000000000006044820152606490fd5b611675612620565b806116805750611609565b611625600080516020613f998339815191529160405191829160208352602083019061256c565b6080600080516020613fb9833981519152916001600160801b036040519160408352600f60408401526e131a5c5d5a591a5d1e481859191959608a1b6060840152166020820152a1878a52600360205260408a20805490600160401b821015611a88579061171a91600182018155612504565b819291549060031b91821b91600019901b191617905560025499600160401b8b1015611a745761175788610b9f8d60018e9f016002556002612504565b6040516370a0823160e01b815230600482015292602084602481845afa938415611a69578b94611a32575b5060405163095ea7b360e01b81526001600160a01b038316600482015260248101859052936020856044818f865af1948515611a0a578c95611a15575b5060208a60446040518098819363095ea7b360e01b835288600484015260001960248401525af1938415611a0a57602095611846956119df575b5060405192611807846123fa565b83528a868401528b6040840152606083015260808201528a60a08201528a60c08201526040519a8b8094819363178ca23160e31b8352600483016125a9565b03925af18897816119a6575b506118fc5761185f612602565b6308c379a0146118c2575b600080516020613f998339815191526040518061188681612696565b0390a160405162461bcd60e51b8152602060048201526011602482015270119a5b985b081cddd85c0819985a5b1959607a1b6044820152606490fd5b6118ca612620565b806118d5575061186a565b611886600080516020613f998339815191529160405191829160208352602083019061256c565b61198761199592600080516020613fb983398151915260807f567699dbf7c5f63a51a42fd451f5e065bca0dfc723adf2cc498bbb7cfb780b909a60405190604082526015604083015274119a5b985b081cddd85c081cdd58d8d95cdcd99d5b605a1b60608301526020820152a16040519788978852602088015260c0604088015260c087019061256c565b90858203606087015261256c565b91608084015260a08301520390a180f35b9097506020813d6020116119d7575b816119c26020938361242b565b810103126119d257519638611852565b600080fd5b3d91506119b5565b6119fe90873d8911611a03575b6119f6818361242b565b810190612591565b6117f9565b503d6119ec565b6040513d8e823e3d90fd5b611a2d9060203d602011611a03576119f6818361242b565b6117bf565b9a50925060208a3d602011611a61575b81611a4f6020938361242b565b810103126119d2578a99519238611782565b3d9150611a42565b6040513d8d823e3d90fd5b634e487b7160e01b8a52604160045260248afd5b634e487b7160e01b8c52604160045260248cfd5b925090506080823d608011611ae9575b81611ab96080938361242b565b81010312611ae55760208251920151916001600160801b0383168303611ae1579190386115f1565b8b80fd5b8a80fd5b3d9150611aac565b634e487b7160e01b8e52604160045260248efd5b611b1d9060203d602011611a03576119f6818361242b565b6114fa565b611b3a9060203d602011611a03576119f6818361242b565b6114c8565b9091506020813d602011611b6b575b81611b5b6020938361242b565b810103126119d257519038611373565b3d9150611b4e565b634e487b7160e01b8b52601160045260248bfd5b611b9f9060203d602011611a03576119f6818361242b565b6112db565b60208b611bb6859e9d6112cc9461242b565b9b9c505061122f565b8980fd5b90506020813d602011611c01575b81611bde6020938361242b565b81010312611bfd57516001600160a01b0381168103611bfd5738611195565b8880fd5b3d9150611bd1565b6040513d8b823e3d90fd5b634e487b7160e01b89526011600452602489fd5b60ff6001611121565b8015611c40576000190461110a565b634e487b7160e01b89526012600452602489fd5b6b048a170391f7dc42444e8fa28102908082046b048a170391f7dc42444e8fa21490151715611c145760801c611102565b906d2216e584f5fa1ea926041bedfe988102908082046d2216e584f5fa1ea926041bedfe981490151715611cbc5760801c906110f8565b634e487b7160e01b8a52601160045260248afd5b906e5d6af8dedb81196699c329225ee6048102908082046e5d6af8dedb81196699c329225ee6041490151715611cbc5760801c906110ed565b906f09aa508b5b7a84e1c677de54f3e99bc98102908082046f09aa508b5b7a84e1c677de54f3e99bc91490151715611cbc5760801c906110e2565b906f31be135f97d08fd981231505542fcfa68102908082046f31be135f97d08fd981231505542fcfa61490151715611cbc5760801c906110d7565b906f70d869a156d2a1b890bb3df62baf32f78102908082046f70d869a156d2a1b890bb3df62baf32f71490151715611cbc5760801c906110cd565b906fa9f746462d870fdf8a65dc1f90e061e58102908082046fa9f746462d870fdf8a65dc1f90e061e51490151715611cbc5760801c906110c3565b906fd097f3bdfd2022b8845ad8f792aa58258102908082046fd097f3bdfd2022b8845ad8f792aa58251490151715611cbc5760801c906110b9565b906fe7159475a2c29b7443b29c7fa6e889d98102908082046fe7159475a2c29b7443b29c7fa6e889d91490151715611cbc5760801c906110af565b906ff3392b0822b70005940c7a398e4b70f38102908082046ff3392b0822b70005940c7a398e4b70f31490151715611cbc5760801c906110a5565b906ff987a7253ac413176f2b074cf7815e548102908082046ff987a7253ac413176f2b074cf7815e541490151715611cbc5760801c9061109b565b906ffcbe86c7900a88aedcffc83b479aa3a48102908082046ffcbe86c7900a88aedcffc83b479aa3a41490151715611cbc5760801c90611091565b906ffe5dee046a99a2a811c461f1969c30538102908082046ffe5dee046a99a2a811c461f1969c30531490151715611cbc5760801c90611087565b906fff2ea16466c96a3843ec78b326b528618102908082046fff2ea16466c96a3843ec78b326b528611490151715611cbc5760801c9061107e565b906fff973b41fa98c081472e6896dfb254c08102908082046fff973b41fa98c081472e6896dfb254c01490151715611cbc5760801c90611075565b906fffcb9843d60f6159c9db58835c9266448102908082046fffcb9843d60f6159c9db58835c9266441490151715611cbc5760801c9061106c565b906fffe5caca7e10e4e61c3624eaa0941cd08102908082046fffe5caca7e10e4e61c3624eaa0941cd01490151715611cbc5760801c90611063565b906ffff2e50f5f656932ef12357cf3c7fdcc8102908082046ffff2e50f5f656932ef12357cf3c7fdcc1490151715611cbc5760801c9061105a565b906ffff97272373d413259a46990580e213a8102908082046ffff97272373d413259a46990580e213a1490151715611cbc5760801c90611051565b6001600160881b03600160801b611046565b60405162461bcd60e51b81526020600482015260016024820152601560fa1b6044820152606490fd5b634e487b7160e01b88526011600452602488fd5b88611019565b60405162461bcd60e51b8152602060048201526024808201527f546f6b656e2061646472657373206d757374206265206c657373207468616e206044820152637573646360e01b6064820152608490fd5b6040513d88823e3d90fd5b603c919a5081900560020b028060020b908103611c14579838610f37565b60405162461bcd60e51b815260206004820152600960248201526805072696365203c20360bc1b6044820152606490fd5b60405162461bcd60e51b8152602060048201526015602482015274125b9cdd59999a58da595b9d08115512081cd95b9d605a1b6044820152606490fd5b60405162461bcd60e51b815260206004820152601c60248201527f54776974746572206e616d652063616e6e6f7420626520656d707479000000006044820152606490fd5b60405162461bcd60e51b815260206004820152601060248201526f24b73b30b634b2103332b2903a34b2b960811b6044820152606490fd5b60405162461bcd60e51b815260206004820152601660248201527553796d626f6c2063616e6e6f7420626520656d70747960501b6044820152606490fd5b60405162461bcd60e51b81526020600482015260146024820152734e616d652063616e6e6f7420626520656d70747960601b6044820152606490fd5b60405162461bcd60e51b815260206004820152601860248201527f496e76616c6964206465706c6f796572206164647265737300000000000000006044820152606490fd5b60405162461bcd60e51b815260206004820152601d60248201527f537570706c79206d7573742062652067726561746572207468616e20300000006044820152606490fd5b60405162461bcd60e51b815260206004820152601a60248201527f546f6b656e206372656174696f6e2069732064697361626c65640000000000006044820152606490fd5b8780fd5b8680fd5b8480fd5b503461022a57602036600319011261022a5750604051670de0b6b3a7640000655af1e679571060043505058152602090f35b60e081019081106001600160401b0382111761241557604052565b634e487b7160e01b600052604160045260246000fd5b90601f801991011681019081106001600160401b0382111761241557604052565b81601f820112156119d2578035906001600160401b0382116124155760405192612480601f8401601f19166020018561242b565b828452602083830101116119d257816000926020809301838601378301015290565b600435906001600160a01b03821682036119d257565b6005548110156124d357600560005260206000200190600090565b634e487b7160e01b600052603260045260246000fd5b6002548110156124d357600260005260206000200190600090565b80548210156124d35760005260206000200190600090565b9181601f840112156119d2578235916001600160401b0383116119d257602083818601950101116119d257565b60005b83811061255c5750506000910152565b818101518382015260200161254c565b9060209161258581518092818552858086019101612549565b601f01601f1916010190565b908160209103126119d2575180151581036119d25790565b81516001600160a01b039081168252602080840151821690830152604080840151821690830152606080840151908301526080808401519083015260a0808401519083015260c092830151169181019190915260e00190565b60009060033d1161260f57565b905060046000803e60005160e01c90565b600060443d10612685576040513d600319016004823e8051913d60248401116001600160401b0384111761269057828201928351916001600160401b038311612688573d8401600319018584016020011161268857506126859291016020019061242b565b90565b949350505050565b92915050565b60609060208152600d60208201526c2ab735b737bbb71032b93937b960991b60408201520190565b156126c557565b60405162461bcd60e51b81526020600482015260116024820152702737ba1030903a32b0b69036b2b6b132b960791b6044820152606490fd5b6001600160401b0381116124155760051b60200190565b80518210156124d35760209160051b010190565b906040519163c43cb3fb60e01b83526004830152602482015260208160448173__$e02074b1f9eeb976d6d8fd3b2944d7d6c9$__5af49081156127a057600091612771575090565b90506020813d602011612798575b8161278c6020938361242b565b810103126119d2575190565b3d915061277f565b6040513d6000823e3d90fd5b9a999a9893949695979860c05260e052610100526080526040516bffffffffffffffffffffffff1960c05160601b1660208201526101005160e051603483013761283760208260408c8b6034896101005186018183820160008152608051903701018b81528c86820152818b858301370181888483016000815237010146815203808452018261242b565b602081519101209760005b606460ff8216106128925760405162461bcd60e51b815260206004820152601960248201527f436f756c64206e6f742066696e642076616c69642073616c74000000000000006044820152606490fd5b60405160208101908b825260ff60f81b8360f81b166040820152602181526128bb60418261242b565b51902060a0526040516101005160e051602083013780610100518101602081016920627920536861646f7760b01b90520360200160151981018252600a01612903908261242b565b6040519061291660206114e0018361242b565b6114e0825260208201916114e0612ab9843960405191828c89602083019360e0855261010084016129469161256c565b838103601f1901604085015260805161295f9290612a97565b606083018d905260c080516001600160a01b0316608085015260a084018f9052838203601f190190840152612994918c612a97565b818103601f190160e08301526129ab90888a612a97565b03601f19810184526129bd908461242b565b604051928392602084019586915180926129d692612549565b830190519182602083016129e992612549565b01038082526129fb906020018261242b565b51902060405190604082015260a0516020820152308152600b0160ff8153605590206001600160a01b03908116907f0000000000000000000000000000000000000000000000000000000000000000168110612a5d575060010160ff16612842565b9950505050505050505060a0519190565b6000546001600160a01b03163303612a8257565b63118cdaa760e01b6000523360045260246000fd5b908060209392818452848401376000828201840152601f01601f191601019056fe608060405234610779576114e0803803806100198161077e565b92833981019060e0818303126107795780516001600160401b03811161077957826100459183016107a3565b60208201519091906001600160401b03811161077957836100679183016107a3565b604082015160608301519092916001600160a01b0382169182900361077957608083015160a08401519093906001600160401b03811161077957876100ad9183016107a3565b60c08201519097906001600160401b038111610779576100cd92016107a3565b855190956001600160401b0382116106765760035490600182811c9216801561076f575b60208310146106565781601f8493116106ff575b50602090601f83116001146106975760009261068c575b50508160011b916000199060031b1c1916176003555b8051906001600160401b0382116106765760045490600182811c9216801561066c575b60208310146106565781601f8493116105e6575b50602090601f831160011461057e57600092610573575b50508160011b916000199060031b1c1916176004555b801561055d57600580546001600160a01b03198116831790915581906001600160a01b03167f8be0079c531659141344cd1fd0a4f28419497f9722a3daafe3b4186f6b6457e0600080a360018060a01b031960065416176006553360018060a01b03196007541617600755331561054757600254828101809111610531576002556000913383528260205260408320818154019055604051908152827fddf252ad1be2c89b69c2b068fc378daa952ba7f163c4a11628f55a4df523b3ef60203393a360095582516001600160401b03811161051d57600a54600181811c91168015610513575b60208210146104ff57601f811161049c575b506020601f82116001146104395782939482939261042e575b50508160011b916000199060031b1c191617600a555b8151906001600160401b03821161041a57600b54600181811c91168015610410575b60208210146103fc57601f8111610399575b50602090601f83116001146103385791928361032d575b50508160011b916000199060031b1c191617600b555b604051610cd1908161080f8239f35b015190503880610308565b90601f19831693600b8352818320925b85811061038157508360019510610368575b505050811b01600b5561031e565b015160001960f88460031b161c1916905538808061035a565b91926020600181928685015181550194019201610348565b600b82527f0175b7a638427703f0dbe7bb9bbf987a2551717b34e79f33b5b1008d1fa01db9601f840160051c810191602085106103f2575b601f0160051c01905b8181106103e757506102f1565b8281556001016103da565b90915081906103d1565b634e487b7160e01b82526022600452602482fd5b90607f16906102df565b634e487b7160e01b81526041600452602490fd5b0151905038806102a7565b600a835280832090601f198316845b8181106104845750958360019596971061046b575b505050811b01600a556102bd565b015160001960f88460031b161c1916905538808061045d565b9192602060018192868b015181550194019201610448565b600a83527fc65a7bb8d6351c1cf70c95a316cc6a92839c986682d98bc35f958f4883f9d2a8601f830160051c810191602084106104f5575b601f0160051c01905b8181106104ea575061028e565b8381556001016104dd565b90915081906104d4565b634e487b7160e01b83526022600452602483fd5b90607f169061027c565b634e487b7160e01b82526041600452602482fd5b634e487b7160e01b600052601160045260246000fd5b63ec442f0560e01b600052600060045260246000fd5b631e4fbdf760e01b600052600060045260246000fd5b015190503880610180565b600460009081528281209350601f198516905b8181106105ce57509084600195949392106105b5575b505050811b01600455610196565b015160001960f88460031b161c191690553880806105a7565b92936020600181928786015181550195019301610591565b60046000529091507f8a35acfbc15ff81a39ae7d344fd709f28e8600b4aa8c65c6b64bfe7fe36bd19b601f840160051c8101916020851061064c575b90601f859493920160051c01905b81811061063d5750610169565b60008155849350600101610630565b9091508190610622565b634e487b7160e01b600052602260045260246000fd5b91607f1691610155565b634e487b7160e01b600052604160045260246000fd5b01519050388061011c565b600360009081528281209350601f198516905b8181106106e757509084600195949392106106ce575b505050811b01600355610132565b015160001960f88460031b161c191690553880806106c0565b929360206001819287860151815501950193016106aa565b60036000529091507fc2575a0e9e593c00f959f8c92f12db2869c3395a3b0502d05e2516446f71f85b601f840160051c81019160208510610765575b90601f859493920160051c01905b8181106107565750610105565b60008155849350600101610749565b909150819061073b565b91607f16916100f1565b600080fd5b6040519190601f01601f191682016001600160401b0381118382101761067657604052565b81601f82011215610779578051906001600160401b038211610676576107d2601f8301601f191660200161077e565b92828452602083830101116107795760005b8281106107f957505060206000918301015290565b806020809284010151828287010152016107e456fe6080604052600436101561001257600080fd5b60003560e01c806306fdde0314610a68578063095ea7b3146109e25780631755ff21146109b957806318160ddd1461099b57806323b872dd146108ae578063313ce5671461089257806340c10f19146107f057806342966c68146106845780634d669f87146105ac578063599ca3971461058e57806370a082311461054d578063715018a6146104f05780638da5cb5b146104c757806395d89b41146103ef578063a9059cbb146103be578063abb5ca091461029b578063ac600a3c14610272578063d5f3948814610249578063dd62ed3e146101f8578063e9e15b4f146101675763f2fde38b1461010357600080fd5b346101625760203660031901126101625761011c610b89565b5060405162461bcd60e51b815260206004820152601e60248201527f4f776e657273686970207472616e736665722069732064697361626c656400006044820152606490fd5b600080fd5b3461016257602036600319011261016257610180610b89565b6007546001600160a01b031633036101b457600880546001600160a01b0319166001600160a01b0392909216919091179055005b606460405162461bcd60e51b815260206004820152602060248201527f4f6e6c7920536861646f772063616e2073657420706f6f6c20616464726573736044820152fd5b3461016257604036600319011261016257610211610b89565b610219610b9f565b6001600160a01b039182166000908152600160209081526040808320949093168252928352819020549051908152f35b34610162576000366003190112610162576006546040516001600160a01b039091168152602090f35b34610162576000366003190112610162576007546040516001600160a01b039091168152602090f35b34610162576000366003190112610162576040516000600b548060011c906001811680156103b4575b6020831081146103a057828552908115610384575060011461032d575b50819003601f01601f191681019067ffffffffffffffff82118183101761031757604082905281906103139082610b40565b0390f35b634e487b7160e01b600052604160045260246000fd5b600b60009081529091507f0175b7a638427703f0dbe7bb9bbf987a2551717b34e79f33b5b1008d1fa01db95b82821061036e575060209150820101826102e1565b6001816020925483858801015201910190610359565b90506020925060ff191682840152151560051b820101826102e1565b634e487b7160e01b84526022600452602484fd5b91607f16916102c4565b34610162576040366003190112610162576103e46103da610b89565b6024359033610bb5565b602060405160018152f35b346101625760003660031901126101625760405160006004548060011c906001811680156104bd575b6020831081146103a05782855290811561038457506001146104665750819003601f01601f191681019067ffffffffffffffff82118183101761031757604082905281906103139082610b40565b600460009081529091507f8a35acfbc15ff81a39ae7d344fd709f28e8600b4aa8c65c6b64bfe7fe36bd19b5b8282106104a7575060209150820101826102e1565b6001816020925483858801015201910190610492565b91607f1691610418565b34610162576000366003190112610162576005546040516001600160a01b039091168152602090f35b3461016257600036600319011261016257610509610c52565b600580546001600160a01b031981169091556000906001600160a01b03167f8be0079c531659141344cd1fd0a4f28419497f9722a3daafe3b4186f6b6457e08280a3005b3461016257602036600319011261016257602061058661056b610b89565b6001600160a01b031660009081526020819052604090205490565b604051908152f35b34610162576000366003190112610162576020600954604051908152f35b34610162576000366003190112610162576040516000600a548060011c9060018116801561067a575b6020831081146103a05782855290811561038457506001146106235750819003601f01601f191681019067ffffffffffffffff82118183101761031757604082905281906103139082610b40565b600a60009081529091507fc65a7bb8d6351c1cf70c95a316cc6a92839c986682d98bc35f958f4883f9d2a85b828210610664575060209150820101826102e1565b600181602092548385880101520191019061064f565b91607f16916105d5565b34610162576020366003190112610162576004356106a0610c52565b6008546001600160a01b031680156107bc576001600160a01b03811660009081526020819052604090205482116107775760009080610724576002548381018091116107105760208394600080516020610c7c833981519152926002555b8060025403600255604051908152a380f35b634e487b7160e01b83526011600452602483fd5b9182825281602052604082205481811061075f576020828593600080516020610c7c83398151915293869787528684520360408620556106fe565b60649363391434e360e21b8452600452602452604452fd5b60405162461bcd60e51b815260206004820152601760248201527f496e73756666696369656e74204c502062616c616e63650000000000000000006044820152606490fd5b60405162461bcd60e51b815260206004820152600c60248201526b141bdbdb081b9bdd081cd95d60a21b6044820152606490fd5b3461016257604036600319011261016257610809610b89565b60243590610815610c52565b6001600160a01b0316801561087c576002549180830180931161086657602092600255600080516020610c7c833981519152600093849284845283825260408420818154019055604051908152a380f35b634e487b7160e01b600052601160045260246000fd5b63ec442f0560e01b600052600060045260246000fd5b3461016257600036600319011261016257602060405160128152f35b34610162576060366003190112610162576108c7610b89565b6108cf610b9f565b6001600160a01b038216600081815260016020818152604080842033855290915290912054919360443593929091810161090f575b506103e49350610bb5565b83811061097e578415610968573315610952576103e4946000526001602052604060002060018060a01b0333166000526020528360406000209103905584610904565b634a1406b160e11b600052600060045260246000fd5b63e602df0560e01b600052600060045260246000fd5b8390637dc7a0d960e11b6000523360045260245260445260646000fd5b34610162576000366003190112610162576020600254604051908152f35b34610162576000366003190112610162576008546040516001600160a01b039091168152602090f35b34610162576040366003190112610162576109fb610b89565b602435903315610968576001600160a01b031690811561095257336000526001602052604060002082600052602052806040600020556040519081527f8c5be1e5ebec7d5bd14f71427d1e84f3dd0314c0f7b2291e5b200ac8c7c3b92560203392a3602060405160018152f35b346101625760003660031901126101625760405160006003548060011c90600181168015610b36575b6020831081146103a0578285529081156103845750600114610adf5750819003601f01601f191681019067ffffffffffffffff82118183101761031757604082905281906103139082610b40565b600360009081529091507fc2575a0e9e593c00f959f8c92f12db2869c3395a3b0502d05e2516446f71f85b5b828210610b20575060209150820101826102e1565b6001816020925483858801015201910190610b0b565b91607f1691610a91565b91909160208152825180602083015260005b818110610b73575060409293506000838284010152601f8019910116010190565b8060208092870101516040828601015201610b52565b600435906001600160a01b038216820361016257565b602435906001600160a01b038216820361016257565b6001600160a01b0316908115610c3c576001600160a01b031691821561087c576000828152806020526040812054828110610c22579160408282600080516020610c7c833981519152958760209652828652038282205586815280845220818154019055604051908152a3565b916064928463391434e360e21b8452600452602452604452fd5b634b637e8f60e11b600052600060045260246000fd5b6005546001600160a01b03163303610c6657565b63118cdaa760e01b6000523360045260246000fdfeddf252ad1be2c89b69c2b068fc378daa952ba7f163c4a11628f55a4df523b3efa26469706673582212202457be7ce2bc8ff1d7c3799c0875c601f7a012b2084aefc5d733c15d077b77d164736f6c634300081b00334ecb9b6d2e2efee3f1b1b86927f5895fc3f627ac91d5ebfe344df8ae1eec07233c5ad147104e56be34a9176a6692f7df8d2f4b29a5af06bc6b98970d329d6577a26469706673582212208593001aceb75cf7a61acd7607d3427602ae6bdc80c39006cb9895d3edc4886764736f6c634300081b003360a034606b57601f6102d838819003918201601f19168301916001600160401b03831184841017607057808492602094604052833981010312606b57516001600160a01b0381168103606b5760805260405161025190816100878239608051818181604c015260ee0152f35b600080fd5b634e487b7160e01b600052604160045260246000fdfe608080604052600436101561001357600080fd5b600090813560e01c9081630515c8391461007e575063c45a01551461003757600080fd5b3461007b578060031936011261007b576040517f00000000000000000000000000000000000000000000000000000000000000006001600160a01b03168152602090f35b80fd5b823461007b57606036600319011261007b576004356001600160a01b03811692908390036101c4576024356001600160a01b038116908190036101df576044356001600160a01b03811694908590036101db5763e343361560e01b835260048301526024820152602081604481857f00000000000000000000000000000000000000000000000000000000000000006001600160a01b03165af19081156101d057829161018a575b506001600160a01b031690813b1561007b576040519263f637731d60e01b84526004840152808360248183865af192831561017d5760209361016d575b5050604051908152f35b81610177916101e3565b83610163565b50604051903d90823e3d90fd5b90506020813d6020116101c8575b816101a5602093836101e3565b810103126101c457516001600160a01b03811681036101c45783610126565b5080fd5b3d9150610198565b6040513d84823e3d90fd5b8380fd5b8280fd5b90601f8019910116810190811067ffffffffffffffff82111761020557604052565b634e487b7160e01b600052604160045260246000fdfea2646970667358221220692e3119030aefe618ccc1afd54cb7a1c775e000efe82dfd9c7fd50cd52da50a64736f6c634300081b0033",
  "linkReferences": {
    "contracts/ShadowMathLib.sol": {
      "ShadowMathLib": [
        {
          "length": 20,
          "start": 10639
        }
      ]
    }
  },
  "deployedLinkReferences": {
    "contracts/ShadowMathLib.sol": {
      "ShadowMathLib": [
        {
          "length": 20,
          "start": 10058
        }
      ]
    }
  }
}