{
  "_format": "hh-sol-artifact-1",
  "contractName": "ShadowCreator",
  "sourceName": "contracts/ShadowCreator.sol",
  "abi": [
    {
      "inputs": [
        {
          "internalType": "address",
          "name": "avax_",
          "type": "address"
        },
        {
          "internalType": "address",
          "name": "uniswapV3Factory_",
          "type": "address"
        },
        {
          "internalType": "address",
          "name": "positionManager_",
          "type": "address"
        },
        {
          "internalType": "address",
          "name": "swapRouter_",
          "type": "address"
        },
        {
          "internalType": "address",
          "name": "owner_",
          "type": "address"
        }
      ],
      "stateMutability": "nonpayable",
      "type": "constructor"
    },
    {
      "inputs": [],
      "name": "InvalidTokenOrder",
      "type": "error"
    },
    {
      "anonymous": false,
      "inputs": [
        {
          "indexed": false,
          "internalType": "bool",
          "name": "enabled",
          "type": "bool"
        }
      ],
      "name": "CreationStatusChanged",
      "type": "event"
    },
    {
      "anonymous": false,
      "inputs": [
        {
          "indexed": false,
          "internalType": "string",
          "name": "message",
          "type": "string"
        }
      ],
      "name": "Debug",
      "type": "event"
    },
    {
      "anonymous": false,
      "inputs": [
        {
          "indexed": true,
          "internalType": "address",
          "name": "previousOwner",
          "type": "address"
        },
        {
          "indexed": true,
          "internalType": "address",
          "name": "newOwner",
          "type": "address"
        }
      ],
      "name": "OwnershipTransferred",
      "type": "event"
    },
    {
      "anonymous": false,
      "inputs": [
        {
          "indexed": false,
          "internalType": "address",
          "name": "tokenAddress",
          "type": "address"
        },
        {
          "indexed": false,
          "internalType": "address",
          "name": "deployer",
          "type": "address"
        },
        {
          "indexed": false,
          "internalType": "string",
          "name": "name",
          "type": "string"
        },
        {
          "indexed": false,
          "internalType": "string",
          "name": "symbol",
          "type": "string"
        },
        {
          "indexed": false,
          "internalType": "uint256",
          "name": "supply",
          "type": "uint256"
        }
      ],
      "name": "TokenCreated",
      "type": "event"
    },
    {
      "inputs": [],
      "name": "TICK_SPACING",
      "outputs": [
        {
          "internalType": "int24",
          "name": "",
          "type": "int24"
        }
      ],
      "stateMutability": "view",
      "type": "function"
    },
    {
      "inputs": [],
      "name": "avax",
      "outputs": [
        {
          "internalType": "address",
          "name": "",
          "type": "address"
        }
      ],
      "stateMutability": "view",
      "type": "function"
    },
    {
      "inputs": [
        {
          "internalType": "string",
          "name": "name",
          "type": "string"
        },
        {
          "internalType": "string",
          "name": "symbol",
          "type": "string"
        },
        {
          "internalType": "uint256",
          "name": "totalSupply",
          "type": "uint256"
        },
        {
          "internalType": "bytes32",
          "name": "salt",
          "type": "bytes32"
        },
        {
          "internalType": "address",
          "name": "deployer",
          "type": "address"
        },
        {
          "internalType": "uint256",
          "name": "maxWalletPercentage",
          "type": "uint256"
        }
      ],
      "name": "deployToken",
      "outputs": [],
      "stateMutability": "payable",
      "type": "function"
    },
    {
      "inputs": [
        {
          "internalType": "address",
          "name": "deployer",
          "type": "address"
        },
        {
          "internalType": "string",
          "name": "name",
          "type": "string"
        },
        {
          "internalType": "string",
          "name": "symbol",
          "type": "string"
        },
        {
          "internalType": "uint256",
          "name": "supply",
          "type": "uint256"
        },
        {
          "internalType": "uint256",
          "name": "maxWalletPercentage",
          "type": "uint256"
        }
      ],
      "name": "generateSalt",
      "outputs": [
        {
          "internalType": "bytes32",
          "name": "salt",
          "type": "bytes32"
        },
        {
          "internalType": "address",
          "name": "token",
          "type": "address"
        }
      ],
      "stateMutability": "view",
      "type": "function"
    },
    {
      "inputs": [],
      "name": "isCreationEnabled",
      "outputs": [
        {
          "internalType": "bool",
          "name": "",
          "type": "bool"
        }
      ],
      "stateMutability": "view",
      "type": "function"
    },
    {
      "inputs": [],
      "name": "owner",
      "outputs": [
        {
          "internalType": "address",
          "name": "",
          "type": "address"
        }
      ],
      "stateMutability": "view",
      "type": "function"
    },
    {
      "inputs": [],
      "name": "positionManager",
      "outputs": [
        {
          "internalType": "contract INonfungiblePositionManager",
          "name": "",
          "type": "address"
        }
      ],
      "stateMutability": "view",
      "type": "function"
    },
    {
      "inputs": [
        {
          "internalType": "address",
          "name": "deployer",
          "type": "address"
        },
        {
          "internalType": "string",
          "name": "name",
          "type": "string"
        },
        {
          "internalType": "string",
          "name": "symbol",
          "type": "string"
        },
        {
          "internalType": "uint256",
          "name": "supply",
          "type": "uint256"
        },
        {
          "internalType": "bytes32",
          "name": "salt",
          "type": "bytes32"
        },
        {
          "internalType": "uint256",
          "name": "maxWalletPercentage",
          "type": "uint256"
        }
      ],
      "name": "predictToken",
      "outputs": [
        {
          "internalType": "address",
          "name": "",
          "type": "address"
        }
      ],
      "stateMutability": "view",
      "type": "function"
    },
    {
      "inputs": [],
      "name": "renounceOwnership",
      "outputs": [],
      "stateMutability": "nonpayable",
      "type": "function"
    },
    {
      "inputs": [
        {
          "internalType": "bool",
          "name": "enabled",
          "type": "bool"
        }
      ],
      "name": "setCreationEnabled",
      "outputs": [],
      "stateMutability": "nonpayable",
      "type": "function"
    },
    {
      "inputs": [],
      "name": "swapRouter",
      "outputs": [
        {
          "internalType": "address",
          "name": "",
          "type": "address"
        }
      ],
      "stateMutability": "view",
      "type": "function"
    },
    {
      "inputs": [
        {
          "internalType": "address",
          "name": "newOwner",
          "type": "address"
        }
      ],
      "name": "transferOwnership",
      "outputs": [],
      "stateMutability": "nonpayable",
      "type": "function"
    },
    {
      "inputs": [],
      "name": "uniswapV3Factory",
      "outputs": [
        {
          "internalType": "contract IUniswapV3Factory",
          "name": "",
          "type": "address"
        }
      ],
      "stateMutability": "view",
      "type": "function"
    },
    {
      "stateMutability": "payable",
      "type": "receive"
    }
  ],
  "bytecode": "0x610100346100f957601f61501c38819003918201601f19168301916001600160401b038311848410176100fe5780849260a0946040528339810103126100f9578061004c6100b892610114565b9061005960208201610114565b61006560408301610114565b9061007e608061007760608601610114565b9401610114565b9361008833610128565b6000805460ff60a01b1916600160a01b1790556080526001600160a01b0390811660a0521660c05260e052610128565b604051614eac908161017082396080518181816103050152818161061401526108b5015260a05181610857015260c05181610568015260e0518161019a0152f35b600080fd5b634e487b7160e01b600052604160045260246000fd5b51906001600160a01b03821682036100f957565b600080546001600160a01b039283166001600160a01b03198216811783559216907f8be0079c531659141344cd1fd0a4f28419497f9722a3daafe3b4186f6b6457e09080a356fe608080604052600436101561001d575b50361561001b57600080fd5b005b60003560e01c90816253d555146108a25750806346ca626b146108865780635b549182146108415780636a5dab9f146107d55780636ec49b6714610751578063715018a6146106f857806374918b0414610597578063791b98bc146105525780638da5cb5b14610529578063a10b521b14610503578063ac37d0bc146101c9578063c31c9c07146101845763f2fde38b146100b8573861000f565b3461017f57602036600319011261017f576100d16108e4565b6100d9610b12565b6001600160a01b0316801561012b57600080546001600160a01b03198116831782556001600160a01b0316907f8be0079c531659141344cd1fd0a4f28419497f9722a3daafe3b4186f6b6457e09080a3005b60405162461bcd60e51b815260206004820152602660248201527f4f776e61626c653a206e6577206f776e657220697320746865207a65726f206160448201526564647265737360d01b6064820152608490fd5b600080fd5b3461017f57600036600319011261017f576040517f00000000000000000000000000000000000000000000000000000000000000006001600160a01b03168152602090f35b60c036600319011261017f5760043567ffffffffffffffff811161017f576101f590369060040161094a565b60243567ffffffffffffffff811161017f5761021590369060040161094a565b906084356001600160a01b03811691906044359083900361017f5780156104be5782156104795781511561043d578351156103ff5760405161028a600a602083865161026681848401858b016109a1565b81016920627920536861646f7760b01b838201520301601519810184520182610928565b60405161430c918282019282841067ffffffffffffffff8511176103e9576102d1916102c391610b6b853960a0855260a08501906109c4565b8381036020850152876109c4565b91836040820152856060820152608060a435910152806064359203906000f580156103dd576001600160a01b0390811692907f00000000000000000000000000000000000000000000000000000000000000001683101561038c577f6e6ae68e7d7d45fbd855c40d1eaafa8de46c5fbec3ee26f1af88730e400bc92c94610373610381926040519687968752602087015260a0604087015260a08601906109c4565b9084820360608601526109c4565b9060808301520390a1005b60405162461bcd60e51b8152602060048201526024808201527f546f6b656e2061646472657373206d757374206265206c657373207468616e206044820152630c2ecc2f60e31b6064820152608490fd5b6040513d6000823e3d90fd5b634e487b7160e01b600052604160045260246000fd5b60405162461bcd60e51b815260206004820152601660248201527553796d626f6c2063616e6e6f7420626520656d70747960501b6044820152606490fd5b60405162461bcd60e51b81526020600482015260146024820152734e616d652063616e6e6f7420626520656d70747960601b6044820152606490fd5b60405162461bcd60e51b815260206004820152601860248201527f496e76616c6964206465706c6f796572206164647265737300000000000000006044820152606490fd5b60405162461bcd60e51b815260206004820152601d60248201527f537570706c79206d7573742062652067726561746572207468616e20300000006044820152606490fd5b3461017f57600036600319011261017f57602060ff60005460a01c166040519015158152f35b3461017f57600036600319011261017f576000546040516001600160a01b039091168152602090f35b3461017f57600036600319011261017f576040517f00000000000000000000000000000000000000000000000000000000000000006001600160a01b03168152602090f35b3461017f5760a036600319011261017f576105b06108e4565b60243567ffffffffffffffff811161017f576105d09036906004016108fa565b91906044359067ffffffffffffffff821161017f5790916105f6849336906004016108fa565b6064929192359060843593600061063d868286868660018060a01b037f0000000000000000000000000000000000000000000000000000000000000000169d5b8d8c6109e9565b6001600160a01b0381168911806106ef575b6106d5575060001981146106bf57600101976103e889101561067a579761063d86828686868e610636565b60405162461bcd60e51b815260206004820152601960248201527f436f756c64206e6f742066696e642076616c69642073616c74000000000000006044820152606490fd5b634e487b7160e01b600052601160045260246000fd5b604080519283526001600160a01b03909116602083015290f35b50803b1561064f565b3461017f57600036600319011261017f57610711610b12565b600080546001600160a01b0319811682556001600160a01b03167f8be0079c531659141344cd1fd0a4f28419497f9722a3daafe3b4186f6b6457e08280a3005b3461017f5760c036600319011261017f5761076a6108e4565b60243567ffffffffffffffff811161017f5761078a9036906004016108fa565b6044359167ffffffffffffffff831161017f576020936107b16107c39436906004016108fa565b9060a4359460843594606435946109e9565b6040516001600160a01b039091168152f35b3461017f57602036600319011261017f5760043580151580910361017f5760207f1a3f40fae3a310ca113098ad34d161433ab7e470c2a167b60a190a80364043bc9161081f610b12565b6000805460ff60a01b191660a083901b60ff60a01b16179055604051908152a1005b3461017f57600036600319011261017f576040517f00000000000000000000000000000000000000000000000000000000000000006001600160a01b03168152602090f35b3461017f57600036600319011261017f57602060405160c88152f35b3461017f57600036600319011261017f577f00000000000000000000000000000000000000000000000000000000000000006001600160a01b03168152602090f35b600435906001600160a01b038216820361017f57565b9181601f8401121561017f5782359167ffffffffffffffff831161017f576020838186019501011161017f57565b90601f8019910116810190811067ffffffffffffffff8211176103e957604052565b81601f8201121561017f5780359067ffffffffffffffff82116103e9576040519261097f601f8401601f191660200185610928565b8284526020838301011161017f57816000926020809301838601378301015290565b60005b8381106109b45750506000910152565b81810151838201526020016109a4565b906020916109dd815180928185528580860191016109a1565b601f01601f1916010190565b610af492602091610abd83600b9a99610ae498610a36600a60559f998590896040519a8b928484013781016920627920536861646f7760b01b838201520301601519810189520187610928565b61430c9a8b98610a4b856040519b018b610928565b8c8a52848a019c610b6b8e3960405196879483610a738888019b60a08d5260c08901906109c4565b878103601f1901604089015281815295888701376000878587010152606086015260018060a01b0316608085015260a0840152601f8019910116010301601f198101835282610928565b604051958694610ad5858701998a92519283916109a1565b850191518093858401906109a1565b010103601f198101835282610928565b5190209060405191604083015260208201523081520160ff81532090565b6000546001600160a01b03163303610b2657565b606460405162461bcd60e51b815260206004820152602060248201527f4f776e61626c653a2063616c6c6572206973206e6f7420746865206f776e65726044820152fdfe60c0806040523461070557600061430c803803809161001e828661070a565b843982019160a0818403126107015780516001600160401b0381116106fd5783610049918301610743565b60208201519093906001600160401b0381116106ea579061006b918301610743565b9160408201519360608301519360018060a01b038516938486036106ea576080015191610097336107d5565b731a44076050125825900e736c501f859c50fe728c60805284156106ee57731a44076050125825900e736c501f859c50fe728c3b156106ea5760405163ca5eb5e160e01b815260048101869052848160248183731a44076050125825900e736c501f859c50fe728c5af180156106df576106cb575b5064e8d4a5100060a0528051906001600160401b0382116106b757600854600181811c911680156106ad575b6020821014610699579081601f84931161062b575b50602090601f83116001146105c65786926105bb575b50508160011b916000199060031b1c1916176008555b8051906001600160401b0382116105a757600954600181811c9116801561059d575b6020821014610589579081601f84931161051b575b50602090601f83116001146104b65785926104ab575b50508160011b916000199060031b1c1916176009555b600a5560ff19600c5416600c55818152600d60205260ff6040822054161561040e575b60ff600c541680156103fc575b80156103e9575b80156103e1575b80156103d8575b1561039357808061037c575b6102ec575b7fddf252ad1be2c89b69c2b068fc378daa952ba7f163c4a11628f55a4df523b3ef602085610265610285976007546107b2565b6007558484526005825260408420818154019055604051908152a36107d5565b604051613aef908161081d82396080518181816107a4015281816108c401528181610d9a0152818161119a01528181611e5f015281816137840152613826015260a051818181610cea0152818161160a01528181612678015281816129ac01526131bd0152f35b600754600a54908181029181830414901517156103685760649083835260056020520461031d8560408420546107b2565b11156102325760405162461bcd60e51b815260206004820152601e60248201527f4d61782077616c6c65742070657263656e7461676520657863656564656400006044820152606490fd5b634e487b7160e01b82526011600452602482fd5b50818152600b60205260ff6040822054161561022d565b60405162461bcd60e51b815260206004820152601360248201527f54726164696e67206e6f7420656e61626c6564000000000000000000000000006044820152606490fd5b50303314610221565b50600161021a565b5080546001600160a01b03168214610213565b5080546001600160a01b03161561020c565b818152600d60205260408120805460ff19166001179055600e5468010000000000000000811015610497576001810180600e5581101561048357600e82527fbb7b4a454dc3493923482f07822329ed19e8244eff582cc204f8554c3620c3fd0180546001600160a01b031916831790556101ff565b634e487b7160e01b82526032600452602482fd5b634e487b7160e01b82526041600452602482fd5b0151905038806101c6565b600986528186209250601f198416865b81811061050357509084600195949392106104ea575b505050811b016009556101dc565b015160001960f88460031b161c191690553880806104dc565b929360206001819287860151815501950193016104c6565b600986529091507f6e1540171b6c0c960b71a7020d9f60077f6af931a8bbf590da0223dacf75c7af601f840160051c8101916020851061057f575b90601f859493920160051c01905b81811061057157506101b0565b868155849350600101610564565b9091508190610556565b634e487b7160e01b85526022600452602485fd5b90607f169061019b565b634e487b7160e01b84526041600452602484fd5b015190503880610163565b600887528187209250601f198416875b81811061061357509084600195949392106105fa575b505050811b01600855610179565b015160001960f88460031b161c191690553880806105ec565b929360206001819287860151815501950193016105d6565b600887529091507ff3f7a9fe364faab93b216da50a3214154f22a0a2b415b23a84c8169e8b636ee3601f840160051c8101916020851061068f575b90601f859493920160051c01905b818110610681575061014d565b878155849350600101610674565b9091508190610666565b634e487b7160e01b86526022600452602486fd5b90607f1690610138565b634e487b7160e01b85526041600452602485fd5b846106d89195929561070a565b923861010c565b6040513d87823e3d90fd5b8380fd5b632d618d8160e21b8452600484fd5b8280fd5b5080fd5b600080fd5b601f909101601f19168101906001600160401b0382119082101761072d57604052565b634e487b7160e01b600052604160045260246000fd5b81601f82011215610705578051906001600160401b03821161072d5760405192610777601f8401601f19166020018561070a565b828452602083830101116107055760005b82811061079d57505060206000918301015290565b80602080928401015182828701015201610788565b919082018092116107bf57565b634e487b7160e01b600052601160045260246000fd5b600080546001600160a01b039283166001600160a01b03198216811783559216907f8be0079c531659141344cd1fd0a4f28419497f9722a3daafe3b4186f6b6457e09080a356fe6080604052600436101561001257600080fd5b60003560e01c806306fdde0314610392578063095ea7b31461038d5780630d35b41514610388578063111ecdad1461038357806313137d651461037e578063134d4f2514610379578063156a0d0f1461037457806317442b701461036f57806318160ddd1461036a5780631f5e13341461036557806323b872dd14610360578063313ce5671461035b5780633400288b1461035657806339509351146103515780633af32abf1461034c5780633b6f743b1461034757806340c10f191461034257806342966c681461033d5780634ada218b1461033857806352ae28791461028957806353d6fd59146103335780635535d4611461032e578063599ca397146103295780635a0dfe4d146103245780635e280f111461031f5780636fc1b31e1461031a57806370a0823114610315578063715018a6146103105780637a845ece1461030b5780637d25a05e1461030657806382413eac1461030157806382c947b7146102fc578063857749b0146102f75780638da5cb5b146102f257806391500c88146102ed57806395d89b41146102e8578063963efcaa146102e357806397dc4a13146102de5780639f68b964146102d9578063a095e8f9146102d4578063a457c2d7146102cf578063a9059cbb146102ca578063b731ea0a146102c5578063b98bd070146102c0578063bb0b6a53146102bb578063bc70b354146102b6578063bd815db0146102b1578063c2e5ec04146102ac578063c7c7f5b3146102a7578063ca5eb5e1146102a2578063d045a0dc1461029d578063d424388514610298578063dd62ed3e14610293578063f2fde38b1461028e578063fc0c546a146102895763ff7bd03d1461028457600080fd5b6120af565b610eaf565b611fe0565b611f7d565b611f0d565b611eda565b611e35565b611d01565b611c4e565b611af2565b611a9e565b611a63565b611980565b61192d565b611903565b611851565b61176e565b611722565b61162d565b6115f2565b61154a565b6114be565b611452565b611436565b6113fc565b61139e565b611377565b6112d7565b61127e565b611239565b6111c9565b611184565b61113c565b61111e565b61109f565b610eca565b610e8c565b610e6f565b610e3c565b610c86565b610c3a565b610bd7565b610b50565b610b26565b610a53565b610a37565b610a19565b6109f7565b6109d0565b6109b4565b610791565b6106ba565b6105d5565b6104f1565b610403565b60009103126103a257565b600080fd5b60005b8381106103ba5750506000910152565b81810151838201526020016103aa565b906020916103e3815180928185528580860191016103a7565b601f01601f1916010190565b9060206104009281815201906103ca565b90565b346103a25760003660031901126103a257604051600060085461042581610f70565b80845290600181169081156104bc575060011461045d575b6104598361044d8185038261107e565b604051918291826103ef565b0390f35b600860009081527ff3f7a9fe364faab93b216da50a3214154f22a0a2b415b23a84c8169e8b636ee3939250905b8082106104a25750909150810160200161044d61043d565b91926001816020925483858801015201910190929161048a565b60ff191660208086019190915291151560051b8401909101915061044d905061043d565b6001600160a01b038116036103a257565b346103a25760403660031901126103a25761051b600435610511816104e0565b6024359033612539565b602060405160018152f35b908160e09103126103a25790565b939291906105508560a081019260208091805184520151910152565b60a06040860152815180915260c0850190602060c08260051b8801019301916000905b82821061059957505050509060606105979294019060208091805184520151910152565b565b909192936020806105c760019360bf198c82030186526040838a5180518452015191818582015201906103ca565b960192019201909291610573565b346103a25760203660031901126103a2576004356001600160401b0381116103a257610605903690600401610526565b61060d612114565b50610616612114565b5060405161062381611043565b600081526001600160401b036020820152602060405192610644828561107e565b60008452601f19820160005b8181106106965750509061067a610459926040810135610674606083013592612144565b5061266f565b90916106846120f6565b92835282015260405193849384610534565b83906040516106a481611043565b6000815260608382015282828901015201610650565b346103a25760003660031901126103a2576004546040516001600160a01b039091168152602090f35b60609060031901126103a257600490565b9181601f840112156103a2578235916001600160401b0383116103a257602083818601950101116103a257565b600319810160e081126103a25760606000911261078e575060049182606435926084356001600160401b0381116103a2578161075e9184016106f4565b9390939260a43561076e816104e0565b9260c4356001600160401b0381116103a25761078a92016106f4565b9091565b80fd5b61079a36610721565b50919492915050337f00000000000000000000000000000000000000000000000000000000000000006001600160a01b03160361099f5781356107dc81610b42565b6107e5816126c3565b90602084013580920361097857505061080d610801858361318d565b6001600160a01b031690565b9361083361082361081e8385613199565b6131af565b61082c85612144565b50866131e3565b9161083e8260281090565b610896575b505061086f7fefed6d3500546b29533b128a29e3a94d70788727f0507505ac12eaf2e578fd9c92612144565b6040805163ffffffff92909216825260208201929092526001600160a01b039490941693a3005b90826108c1926108bb6108ab604088016126f7565b936108b588612144565b92613207565b9261322e565b917f00000000000000000000000000000000000000000000000000000000000000006001600160a01b0316803b156103a257604051633e5ac80960e11b815293600091859182908490829061091b908b8d60048501612701565b03925af1908115610973577fefed6d3500546b29533b128a29e3a94d70788727f0507505ac12eaf2e578fd9c9361086f92610958575b5092610843565b80610967600061096d9361107e565b80610397565b38610951565b6124a7565b8061098763ffffffff92610b42565b63309afaf360e21b6000521660045260245260446000fd5b6391ac5e4f60e01b6000523360045260246000fd5b346103a25760003660031901126103a257602060405160028152f35b346103a25760003660031901126103a2576040805162b9270b60e21b815260016020820152f35b346103a25760003660031901126103a257604080516001815260026020820152f35b346103a25760003660031901126103a2576020600754604051908152f35b346103a25760003660031901126103a257602060405160018152f35b346103a25760603660031901126103a257600435610a70816104e0565b602435610a7c816104e0565b6001600160a01b038216600090815260066020908152604080832033845290915290205491604435919060018401610ac5575b610ab993506127df565b60405160018152602090f35b828410610ae157610adc83610ab995033383612539565b610aaf565b60405162461bcd60e51b815260206004820152601d60248201527f45524332303a20696e73756666696369656e7420616c6c6f77616e63650000006044820152606490fd5b346103a25760003660031901126103a257602060405160128152f35b63ffffffff8116036103a257565b346103a25760403660031901126103a2577f238399d427b947898edb290f5ff0f9109849b1c3ba196a42e35f00c50a54b98b600435610b8e81610b42565b60243590610b9a612903565b63ffffffff8116600052600160205281604060002055610bd2604051928392836020909392919363ffffffff60408201951681520152565b0390a1005b346103a25760403660031901126103a257600435610bf4816104e0565b602435336000526006602052610c208260406000209060018060a01b0316600052602052604060002090565b54908101809111610c355761051b9133612539565b61214e565b346103a25760203660031901126103a257600435610c57816104e0565b60018060a01b0316600052600b602052602060ff604060002054166040519015158152f35b801515036103a257565b346103a25760403660031901126103a2576004356001600160401b0381116103a257610cb6903690600401610526565b602435610cc281610c7c565b610cca612114565b50813591606081013590610d156040820135610ce586610b42565b610d107f00000000000000000000000000000000000000000000000000000000000000008092612209565b6121f6565b91808310610e2457610d96604086610d7b87610d318888612995565b90610d3b85610b42565b610d43612114565b50610d4d856126c3565b610d64610d58612105565b63ffffffff9097168752565b602086015285850152606084015215156080830152565b815180938192631bb8518b60e31b8352309060048401612ae1565b03817f00000000000000000000000000000000000000000000000000000000000000006001600160a01b03165afa80156109735761045991600091610df5575b5060405191829182815181526020918201519181019190915260400190565b610e17915060403d604011610e1d575b610e0f818361107e565b810190612acd565b82610dd6565b503d610e05565b826371c4efed60e01b60005260045260245260446000fd5b346103a25760403660031901126103a257610e6d600435610e5c816104e0565b60243590610e68612903565b612b4f565b005b346103a25760203660031901126103a257610e6d60043533612dce565b346103a25760003660031901126103a257602060ff600c54166040519015158152f35b346103a25760003660031901126103a2576020604051308152f35b346103a25760403660031901126103a257600435610ee7816104e0565b7faf367c7d20ce5b2ab6da56afd0c9c39b00ba995263c60292a3e1ee3781fd4885602060243592610f1784610c7c565b610f1f612903565b6001600160a01b03166000818152600b835260409020805460ff191660ff86151516179055926040519015158152a2005b6024359061ffff821682036103a257565b359061ffff821682036103a257565b90600182811c92168015610fa0575b6020831014610f8a57565b634e487b7160e01b600052602260045260246000fd5b91607f1691610f7f565b60009291815491610fba83610f70565b80835292600181169081156110105750600114610fd657505050565b60009081526020812093945091925b838310610ff6575060209250010190565b600181602092949394548385870101520191019190610fe5565b915050602093945060ff929192191683830152151560051b010190565b634e487b7160e01b600052604160045260246000fd5b604081019081106001600160401b0382111761105e57604052565b61102d565b606081019081106001600160401b0382111761105e57604052565b90601f801991011681019081106001600160401b0382111761105e57604052565b346103a25760403660031901126103a25761045961110361110a6110f76004356110c881610b42565b63ffffffff6110d5610f50565b9116600052600360205260406000209061ffff16600052602052604060002090565b60405192838092610faa565b038261107e565b6040519182916020835260208301906103ca565b346103a25760003660031901126103a2576020600a54604051908152f35b346103a25760403660031901126103a257602061117a60043561115e81610b42565b6024359063ffffffff1660005260016020526040600020541490565b6040519015158152f35b346103a25760003660031901126103a2576040517f00000000000000000000000000000000000000000000000000000000000000006001600160a01b03168152602090f35b346103a25760203660031901126103a2577ff0be4f1e87349231d80c36b33f9e8639658eeaf474014dee15a3e6a4d44141976020600435611209816104e0565b611211612903565b600480546001600160a01b0319166001600160a01b03929092169182179055604051908152a1005b346103a25760203660031901126103a257602061127660043561125b816104e0565b6001600160a01b031660009081526005602052604090205490565b604051908152f35b346103a25760003660031901126103a257611297612903565b600080546001600160a01b0319811682556001600160a01b03167f8be0079c531659141344cd1fd0a4f28419497f9722a3daafe3b4186f6b6457e08280a3005b346103a25760203660031901126103a2576004356112f3612903565b8015158061136c575b15611332576020817fd0a65de7e2cd9cbe3e815cb542d294bed1fe025cdb4aa6d144d354a25872eee492600a55604051908152a1005b60405162461bcd60e51b8152602060048201526012602482015271496e76616c69642070657263656e7461676560701b6044820152606490fd5b5060648111156112fc565b346103a25760403660031901126103a257611393600435610b42565b602060405160008152f35b346103a25760a03660031901126103a2576113b8366106e3565b506064356001600160401b0381116103a2576113d89036906004016106f4565b505060206084356113e8816104e0565b6040516001600160a01b0390911630148152f35b346103a25760203660031901126103a257602060043561141b816104e0565b604051906bffffffffffffffffffffffff199060601b168152f35b346103a25760003660031901126103a257602060405160068152f35b346103a25760003660031901126103a2576000546040516001600160a01b039091168152602090f35b602060408183019282815284518094520192019060005b81811061149f5750505090565b82516001600160a01b0316845260209384019390920191600101611492565b346103a25760003660031901126103a257604051806020600e54918281520190600e6000527fbb7b4a454dc3493923482f07822329ed19e8244eff582cc204f8554c3620c3fd9060005b81811061152b576104598561151f8187038261107e565b6040519182918261147b565b82546001600160a01b0316845260209093019260019283019201611508565b346103a25760003660031901126103a257604051600060095461156c81610f70565b80845290600181169081156104bc5750600114611593576104598361044d8185038261107e565b600960009081527f6e1540171b6c0c960b71a7020d9f60077f6af931a8bbf590da0223dacf75c7af939250905b8082106115d85750909150810160200161044d61043d565b9192600181602092548385880101520191019092916115c0565b346103a25760003660031901126103a25760206040517f00000000000000000000000000000000000000000000000000000000000000008152f35b346103a25760203660031901126103a257600435611649612903565b600090600080600e54905b8181106116e65750506116689015156121b6565b60005b600e54811015610e6d57808361169a611685600194612187565b905460039190911b1c6001600160a01b031690565b6001600160a01b038116600090815260056020526040902054806116c2575b5050500161166b565b6116de926116d36116d892886121f6565b612209565b90612b4f565b8338806116b9565b6116f561125b61168583612187565b80611704575b50600101611654565b61171561171b916001939597612164565b956121a7565b92906116fb565b346103a25760003660031901126103a257602060405160008152f35b9181601f840112156103a2578235916001600160401b0383116103a2576020808501948460051b0101116103a257565b346103a25760403660031901126103a2576004356001600160401b0381116103a25761179e90369060040161173e565b6024356117aa81610c7c565b6117b2612903565b8015159060005b8381106117c257005b806117d06001928688612229565b356117da816104e0565b828060a01b0316600052600b6020526118038360406000209060ff801983541691151516179055565b61180e818688612229565b35611818816104e0565b7faf367c7d20ce5b2ab6da56afd0c9c39b00ba995263c60292a3e1ee3781fd4885602060405192878452858060a01b031692a2016117b9565b346103a25760403660031901126103a25760043561186e816104e0565b6024359033600052600660205261189b8160406000209060018060a01b0316600052602052604060002090565b54918083106118b057610ab992039033612539565b60405162461bcd60e51b815260206004820152602560248201527f45524332303a2064656372656173656420616c6c6f77616e63652062656c6f77604482015264207a65726f60d81b6064820152608490fd5b346103a25760403660031901126103a25761051b600435611923816104e0565b60243590336127df565b346103a25760003660031901126103a2576002546040516001600160a01b039091168152602090f35b60206003198201126103a257600435906001600160401b0382116103a25761078a9160040161173e565b346103a25761198e36611956565b90611997612903565b6119a08261212d565b906119ae604051928361107e565b828252602082019260051b8101903682116103a25780935b8285106119d657610e6d84613066565b84356001600160401b0381116103a2578201906060823603126103a25760405191611a0083611063565b8035611a0b81610b42565b8352611a1960208201610f61565b60208401526040810135906001600160401b0382116103a257019036601f830112156103a257602092611a5384933690858135910161225e565b60408201528152019401936119c6565b346103a25760203660031901126103a25763ffffffff600435611a8581610b42565b1660005260016020526020604060002054604051908152f35b346103a25760603660031901126103a257600435611abb81610b42565b611ac3610f50565b604435906001600160401b0382116103a25761045992611aea61110a9336906004016106f4565b929091612321565b611afb36611956565b60005b818110611b6e57604051638e9e709960e01b8152600081600481335afa801561097357611b4791600091611b4b575b50604051638351eea760e01b8152918291600483016103ef565b0390fd5b611b6891503d806000833e611b60818361107e565b8101906124b3565b82611b2d565b611b798183856123c7565b90611bab611ba7611b8984612144565b60208501359063ffffffff1660005260016020526040600020541490565b1590565b611c455760c08201359160a0810135611bc86101008301836123ea565b949091611bd760e08501612239565b93611be66101208201826123ea565b959095303b156103a257600096611c14926040519a8b9889978897633411683760e21b89526004890161242d565b0391305af191821561097357600192611c30575b505b01611afe565b806109676000611c3f9361107e565b38611c28565b60019150611c2a565b346103a25760203660031901126103a2577f44025b4c6266facf728a25ba1ed858c89e2215e03094486152577b87636ea7ab6020600435611c8e81610c7c565b611c96612903565b151560ff19600c541660ff821617600c55604051908152a1005b916080610597929493611cf0604060c0830197805184526001600160401b0360208201511660208501520151604083019060208091805184520151910152565b019060208091805184520151910152565b60803660031901126103a2576004356001600160401b0381116103a257611d2c903690600401610526565b60403660231901126103a257606435611d44816104e0565b611d4c612511565b50611d55612114565b50611d5e612511565b50611d67612114565b50606082013590611d806040840135610ce58535610b42565b91808310610e245750611dba90611d978333612dce565b611da18385612995565b611daa86612144565b91611db436613165565b92613707565b90611dc36120f6565b928184528160208501527f85496b760a4b7f8d66384b9df21b381f5d1b1e79f229a47aaf4c232edc2fe59a611e23611dfc855193612144565b936040519181839233978460409194939263ffffffff606083019616825260208201520152565b0390a361045960405192839283611cb0565b346103a2576000602036600319011261078e5780600435611e55816104e0565b611e5d612903565b7f00000000000000000000000000000000000000000000000000000000000000006001600160a01b0316803b15611ed65760405163ca5eb5e160e01b81526001600160a01b0390921660048301529091908290602490829084905af18015610973578290611ec85780f35b611ed19161107e565b388180f35b5050fd5b611ee336610721565b5050509290303303611efc5761080d610801858361318d565b63029a949d60e31b60005260046000fd5b346103a25760203660031901126103a2577fd48d879cef83a1c0bdda516f27b13ddb1b3f8bbac1c9e1511bb2a659c24277606020600435611f4d816104e0565b611f55612903565b600280546001600160a01b0319166001600160a01b03929092169182179055604051908152a1005b346103a25760403660031901126103a2576020611fd7600435611f9f816104e0565b60243590611fac826104e0565b60018060a01b03166000526006835260406000209060018060a01b0316600052602052604060002090565b54604051908152f35b346103a25760203660031901126103a257600435611ffd816104e0565b612005612903565b6001600160a01b0381161561205b57600080546001600160a01b039283166001600160a01b03198216811783559216907f8be0079c531659141344cd1fd0a4f28419497f9722a3daafe3b4186f6b6457e09080a3005b60405162461bcd60e51b815260206004820152602660248201527f4f776e61626c653a206e6577206f776e657220697320746865207a65726f206160448201526564647265737360d01b6064820152608490fd5b346103a25760603660031901126103a25760206120cb366106e3565b63ffffffff81356120db81610b42565b16600052600182528160406000205491013560405191148152f35b6040519061059760408361107e565b6040519061059760a08361107e565b6040519061212182611043565b60006020838281520152565b6001600160401b03811161105e5760051b60200190565b3561040081610b42565b634e487b7160e01b600052601160045260246000fd5b91908201809211610c3557565b634e487b7160e01b600052603260045260246000fd5b600e548110156121a257600e60005260206000200190600090565b612171565b6000198114610c355760010190565b156121bd57565b60405162461bcd60e51b81526020600482015260116024820152704e6f2061637469766520686f6c6465727360781b6044820152606490fd5b81810292918115918404141715610c3557565b8115612213570490565b634e487b7160e01b600052601260045260246000fd5b91908110156121a25760051b0190565b35610400816104e0565b6001600160401b03811161105e57601f01601f191660200190565b92919261226a82612243565b91612278604051938461107e565b8294818452818301116103a2578281602093846000960137010152565b90929192836002116103a25783116103a257600201916001190190565b6020836105979395949560405196846122d4899651809287808a0191016103a7565b8501918483013701016000815203601f19810184528361107e565b908060209392818452848401376000828201840152601f01601f1916010190565b9160206104009381815201916122ef565b6110f76111039263ffffffff612356939795969716600052600360205260406000209061ffff16600052602052604060002090565b8051156123b95783156123b357600284101561238a575050611b47604051928392639a6d49cd60e01b845260048401612310565b9092806123ad91610400946123a86123a336848461225e565b61312d565b612295565b916122b2565b92509050565b50919061040091369161225e565b91908110156121a25760051b8101359061013e19813603018212156103a2570190565b903590601e19813603018212156103a257018035906001600160401b0382116103a2576020019181360383136103a257565b6001600160401b038116036103a257565b929093612489926001600160401b0360406104009a98999763ffffffff813561245581610b42565b16885260208101356020890152013561246d8161241c565b166040860152606085015260e0608085015260e08401916122ef565b6001600160a01b0390941660a082015280840360c0909101526122ef565b6040513d6000823e3d90fd5b6020818303126103a2578051906001600160401b0382116103a2570181601f820112156103a25780516124e581612243565b926124f3604051948561107e565b818452602082840101116103a25761040091602080850191016103a7565b6040519061251e82611063565b8160008152600060208201526040612534612114565b910152565b6001600160a01b0381169190821561261e576001600160a01b0382169384156125ce57806125b87f8c5be1e5ebec7d5bd14f71427d1e84f3dd0314c0f7b2291e5b200ac8c7c3b925946125a16125c99560018060a01b03166000526006602052604060002090565b9060018060a01b0316600052602052604060002090565b556040519081529081906020820190565b0390a3565b60405162461bcd60e51b815260206004820152602260248201527f45524332303a20617070726f766520746f20746865207a65726f206164647265604482015261737360f01b6064820152608490fd5b60405162461bcd60e51b8152602060048201526024808201527f45524332303a20617070726f76652066726f6d20746865207a65726f206164646044820152637265737360e01b6064820152608490fd5b61269e90610d107f00000000000000000000000000000000000000000000000000000000000000008092612209565b9182918084106126ab5750565b836371c4efed60e01b60005260045260245260446000fd5b63ffffffff168060005260016020526040600020549081156126e3575090565b63f6ff4fb760e01b60005260045260246000fd5b356104008161241c565b610400939260809260018060a01b0316825260208201526000604082015281606082015201906103ca565b1561273357565b60405162461bcd60e51b815260206004820152602360248201527f45524332303a207472616e7366657220746f20746865207a65726f206164647260448201526265737360e81b6064820152608490fd5b1561278b57565b60405162461bcd60e51b815260206004820152602660248201527f45524332303a207472616e7366657220616d6f756e7420657863656564732062604482015265616c616e636560d01b6064820152608490fd5b916001600160a01b0383169182156128b0577fddf252ad1be2c89b69c2b068fc378daa952ba7f163c4a11628f55a4df523b3ef9161289a6125c99260018060a01b0381169661282f88151561272c565b61283a84838361346b565b6001600160a01b038116600090815260056020526040902061287f9085905461286582821015612784565b039160018060a01b03166000526005602052604060002090565b556001600160a01b0316600090815260056020526040902090565b8054820190556040519081529081906020820190565b60405162461bcd60e51b815260206004820152602560248201527f45524332303a207472616e736665722066726f6d20746865207a65726f206164604482015264647265737360d81b6064820152608490fd5b6000546001600160a01b0316330361291757565b606460405162461bcd60e51b815260206004820152602060248201527f4f776e61626c653a2063616c6c6572206973206e6f7420746865206f776e65726044820152fd5b908160209103126103a2575161040081610c7c565b9091612987610400936040845260408401906103ca565b9160208184039101526103ca565b90916129fa612a21936129dd6129d16020860135927f000000000000000000000000000000000000000000000000000000000000000090612209565b6001600160401b031690565b6129f46129ed60a08701876123ea565b369161225e565b91613648565b9390928394600014612a9d576002905b611aea612a1682612144565b9160808101906123ea565b60045490926001600160a01b03909116908382612a3d57505050565b60405163043a78eb60e01b815292602092849283918291612a619160048401612970565b03915afa801561097357612a725750565b612a939060203d602011612a96575b612a8b818361107e565b81019061295b565b50565b503d612a81565b600190612a0a565b91908260409103126103a257604051612abd81611043565b6020808294805184520151910152565b906040828203126103a25761040091612aa5565b906020909392936040835263ffffffff81511660408401528181015160608401526080612b35612b1f604084015160a08488015260e08701906103ca565b6060840151868203603f190160a08801526103ca565b910151151560c08401526001600160a01b03909416910152565b6001600160a01b038116918215612d32576125c97fddf252ad1be2c89b69c2b068fc378daa952ba7f163c4a11628f55a4df523b3ef9161289a600094861515808091612d07575b612ccf575b600c5460ff168015612cb4575b8015612c98575b8015612c90575b8015612c87575b612bc6906132f8565b80612c80575b80612c52575b612c05575b612beb612be684600754612164565b600755565b6001600160a01b0316600090815260056020526040902090565b612c4d612c21612c1a600754600a54906121f6565b6064900490565b6001600160a01b0383166000908152600560205260409020612c469086905b54612164565b111561333a565b612bd7565b506001600160a01b0381166000908152600b60205260409020612c7b90611ba7905b5460ff1690565b612bd2565b5085612bcc565b50333014612bbd565b506001612bb6565b508654612cad906001600160a01b0316610801565b8814612baf565b508654612cc9906001600160a01b0316610801565b15612ba8565b6001600160a01b0382166000908152600d60205260409020612cf9905b805460ff19166001179055565b612d028261328c565b612b9b565b506001600160a01b0382166000908152600d60205260409020612d2d90611ba790612c74565b612b96565b60405162461bcd60e51b815260206004820152601f60248201527f45524332303a206d696e7420746f20746865207a65726f2061646472657373006044820152606490fd5b15612d7e57565b60405162461bcd60e51b815260206004820152602260248201527f45524332303a206275726e20616d6f756e7420657863656564732062616c616e604482015261636560f01b6064820152608490fd5b906001600160a01b038216908115612e5b576125c98184612e127fddf252ad1be2c89b69c2b068fc378daa952ba7f163c4a11628f55a4df523b3ef94600097613386565b6001600160a01b0381166000908152600560205260409020612e3d9083905461286582821015612d77565b55612e4b8160075403600755565b6040519081529081906020820190565b60405162461bcd60e51b815260206004820152602160248201527f45524332303a206275726e2066726f6d20746865207a65726f206164647265736044820152607360f81b6064820152608490fd5b80518210156121a25760209160051b010190565b601f8211612ecb57505050565b6000526020600020906020601f840160051c83019310612f06575b601f0160051c01905b818110612efa575050565b60008155600101612eef565b9091508190612ee6565b91909182516001600160401b03811161105e57612f3781612f318454610f70565b84612ebe565b6020601f8211600114612f78578190612f69939495600092612f6d575b50508160011b916000199060031b1c19161790565b9055565b015190503880612f54565b601f19821690612f8d84600052602060002090565b9160005b818110612fc957509583600195969710612fb0575b505050811b019055565b015160001960f88460031b161c19169055388080612fa6565b9192602060018192868b015181550194019201612f91565b602081016020825282518091526040820191602060408360051b8301019401926000915b83831061301457505050505090565b9091929394602080613057600193603f19868203018752606060408b5163ffffffff815116845261ffff86820151168685015201519181604082015201906103ca565b97019301930191939290613005565b60005b81518110156130f6578061308c604061308460019486612eaa565b51015161312d565b6130f0604061309b8386612eaa565b51015163ffffffff6130ad8487612eaa565b51511660005260036020526130eb60406000206130d960206130cf878a612eaa565b51015161ffff1690565b61ffff16600052602052604060002090565b612f10565b01613069565b506131287fbe4864a8e820971c0247f5992e2da559595f7bf076a21cb5928d443d2a13b6749160405191829182612fe1565b0390a1565b600361ffff600283015116036131405750565b604051639a6d49cd60e01b815260206004820152908190611b479060248301906103ca565b60409060231901126103a2576040519061317e82611043565b60243582526044356020830152565b906020116103a2573590565b9060009060281161078e57506020013560c01c90565b610400906001600160401b037f000000000000000000000000000000000000000000000000000000000000000091166121f6565b816001600160a01b038216156131fd575b61040091612b4f565b61dead91506131f4565b91906000928160281161322a57919250610400913691602719019060280161225e565b8380fd5b604c9193610400936040519586936001600160401b0360c01b9060c01b16602085015263ffffffff60e01b9060e01b166028840152602c83015261327b81518092602086860191016103a7565b81010301601f19810183528261107e565b600e546801000000000000000081101561105e5760018101600e556000600e548210156121a257600e90527fbb7b4a454dc3493923482f07822329ed19e8244eff582cc204f8554c3620c3fd0180546001600160a01b0319166001600160a01b03909216919091179055565b156132ff57565b60405162461bcd60e51b8152602060048201526013602482015272151c98591a5b99c81b9bdd08195b98589b1959606a1b6044820152606490fd5b1561334157565b60405162461bcd60e51b815260206004820152601e60248201527f4d61782077616c6c65742070657263656e7461676520657863656564656400006044820152606490fd5b6001600160a01b038116918215919082159081613449575b50613424575b5060ff600c5416918215613403575b5081156133e4575b81156133dc575b5080156133d3575b610597906132f8565b503330146133ca565b9050386133c2565b6000549091506133fc906001600160a01b0316610801565b15906133bb565b6000549192509061341c906001600160a01b0316610801565b1490386133b3565b6001600160a01b03166000908152600d60205260409020805460ff19169055386133a4565b6001600160a01b0383166000908152600560205260409020541490503861339e565b6001600160a01b0382168015159190828061361d575b6135ee575b6001600160a01b03821680158015939192909184806135cd575b6135a8575b50600c5460ff16928315613587575b508215613566575b50811561355e575b508015613555575b6134d5906132f8565b8161354d575b5080613522575b6134ea575050565b612c4661059792612c40613506612c1a600754600a54906121f6565b6001600160a01b03909416600090815260056020526040902090565b506001600160a01b0381166000908152600b6020526040902061354890611ba790612c74565b6134e2565b9050386134db565b503330146134cc565b9050386134c4565b6000549192509061357f906001600160a01b0316610801565b1490386134bc565b600054919350906135a0906001600160a01b0316610801565b1491386134b4565b6001600160a01b03166000908152600d60205260409020805460ff19169055386134a5565b506001600160a01b03811660009081526005602052604090205488146134a0565b6001600160a01b0384166000908152600d6020526040902061360f90612cec565b6136188461328c565b613486565b506001600160a01b0384166000908152600d6020526040902061364390611ba790612c74565b613481565b82511580159390613696576136939160689160405194859260208401526001600160401b0360c01b9060c01b16604083015233604883015261327b81518092602086860191016103a7565b91565b50906040519160208301526001600160401b0360c01b9060c01b1660408201526028815261369360488261107e565b906080828203126103a2576136ff9060408051936136e285611063565b8051855260208101516136f48161241c565b602086015201612aa5565b604082015290565b61376460809492613780969461371b612511565b50602061372886516137f8565b9501918251806137e9575b5061373d856126c3565b925115159261374d610d58612105565b602086015260408501526060840152151585830152565b6040518095819482936302637a4560e41b845260048401612ae1565b03917f00000000000000000000000000000000000000000000000000000000000000006001600160a01b03165af1908115610973576000916137c0575090565b610400915060803d6080116137e2575b6137da818361107e565b8101906136c5565b503d6137d0565b6137f290613817565b38613733565b8034036138025790565b6304fb820960e51b6000523460045260246000fd5b60405163393f876560e21b81527f00000000000000000000000000000000000000000000000000000000000000006001600160a01b03169190602081600481865afa90811561097357600091613895575b506001600160a01b0316918215613884576105979233906138d0565b6329b99a9560e11b60005260046000fd5b90506020813d6020116138c8575b816138b06020938361107e565b810103126103a257516138c2816104e0565b38613868565b3d91506138a3565b6040516323b872dd60e01b602082019081526001600160a01b03938416602483015293909216604483015260648083019490945292815261059792613992929061391b60848461107e565b60018060a01b0316600080604093845195613936868861107e565b602087527f5361666545524332303a206c6f772d6c6576656c2063616c6c206661696c65646020880152519082855af1903d156139c0573d61398361397a82612243565b9451948561107e565b83523d6000602085013e613a28565b80519081159182156139a6575b50506139c9565b6139b9925060208091830101910161295b565b388061399f565b60609250613a28565b156139d057565b60405162461bcd60e51b815260206004820152602a60248201527f5361666545524332303a204552433230206f7065726174696f6e20646964206e6044820152691bdd081cdd58d8d9595960b21b6064820152608490fd5b91929015613a8a5750815115613a3c575090565b3b15613a455790565b60405162461bcd60e51b815260206004820152601d60248201527f416464726573733a2063616c6c20746f206e6f6e2d636f6e74726163740000006044820152606490fd5b825190915015613a9d5750805190602001fd5b60405162461bcd60e51b8152908190611b4790600483016103ef56fea2646970667358221220bfc18e453c9c1ff494428b2fec072fedbcc4f0776a02603fe58c4de232a796b064736f6c634300081b0033a2646970667358221220b4bcea0076c7edeb02035373093a92e0c815753d590866b06a7324a160bc909564736f6c634300081b0033",
  "linkReferences": {},
  "deployedLinkReferences": {}
}