{
  "_format": "hh-sol-artifact-1",
  "contractName": "Shadow",
  "sourceName": "contracts/Shadow.sol",
  "abi": [
    {
      "inputs": [
        {
          "internalType": "address",
          "name": "owner_",
          "type": "address"
        },
        {
          "internalType": "address",
          "name": "wallet0_",
          "type": "address"
        },
        {
          "internalType": "address",
          "name": "wallet1_",
          "type": "address"
        },
        {
          "internalType": "address",
          "name": "wallet2_",
          "type": "address"
        },
        {
          "internalType": "address",
          "name": "shadowWhitelist_",
          "type": "address"
        },
        {
          "internalType": "address",
          "name": "shadowStacking_",
          "type": "address"
        }
      ],
      "stateMutability": "nonpayable",
      "type": "constructor"
    },
    {
      "inputs": [
        {
          "internalType": "address",
          "name": "owner",
          "type": "address"
        }
      ],
      "name": "OwnableInvalidOwner",
      "type": "error"
    },
    {
      "inputs": [
        {
          "internalType": "address",
          "name": "account",
          "type": "address"
        }
      ],
      "name": "OwnableUnauthorizedAccount",
      "type": "error"
    },
    {
      "anonymous": false,
      "inputs": [
        {
          "indexed": false,
          "internalType": "uint256",
          "name": "newFee",
          "type": "uint256"
        }
      ],
      "name": "DeploymentFeeUpdated",
      "type": "event"
    },
    {
      "anonymous": false,
      "inputs": [
        {
          "indexed": false,
          "internalType": "uint256",
          "name": "tokenId",
          "type": "uint256"
        },
        {
          "indexed": false,
          "internalType": "uint256",
          "name": "amount0",
          "type": "uint256"
        },
        {
          "indexed": false,
          "internalType": "uint256",
          "name": "amount1",
          "type": "uint256"
        }
      ],
      "name": "FeesCollected",
      "type": "event"
    },
    {
      "anonymous": false,
      "inputs": [
        {
          "indexed": true,
          "internalType": "address",
          "name": "previousOwner",
          "type": "address"
        },
        {
          "indexed": true,
          "internalType": "address",
          "name": "newOwner",
          "type": "address"
        }
      ],
      "name": "OwnershipTransferred",
      "type": "event"
    },
    {
      "anonymous": false,
      "inputs": [
        {
          "indexed": false,
          "internalType": "uint256",
          "name": "oldFee",
          "type": "uint256"
        },
        {
          "indexed": false,
          "internalType": "uint256",
          "name": "newFee",
          "type": "uint256"
        }
      ],
      "name": "ShadowDeploymentFeeUpdated",
      "type": "event"
    },
    {
      "anonymous": false,
      "inputs": [
        {
          "indexed": false,
          "internalType": "address",
          "name": "oldRecipient",
          "type": "address"
        },
        {
          "indexed": false,
          "internalType": "address",
          "name": "newRecipient",
          "type": "address"
        }
      ],
      "name": "ShadowFeeRecipientUpdated",
      "type": "event"
    },
    {
      "anonymous": false,
      "inputs": [
        {
          "indexed": false,
          "internalType": "bool",
          "name": "enabled",
          "type": "bool"
        }
      ],
      "name": "ShadowTokenEnabled",
      "type": "event"
    },
    {
      "anonymous": false,
      "inputs": [
        {
          "indexed": false,
          "internalType": "address",
          "name": "tokenAddress",
          "type": "address"
        },
        {
          "indexed": false,
          "internalType": "uint256",
          "name": "lpNftId",
          "type": "uint256"
        },
        {
          "indexed": false,
          "internalType": "address",
          "name": "deployer",
          "type": "address"
        },
        {
          "indexed": false,
          "internalType": "string",
          "name": "name",
          "type": "string"
        },
        {
          "indexed": false,
          "internalType": "string",
          "name": "symbol",
          "type": "string"
        },
        {
          "indexed": false,
          "internalType": "uint256",
          "name": "supply",
          "type": "uint256"
        }
      ],
      "name": "TokenCreated",
      "type": "event"
    },
    {
      "inputs": [],
      "name": "QUOTER",
      "outputs": [
        {
          "internalType": "address",
          "name": "",
          "type": "address"
        }
      ],
      "stateMutability": "view",
      "type": "function"
    },
    {
      "inputs": [],
      "name": "REWARD_PERCENTAGE",
      "outputs": [
        {
          "internalType": "uint256",
          "name": "",
          "type": "uint256"
        }
      ],
      "stateMutability": "view",
      "type": "function"
    },
    {
      "inputs": [],
      "name": "SHADOW_BASE_POOL",
      "outputs": [
        {
          "internalType": "address",
          "name": "",
          "type": "address"
        }
      ],
      "stateMutability": "view",
      "type": "function"
    },
    {
      "inputs": [
        {
          "internalType": "uint256",
          "name": "",
          "type": "uint256"
        }
      ],
      "name": "TokenIdToRewardAddress",
      "outputs": [
        {
          "internalType": "address",
          "name": "",
          "type": "address"
        }
      ],
      "stateMutability": "view",
      "type": "function"
    },
    {
      "inputs": [],
      "name": "WAVAX",
      "outputs": [
        {
          "internalType": "address",
          "name": "",
          "type": "address"
        }
      ],
      "stateMutability": "view",
      "type": "function"
    },
    {
      "inputs": [
        {
          "internalType": "uint256",
          "name": "tokenSupply",
          "type": "uint256"
        },
        {
          "internalType": "uint256",
          "name": "liquidityInWAVAX",
          "type": "uint256"
        },
        {
          "internalType": "uint256",
          "name": "shadowWAVAXPrice",
          "type": "uint256"
        }
      ],
      "name": "calculatePriceTokenShadow",
      "outputs": [
        {
          "internalType": "uint256",
          "name": "",
          "type": "uint256"
        }
      ],
      "stateMutability": "pure",
      "type": "function"
    },
    {
      "inputs": [
        {
          "internalType": "address",
          "name": "deployer",
          "type": "address"
        }
      ],
      "name": "canDeploy",
      "outputs": [
        {
          "internalType": "bool",
          "name": "",
          "type": "bool"
        }
      ],
      "stateMutability": "pure",
      "type": "function"
    },
    {
      "inputs": [],
      "name": "collectAllUniswapFees",
      "outputs": [],
      "stateMutability": "nonpayable",
      "type": "function"
    },
    {
      "inputs": [],
      "name": "defaultLockingPeriod",
      "outputs": [
        {
          "internalType": "uint64",
          "name": "",
          "type": "uint64"
        }
      ],
      "stateMutability": "view",
      "type": "function"
    },
    {
      "inputs": [
        {
          "internalType": "string",
          "name": "name",
          "type": "string"
        },
        {
          "internalType": "string",
          "name": "symbol",
          "type": "string"
        },
        {
          "internalType": "uint256",
          "name": "supply",
          "type": "uint256"
        },
        {
          "internalType": "uint256",
          "name": "liquidity",
          "type": "uint256"
        },
        {
          "internalType": "uint24",
          "name": "fee",
          "type": "uint24"
        },
        {
          "internalType": "bytes32",
          "name": "salt",
          "type": "bytes32"
        },
        {
          "internalType": "address",
          "name": "deployer",
          "type": "address"
        },
        {
          "internalType": "uint256",
          "name": "maxWalletPercentage",
          "type": "uint256"
        },
        {
          "internalType": "bool",
          "name": "featured",
          "type": "bool"
        }
      ],
      "name": "deployToken",
      "outputs": [],
      "stateMutability": "payable",
      "type": "function"
    },
    {
      "inputs": [],
      "name": "deploymentFee",
      "outputs": [
        {
          "internalType": "uint256",
          "name": "",
          "type": "uint256"
        }
      ],
      "stateMutability": "view",
      "type": "function"
    },
    {
      "inputs": [
        {
          "internalType": "address",
          "name": "",
          "type": "address"
        },
        {
          "internalType": "uint256",
          "name": "",
          "type": "uint256"
        }
      ],
      "name": "featuredToken",
      "outputs": [
        {
          "internalType": "address",
          "name": "",
          "type": "address"
        }
      ],
      "stateMutability": "view",
      "type": "function"
    },
    {
      "inputs": [],
      "name": "feeDistributor",
      "outputs": [
        {
          "internalType": "contract FeeDistributor",
          "name": "",
          "type": "address"
        }
      ],
      "stateMutability": "view",
      "type": "function"
    },
    {
      "inputs": [
        {
          "internalType": "address",
          "name": "deployer",
          "type": "address"
        },
        {
          "internalType": "string",
          "name": "name",
          "type": "string"
        },
        {
          "internalType": "string",
          "name": "symbol",
          "type": "string"
        },
        {
          "internalType": "uint256",
          "name": "supply",
          "type": "uint256"
        },
        {
          "internalType": "uint256",
          "name": "maxWalletPercentage",
          "type": "uint256"
        },
        {
          "internalType": "bool",
          "name": "featured",
          "type": "bool"
        }
      ],
      "name": "generateSalt",
      "outputs": [
        {
          "internalType": "bytes32",
          "name": "salt",
          "type": "bytes32"
        },
        {
          "internalType": "address",
          "name": "token",
          "type": "address"
        }
      ],
      "stateMutability": "view",
      "type": "function"
    },
    {
      "inputs": [],
      "name": "getShadowDeploymentFee",
      "outputs": [
        {
          "internalType": "uint256",
          "name": "",
          "type": "uint256"
        }
      ],
      "stateMutability": "view",
      "type": "function"
    },
    {
      "inputs": [],
      "name": "getShadowTokenInfo",
      "outputs": [
        {
          "internalType": "address",
          "name": "tokenAddress",
          "type": "address"
        },
        {
          "internalType": "address",
          "name": "feeRecipient",
          "type": "address"
        },
        {
          "internalType": "uint256",
          "name": "currentFee",
          "type": "uint256"
        },
        {
          "internalType": "bool",
          "name": "isEnabled",
          "type": "bool"
        },
        {
          "internalType": "uint256",
          "name": "wavaxEquivalent",
          "type": "uint256"
        }
      ],
      "stateMutability": "view",
      "type": "function"
    },
    {
      "inputs": [],
      "name": "getShadowWAVAXPrice",
      "outputs": [
        {
          "internalType": "uint256",
          "name": "",
          "type": "uint256"
        }
      ],
      "stateMutability": "view",
      "type": "function"
    },
    {
      "inputs": [],
      "name": "getVaultAddress",
      "outputs": [
        {
          "internalType": "address",
          "name": "",
          "type": "address"
        }
      ],
      "stateMutability": "view",
      "type": "function"
    },
    {
      "inputs": [],
      "name": "isShadowTokenEnabled",
      "outputs": [
        {
          "internalType": "bool",
          "name": "",
          "type": "bool"
        }
      ],
      "stateMutability": "view",
      "type": "function"
    },
    {
      "inputs": [
        {
          "internalType": "address",
          "name": "",
          "type": "address"
        },
        {
          "internalType": "uint256",
          "name": "",
          "type": "uint256"
        }
      ],
      "name": "nonFeaturedToken",
      "outputs": [
        {
          "internalType": "address",
          "name": "",
          "type": "address"
        }
      ],
      "stateMutability": "view",
      "type": "function"
    },
    {
      "inputs": [],
      "name": "owner",
      "outputs": [
        {
          "internalType": "address",
          "name": "",
          "type": "address"
        }
      ],
      "stateMutability": "view",
      "type": "function"
    },
    {
      "inputs": [],
      "name": "positionManager",
      "outputs": [
        {
          "internalType": "address",
          "name": "",
          "type": "address"
        }
      ],
      "stateMutability": "view",
      "type": "function"
    },
    {
      "inputs": [
        {
          "internalType": "address",
          "name": "deployer",
          "type": "address"
        },
        {
          "internalType": "string",
          "name": "name",
          "type": "string"
        },
        {
          "internalType": "string",
          "name": "symbol",
          "type": "string"
        },
        {
          "internalType": "uint256",
          "name": "supply",
          "type": "uint256"
        },
        {
          "internalType": "bytes32",
          "name": "salt",
          "type": "bytes32"
        },
        {
          "internalType": "uint256",
          "name": "maxWalletPercentage",
          "type": "uint256"
        },
        {
          "internalType": "bool",
          "name": "featured",
          "type": "bool"
        }
      ],
      "name": "predictToken",
      "outputs": [
        {
          "internalType": "address",
          "name": "",
          "type": "address"
        }
      ],
      "stateMutability": "view",
      "type": "function"
    },
    {
      "inputs": [],
      "name": "renounceOwnership",
      "outputs": [],
      "stateMutability": "nonpayable",
      "type": "function"
    },
    {
      "inputs": [
        {
          "internalType": "address",
          "name": "deployer",
          "type": "address"
        }
      ],
      "name": "returnFeaturedToken",
      "outputs": [
        {
          "internalType": "address[]",
          "name": "",
          "type": "address[]"
        }
      ],
      "stateMutability": "view",
      "type": "function"
    },
    {
      "inputs": [
        {
          "internalType": "address",
          "name": "deployer",
          "type": "address"
        }
      ],
      "name": "returnNonFeaturedToken",
      "outputs": [
        {
          "internalType": "address[]",
          "name": "",
          "type": "address[]"
        }
      ],
      "stateMutability": "view",
      "type": "function"
    },
    {
      "inputs": [
        {
          "internalType": "address",
          "name": "pool",
          "type": "address"
        }
      ],
      "name": "setShadowBasePool",
      "outputs": [],
      "stateMutability": "nonpayable",
      "type": "function"
    },
    {
      "inputs": [
        {
          "internalType": "uint256",
          "name": "newFee",
          "type": "uint256"
        }
      ],
      "name": "setShadowDeploymentFee",
      "outputs": [],
      "stateMutability": "nonpayable",
      "type": "function"
    },
    {
      "inputs": [
        {
          "internalType": "address",
          "name": "_newRecipient",
          "type": "address"
        }
      ],
      "name": "setShadowFeeRecipient",
      "outputs": [],
      "stateMutability": "nonpayable",
      "type": "function"
    },
    {
      "inputs": [
        {
          "internalType": "address",
          "name": "_newShadowToken",
          "type": "address"
        }
      ],
      "name": "setShadowToken",
      "outputs": [],
      "stateMutability": "nonpayable",
      "type": "function"
    },
    {
      "inputs": [
        {
          "internalType": "address",
          "name": "_vaultAddress",
          "type": "address"
        }
      ],
      "name": "setVaultAddress",
      "outputs": [],
      "stateMutability": "nonpayable",
      "type": "function"
    },
    {
      "inputs": [],
      "name": "shadowDeploymentFee",
      "outputs": [
        {
          "internalType": "uint256",
          "name": "",
          "type": "uint256"
        }
      ],
      "stateMutability": "view",
      "type": "function"
    },
    {
      "inputs": [],
      "name": "shadowFeeRecipient",
      "outputs": [
        {
          "internalType": "address",
          "name": "",
          "type": "address"
        }
      ],
      "stateMutability": "view",
      "type": "function"
    },
    {
      "inputs": [],
      "name": "shadowToken",
      "outputs": [
        {
          "internalType": "address",
          "name": "",
          "type": "address"
        }
      ],
      "stateMutability": "view",
      "type": "function"
    },
    {
      "inputs": [],
      "name": "swapRouter",
      "outputs": [
        {
          "internalType": "address",
          "name": "",
          "type": "address"
        }
      ],
      "stateMutability": "view",
      "type": "function"
    },
    {
      "inputs": [
        {
          "internalType": "address",
          "name": "",
          "type": "address"
        },
        {
          "internalType": "uint256",
          "name": "",
          "type": "uint256"
        }
      ],
      "name": "tokenPositions",
      "outputs": [
        {
          "internalType": "uint256",
          "name": "",
          "type": "uint256"
        }
      ],
      "stateMutability": "view",
      "type": "function"
    },
    {
      "inputs": [
        {
          "internalType": "address",
          "name": "newOwner",
          "type": "address"
        }
      ],
      "name": "transferOwnership",
      "outputs": [],
      "stateMutability": "nonpayable",
      "type": "function"
    },
    {
      "inputs": [],
      "name": "uniswapV3Factory",
      "outputs": [
        {
          "internalType": "address",
          "name": "",
          "type": "address"
        }
      ],
      "stateMutability": "view",
      "type": "function"
    },
    {
      "inputs": [],
      "name": "vaultAddress",
      "outputs": [
        {
          "internalType": "address",
          "name": "",
          "type": "address"
        }
      ],
      "stateMutability": "view",
      "type": "function"
    },
    {
      "inputs": [],
      "name": "whitelist",
      "outputs": [
        {
          "internalType": "contract ShadowWhitelist",
          "name": "",
          "type": "address"
        }
      ],
      "stateMutability": "view",
      "type": "function"
    }
  ],
  "bytecode": "0x610120346103ac57601f61680d38819003918201601f19168301916001600160401b038311848410176102df5780849260c0946040528339810103126103ac57610048816103b1565b90610055602082016103b1565b610061604083016103b1565b9061006e606084016103b1565b9161008760a0610080608087016103b1565b95016103b1565b946001600160a01b031691821561039657600054604051938060018060a01b0383167f8be0079c531659141344cd1fd0a4f28419497f9722a3daafe3b4186f6b6457e0600080a36001600160e01b0319909116176407bf59f7c560a01b1760005573740b1c1de25031c31ff4fc9a62f554a55cdc1bad60805273655c406ebfa14ee2006250925e54ec43ad184f8b60a05273bb00ff08d01d300023c629e8ffffcb65a5a578ce60c05273b31f66aa3c1e785363f0875a1b74e27b85fd66c760e05273be0f5544ec67e9b3b2d979aaa43f18fd87e6257f61010052600f600355655af3107a40006004556001600160a01b031691821561036357506001600160a01b031691821561032c576001600160a01b031680156102f557604051926107a791828501916001600160401b038311868410176102df57606094869461606686398352602083015260408201520301906000f080156102d357600680546001600160a01b03199081166001600160a01b03938416179091556008805482169383169390931790925560028054831693909116929092179091556009805490911661dead179055604051615ca090816103c68239608051818181610eca01528181610ff7015281816111cb0152818161210101528181612d29015261358d015260a0518181816108b801528181610c9a015281816112740152818161144a0152818161147d015281816114d70152611545015260c05181818161048d01526115f3015260e05181818161176001528181612c19015261355201526101005181818161070101526119130152f35b6040513d6000823e3d90fd5b634e487b7160e01b600052604160045260246000fd5b60405162461bcd60e51b815260206004820152600f60248201526e24b73b30b634b2103bb0b63632ba1960891b6044820152606490fd5b60405162461bcd60e51b815260206004820152600f60248201526e496e76616c69642077616c6c65743160881b6044820152606490fd5b62461bcd60e51b815260206004820152600e60248201526d125b9d985b1a59081dd85b1b195d60921b6044820152606490fd5b631e4fbdf760e01b600052600060045260246000fd5b600080fd5b51906001600160a01b03821682036103ac5756fe608080604052600436101561001357600080fd5b600090813560e01c9081630a01020314612fec575080630d43e8ad14612fc357806318736b8514612e8957806337df334914612e37578063418d16ce14612e12578063430bf08a14612cea57806356893ea614612d87578063569e0d2914612d585780635b54918214612d1357806365cacaa414612cea5780636d748bea14612ca2578063715018a614612c4857806373b295c214612c0357806374cf048b14610cc9578063791b98bc14610c845780638053557c146108a357806381242c3e1461087057806384f526931461083057806385535cc5146107f05780638a84a0b5146107ad5780638bbdfc34146107575780638da5cb5b146107305780638dae88c2146106eb57806393e59dc1146106c2578063a709d5ea14610699578063be9a6aaa146105cd578063bf62413a14610513578063c0dd7cd5146104bc578063c31c9c0714610477578063d406d7511461044e578063d92c268a14610428578063e32a133a1461038e578063e6dc26ed14610365578063f05b25631461034a578063f2cff57f1461032c578063f2fde38b146102a6578063f48b6d2514610245578063f89d73ef14610222578063fc72b1ed146102045763ffc5d97a146101d957600080fd5b346102015780600319360112610201576001546040516001600160a01b039091168152602090f35b80fd5b50346102015780600319360112610201576020600354604051908152f35b5034610201578060031936011261020157602061023d61376f565b604051908152f35b50346102015760403660031901126102015761025f613063565b6001600160a01b03168152600b602052604081208054602435929083101561020157602061028d84846130e9565b905460405160039290921b1c6001600160a01b03168152f35b5034610201576020366003190112610201576102c0613063565b6102c8613811565b6001600160a01b031680156103185781546001600160a01b03198116821783556001600160a01b03167f8be0079c531659141344cd1fd0a4f28419497f9722a3daafe3b4186f6b6457e08380a380f35b631e4fbdf760e01b82526004829052602482fd5b50346102015780600319360112610201576020600454604051908152f35b5034610201578060031936011261020157602061023d613530565b50346102015780600319360112610201576009546040516001600160a01b039091168152602090f35b50346102015760e0366003190112610201576103a8613063565b6024356001600160401b038111610424576103c79036906004016130bc565b916044356001600160401b038111610420576103e79036906004016130bc565b9060c43595861515870361020157602061040e8860a43560843560643588888d8d8d613426565b6040516001600160a01b039091168152f35b8480fd5b8280fd5b5034610201578060031936011261020157602060ff60015460a01c166040519015158152f35b50346102015780600319360112610201576001600160401b036020915460a01c16604051908152f35b50346102015780600319360112610201576040517f00000000000000000000000000000000000000000000000000000000000000006001600160a01b03168152602090f35b5034610201576040366003190112610201576104d6613063565b6001600160a01b03168152600c602052604081208054602435929083101561020157602061050484846130e9565b90549060031b1c604051908152f35b50346102015760203660031901126102015761052d613063565b610535613811565b6001600160a01b031680156105945760407f79c0c28004fd714bc9df801545ad662e3c2067ce4270979d407b9d7cd1202ced9160095490806001600160601b0360a01b83161760095582519160018060a01b031682526020820152a180f35b60405162461bcd60e51b8152602060048201526011602482015270125b9d985b1a59081c9958da5c1a595b9d607a1b6044820152606490fd5b5034610201576020366003190112610201576105e7613063565b6105ef613811565b6001600160a01b0316801561066457602060ff7f3ab828a6d0d25d703cbb6e0bae5376f9d30b526f0fb3cb2b988e212a1d809c3d92600160a01b906affffffffffffffffffffff60a81b6001541617178060015560a01c1680610659575b6040519015158152a180f35b60045460055561064d565b60405162461bcd60e51b815260206004820152600d60248201526c24b73b30b634b2103a37b5b2b760991b6044820152606490fd5b5034610201578060031936011261020157600d546040516001600160a01b039091168152602090f35b50346102015780600319360112610201576008546040516001600160a01b039091168152602090f35b50346102015780600319360112610201576040517f00000000000000000000000000000000000000000000000000000000000000006001600160a01b03168152602090f35b5034610201578060031936011261020157546040516001600160a01b039091168152602090f35b5034610201576020366003190112610201577fb61654458bbd592aa228ef5fb359cfe5371f93092cf1f40506473771fdb9a5576040600435610797613811565b600554908060055582519182526020820152a180f35b50346102015780600319360112610201576107e36001546107d360ff8260a01c16613169565b6001600160a01b031615156131a8565b6020600554604051908152f35b50346102015760203660031901126102015761080a613063565b610812613811565b60018060a01b03166001600160601b0360a01b600254161760025580f35b50346102015760203660031901126102015761084a613063565b610852613811565b60018060a01b03166001600160601b0360a01b600d541617600d5580f35b503461020157602036600319011261020157602090600435815260078252604060018060a01b0391205416604051908152f35b503461020157806003193601126102015780807f00000000000000000000000000000000000000000000000000000000000000006001600160a01b0316815b338452600c6020526040842054811015610c8057338452600c60205261090b81604086206130e9565b90549060031b1c6040516331a9108f60e11b8152816004820152602081602481875afa908115610c28578691610c47575b506001600160a01b03163014610956575b506001016108e2565b6040519593608087016001600160401b03811188821017610c3357604090815282885230602089019081526001600160801b0389830181815260608b01828152845163fc6f786560e01b81529b5160048d015292516001600160a01b031660248c015251811660448b015290511660648901528760848189885af1908115610c285786978792610be6575b50816109f0896109f693613305565b96613305565b9681610a3d575b600193927fa54e6c2fc0861aa9c991b26891d71059d517983b9e84b91020f42609c452eb9d9260609260405192835260208301526040820152a19061094d565b6064610a4b60035484613413565b0483885260076020528060018060a01b0360408a20541680610b56575b5050600154600654918403916001600160a01b039182169116848311610b425760405163a9059cbb60e01b81526001600160a01b039190911660048201526024810192909252602090829060449082908c905af18015610b3757610acd575b506109fd565b6020813d8211610b2f575b81610ae560209383613148565b81010312610b2b57927fa54e6c2fc0861aa9c991b26891d71059d517983b9e84b91020f42609c452eb9d92606092610b1f600197966131e4565b50925092509293610ac7565b8780fd5b3d9150610ad8565b6040513d8a823e3d90fd5b634e487b7160e01b8a52601160045260248afd5b60015460405163a9059cbb60e01b81526001600160a01b0392831660048201526024810193909352602091839160449183918e91165af18015610bdb57610b9f575b8190610a68565b6020813d8211610bd3575b81610bb760209383613148565b81010312610bcf57610bc8906131e4565b5038610b98565b8880fd5b3d9150610baa565b6040513d8b823e3d90fd5b915096506040813d8211610c20575b81610c0260409383613148565b81010312610c1c57805160209091015190966109f66109e1565b8580fd5b3d9150610bf5565b6040513d88823e3d90fd5b634e487b7160e01b87526041600452602487fd5b90506020813d8211610c78575b81610c6160209383613148565b81010312610c1c57610c72906132f1565b3861093c565b3d9150610c54565b8380f35b50346102015780600319360112610201576040517f00000000000000000000000000000000000000000000000000000000000000006001600160a01b03168152602090f35b50610120366003190112610201576004356001600160401b03811161204957610cf69036906004016130bc565b6024356001600160401b038111611af557610d159036906004016130bc565b91909262ffffff60843516608435036104205760c435926001600160a01b0384168403610c1c5761010435948515158603611beb57600154610d5c60ff8260a01c16613169565b6001600160a01b0316610d708115156131a8565b6005548015612bd0576009546001600160a01b0316908115612b975760646020928b60405195869485936323b872dd60e01b8552336004860152602485015260448401525af18015610b3757612b60575b5060443515612b2e576001600160a01b03851615612af6578315612ac2578115612a8c576101f462ffffff60843516148015612a7a575b8015612a68575b15612a35576040519380846020870137610e3c600a6020878481016920627920536861646f7760b01b838201520301601519810188520186613148565b610e5d610e47613530565b610e528115156131f1565b606435604435613789565b95610e698715156131f1565b60405196635f1282d760e11b8852600488015260208760248173__$e02074b1f9eeb976d6d8fd3b2944d7d6c9$__5af4968715610bdb5789976129f9575b506040516322afcccb60e01b815260843562ffffff1660048201526020816024817f00000000000000000000000000000000000000000000000000000000000000006001600160a01b03165afa908115611eef578a916129bf575b5060020b9586156129ab5786620d89e80796627fffff8860020b620d89e80313627fffff198960020b620d89e8031217611fa3578860020b81810760020b61297c575b5050600854604051906001600160a01b03166001600160401b03612430830190811190831117611f8f57610f968b839261243061383b853960a435958760e435918c8c604435926124308a0161327b565b03908bf5958615610bdb576001546001600160a01b0390811690881681111561294657604051630b4c774160e11b81526001600160a01b03808a1660048301528216602482015262ffffff60843516604482015290602082806064810103817f00000000000000000000000000000000000000000000000000000000000000006001600160a01b03165afa918215611dfb578c9261290a575b50818c8b60020b126000146129015760028b900b600160ff1b146128ed578a60020b8d035b620d89e881116128c4578d928b9160018116156128b1578d6001600160881b036ffffcb933bd6fad37aa2d162d1a5940015b169160028116612858575b600481166127ff575b600881166127a6575b6010811661274d575b602081166126f4575b6040811661269b575b60808116612642575b61010081166125e9575b6102008116612590575b6104008116612537575b61080081166124de575b6110008116612485575b612000811661242c575b61400081166123d3575b618000811661237a575b620100008116612321575b6202000081166122cb575b620400008116612263575b6208000016612206575b859060020b136121d9575b63ffffffff81166121ce5761117385915b6001600160a01b039260ff169060201c613305565b16926001600160a01b0316156120c1575b50600154604051630b4c774160e11b81526001600160a01b0392831660048201529116602482015262ffffff608435166044820152929150602090508280606481015b03817f00000000000000000000000000000000000000000000000000000000000000006001600160a01b03165afa918215611dfb578c92612085575b506001600160a01b03908116911681900361204d578a906001600160a01b0389163b156120495760405163e9e15b4f60e01b815260048101919091528181602481836001600160a01b038e165af18015611af957612034575b5060405163095ea7b360e01b81526001600160a01b037f0000000000000000000000000000000000000000000000000000000000000000811660048301526000196024830152909160209183916044918391908d165af18015611ff257611ffd575b5060405163a9059cbb60e01b81523060048201526044803560248301526020908290818e6001600160a01b038d165af18015611ff257611fb7575b506001546001600160a01b03169742603c810110611fa35760405198896101608101106001600160401b036101608c011117611f8f576101608a0160405260018060a01b0389168a5260208a015262ffffff6084351660408a015260020b606089015260020b620d89e80360020b608088015260443560a08801528860c08801528860e08801528861010088015230610120880152603c420161014088015261014060405197634418b22b60e11b895260018060a01b0381511660048a015260018060a01b0360208201511660248a015262ffffff60408201511660448a0152606081015160020b60648a0152608081015160020b60848a015260a081015160a48a015260c081015160c48a015260e081015160e48a01526101008101516101048a015260018060a01b03610120820151166101248a01520151610144880152608087610164818c60018060a01b037f0000000000000000000000000000000000000000000000000000000000000000165af1968715610bdb578997611f46575b507f00000000000000000000000000000000000000000000000000000000000000006001600160a01b03163b15610bcf57604051632142170760e11b815230600482015261dead60248201526044810188905289908181606481837f00000000000000000000000000000000000000000000000000000000000000006001600160a01b03165af18015611af957611f31575b50506001600160a01b0386168952600c6020526040892061152e9088906133de565b60405163095ea7b360e01b81526001600160a01b037f0000000000000000000000000000000000000000000000000000000000000000811660048301526000196024830152602090829060449082908e908c165af18015611eef57611efa575b506001546040516323b872dd60e01b815233600482015230602482015267016345785d8a0000604482015290602090829060649082908e906001600160a01b03165af1908115611eef578a91611eb1575b5015611e7a5760018060a01b0360015416937f000000000000000000000000000000000000000000000000000000000000000095604460208c6040519283809263095ea7b360e01b825260018060a01b038d169b8c600484015267016345785d8a000060248401525af1908115611dfb578c91611e3c575b5015611e06576001546040516116d591602091906001600160a01b031661167d82613117565b815260018060a01b038b168282015262ffffff60843516604082015230606082015267016345785d8a000060808201528d60a08201528d60c08201528d60405180809581946304e45aaf60e01b835260048301613328565b03918b5af18015611dfb57611dc3575b5093611753916117457fae192e3639c2bce94f3b02286a9faac1f9c9f7793fdca18b5dda20b70d728f0d9660405196879660018060a01b038d1688528d602089015260018060a01b0316604088015260c0606088015260c087019161325a565b91848303608086015261325a565b60443560a08301520390a17f00000000000000000000000000000000000000000000000000000000000000006001600160a01b031690813b15611beb57604051630d0e30db60e41b81528790818160048134885af18015611af957611dae575b505060405163095ea7b360e01b81526001600160a01b03841660048201523460248201526020816044818b875af18015610b3757611d6e575b5060015460405161184d936020926001600160a01b03169061180d83613117565b82528282015261271060408201523060608201523460808201528860a08201528860c0820152604051809481926304e45aaf60e01b835260048301613328565b03818a855af1918215611d63578792611d2f575b50600154604051906001600160a01b031660a082016001600160401b03811183821017611d1b5760405281526020810160018060a01b038616815262ffffff6040830185815260608401908260843516825260808501938c855260405195636352813560e11b875260018060a01b03905116600487015260018060a01b0390511660248601525160448501525116606483015260018060a01b03905116608482015260808160a4818b60018060a01b037f0000000000000000000000000000000000000000000000000000000000000000165af1908115610b37578891611cca575b506005604435041115611c935760015460405163095ea7b360e01b81526001600160a01b0394851660048201526024810184905288949091602091839160449183918991165af18015611c8857611c46575b50600154604051602093611a0593926001600160a01b03166119b683613117565b825260018060a01b0387168583015262ffffff60843516604083015233606083015260808201528460a08201528460c08201526040519485809481936304e45aaf60e01b835260048301613328565b03925af18015611c0757611c12575b506040516384ad987960e01b81528481600481836001600160a01b0387165af18015611c0757611b04575b506001600160a01b0381163b15611af5576040516366fd95a760e11b815284908181600481836001600160a01b0388165af18015611af957611ae0575b5050611ab992600014611abc57338452600a60205260408420611aa8916001600160a01b03169061339d565b338352600c602052604083206133de565b80f35b338452600b60205260408420611adb916001600160a01b03169061339d565b611aa8565b81611aea91613148565b611af5578338611a7c565b8380fd5b6040513d84823e3d90fd5b3d8086833e611b138183613148565b810190604081830312610c1c5780516001600160401b038111611beb57810182601f82011215611beb578051602080611b4b83613386565b611b586040519182613148565b838152019160051b83010191848311610bcf57602001905b828210611bef575050506020810151906001600160401b038211611beb570181601f82011215610c1c57805190602080611ba984613386565b611bb66040519182613148565b848152019260051b820101928311611beb57602001905b828210611bdb575050611a3f565b8151815260209182019101611bcd565b8680fd5b60208091611bfc846132f1565b815201910190611b70565b6040513d87823e3d90fd5b6020813d602011611c3e575b81611c2b60209383613148565b81010312611c395751611a14565b600080fd5b3d9150611c1e565b906020823d602011611c80575b81611c6060209383613148565b81010312611af557602092611c77611a05936131e4565b50925090611995565b3d9150611c53565b6040513d86823e3d90fd5b60405162461bcd60e51b815260206004820152600f60248201526e466972737420627579203c2032302560881b6044820152606490fd5b90506080813d608011611d13575b81611ce560809383613148565b81010312610b2b576040815191611cfe602082016132f1565b50015163ffffffff811603610b2b5738611943565b3d9150611cd8565b634e487b7160e01b8a52604160045260248afd5b9091506020813d602011611d5b575b81611d4b60209383613148565b81010312611c3957519038611861565b3d9150611d3e565b6040513d89823e3d90fd5b6020813d602011611da6575b81611d8760209383613148565b81010312610b2b5761184d92611d9e6020926131e4565b5092506117ec565b3d9150611d7a565b81611db891613148565b611beb5786386117b3565b9490916020863d602011611df3575b81611ddf60209383613148565b81010312611c3957909450906117536116e5565b3d9150611dd2565b6040513d8e823e3d90fd5b60405162461bcd60e51b815260206004820152600e60248201526d105c1c1c9bdd994819985a5b195960921b6044820152606490fd5b90506020813d602011611e72575b81611e5760209383613148565b81010312611e6e57611e68906131e4565b38611657565b8b80fd5b3d9150611e4a565b60405162461bcd60e51b815260206004820152600f60248201526e151c985b9cd9995c8819985a5b1959608a1b6044820152606490fd5b90506020813d602011611ee7575b81611ecc60209383613148565b81010312611ee357611edd906131e4565b386115df565b8980fd5b3d9150611ebf565b6040513d8c823e3d90fd5b6020813d602011611f29575b81611f1360209383613148565b81010312611ee357611f24906131e4565b61158e565b3d9150611f06565b81611f3b91613148565b610bcf57883861150c565b9096506080813d608011611f87575b81611f6260809383613148565b81010312610bcf57602081519101516001600160801b03811603610bcf57953861147a565b3d9150611f55565b634e487b7160e01b8c52604160045260248cfd5b634e487b7160e01b8b52601160045260248bfd5b6020813d602011611fea575b81611fd060209383613148565b81010312611fe657611fe1906131e4565b6112f9565b8a80fd5b3d9150611fc3565b6040513d8d823e3d90fd5b6020813d60201161202c575b8161201660209383613148565b81010312611fe657612027906131e4565b6112be565b3d9150612009565b8161203e91613148565b611ee357893861125c565b5080fd5b60405162461bcd60e51b815260206004820152601060248201526f141bdbdb081b9bdd0818dc99585d195960821b6044820152606490fd5b9091506020813d6020116120b9575b816120a160209383613148565b81010312611e6e576120b2906132f1565b9038611203565b3d9150612094565b60405163a167129560e01b81526001600160a01b0392831660048201529116602482015262ffffff608435166044820152925060208380606481010381857f00000000000000000000000000000000000000000000000000000000000000006001600160a01b03165af1928315611af9578293612192575b506001600160a01b038316803b156104245760248392604051948593849263f637731d60e01b845260048401525af18015611dfb5761217c575b80898d92611184565b9a61218b816111c7939d613148565b9a90612173565b9092506020813d6020116121c6575b816121ae60209383613148565b81010312612049576121bf906132f1565b9138612139565b3d91506121a1565b61117360019161115e565b915091925080156121f2578d92918b916000190461114d565b634e487b7160e01b8e52601260045260248efd5b509150919250806b048a170391f7dc42444e8fa28102046b048a170391f7dc42444e8fa2148115171561224f578d92918b916b048a170391f7dc42444e8fa20260801c8d611142565b634e487b7160e01b8e52601160045260248efd5b93505080919394506d2216e584f5fa1ea926041bedfe988102046d2216e584f5fa1ea926041bedfe9814811517156122b7578e93928c9290916d2216e584f5fa1ea926041bedfe980260801c908e90611138565b634e487b7160e01b8f52601160045260248ffd5b93505080919394506e5d6af8dedb81196699c329225ee6048102046e5d6af8dedb81196699c329225ee60414811517156122b757918b918f94936e5d6af8dedb81196699c329225ee6048f910260801c9161112d565b93505080919394506f09aa508b5b7a84e1c677de54f3e99bc98102046f09aa508b5b7a84e1c677de54f3e99bc914811517156122b757918b918f94936f09aa508b5b7a84e1c677de54f3e99bc98f910260801c91611122565b93505080919394506f31be135f97d08fd981231505542fcfa68102046f31be135f97d08fd981231505542fcfa614811517156122b757918b918f94936f31be135f97d08fd981231505542fcfa68f910260801c91611117565b93505080919394506f70d869a156d2a1b890bb3df62baf32f78102046f70d869a156d2a1b890bb3df62baf32f714811517156122b757918b918f94936f70d869a156d2a1b890bb3df62baf32f78f910260801c9161110d565b93505080919394506fa9f746462d870fdf8a65dc1f90e061e58102046fa9f746462d870fdf8a65dc1f90e061e514811517156122b757918b918f94936fa9f746462d870fdf8a65dc1f90e061e58f910260801c91611103565b93505080919394506fd097f3bdfd2022b8845ad8f792aa58258102046fd097f3bdfd2022b8845ad8f792aa582514811517156122b757918b918f94936fd097f3bdfd2022b8845ad8f792aa58258f910260801c916110f9565b93505080919394506fe7159475a2c29b7443b29c7fa6e889d98102046fe7159475a2c29b7443b29c7fa6e889d914811517156122b757918b918f94936fe7159475a2c29b7443b29c7fa6e889d98f910260801c916110ef565b93505080919394506ff3392b0822b70005940c7a398e4b70f38102046ff3392b0822b70005940c7a398e4b70f314811517156122b757918b918f94936ff3392b0822b70005940c7a398e4b70f38f910260801c916110e5565b93505080919394506ff987a7253ac413176f2b074cf7815e548102046ff987a7253ac413176f2b074cf7815e5414811517156122b757918b918f94936ff987a7253ac413176f2b074cf7815e548f910260801c916110db565b93505080919394506ffcbe86c7900a88aedcffc83b479aa3a48102046ffcbe86c7900a88aedcffc83b479aa3a414811517156122b757918b918f94936ffcbe86c7900a88aedcffc83b479aa3a48f910260801c916110d1565b93505080919394506ffe5dee046a99a2a811c461f1969c30538102046ffe5dee046a99a2a811c461f1969c305314811517156122b757918b918f94936ffe5dee046a99a2a811c461f1969c30538f910260801c916110c7565b93505080919394506fff2ea16466c96a3843ec78b326b528618102046fff2ea16466c96a3843ec78b326b5286114811517156122b757918b918f94936fff2ea16466c96a3843ec78b326b528618f910260801c916110be565b93505080919394506fff973b41fa98c081472e6896dfb254c08102046fff973b41fa98c081472e6896dfb254c014811517156122b757918b918f94936fff973b41fa98c081472e6896dfb254c08f910260801c916110b5565b93505080919394506fffcb9843d60f6159c9db58835c9266448102046fffcb9843d60f6159c9db58835c92664414811517156122b757918b918f94936fffcb9843d60f6159c9db58835c9266448f910260801c916110ac565b93505080919394506fffe5caca7e10e4e61c3624eaa0941cd08102046fffe5caca7e10e4e61c3624eaa0941cd014811517156122b757918b918f94936fffe5caca7e10e4e61c3624eaa0941cd08f910260801c916110a3565b93505080919394506ffff2e50f5f656932ef12357cf3c7fdcc8102046ffff2e50f5f656932ef12357cf3c7fdcc14811517156122b757918b918f94936ffff2e50f5f656932ef12357cf3c7fdcc8f910260801c9161109a565b93505080919394506ffff97272373d413259a46990580e213a8102046ffff97272373d413259a46990580e213a14811517156122b757918b918f94936ffff97272373d413259a46990580e213a8f910260801c91611091565b8d6001600160881b03600160801b611086565b60405162461bcd60e51b81526020600482015260016024820152601560fa1b6044820152606490fd5b634e487b7160e01b8d52601160045260248dfd5b8a60020b611054565b9091506020813d60201161293e575b8161292660209383613148565b81010312611e6e57612937906132f1565b903861102f565b3d9150612919565b60405162461bcd60e51b815260206004820152600e60248201526d546f6b656e203c20534841444f5760901b6044820152606490fd5b91985090627fffff198114600019831416611fa35781900560020b028060020b908103610b4257963880610f45565b634e487b7160e01b8a52601260045260248afd5b90506020813d6020116129f1575b816129da60209383613148565b81010312611ee3576129eb90613229565b38610f02565b3d91506129cd565b9096506020813d602011612a2d575b81612a1560209383613148565b81010312610bcf57612a2690613229565b9538610ea7565b3d9150612a08565b60405162461bcd60e51b815260206004820152600b60248201526a496e76616c69642066656560a81b6044820152606490fd5b5061271062ffffff6084351614610dff565b50610bb862ffffff6084351614610df8565b60405162461bcd60e51b815260206004820152600e60248201526d135a5cdcda5b99c81cde5b589bdb60921b6044820152606490fd5b60405162461bcd60e51b815260206004820152600c60248201526b4d697373696e67206e616d6560a01b6044820152606490fd5b60405162461bcd60e51b815260206004820152601060248201526f24b73b30b634b2103232b83637bcb2b960811b6044820152606490fd5b60405162461bcd60e51b815260206004820152600a602482015269537570706c79203c203160b01b6044820152606490fd5b6020813d602011612b8f575b81612b7960209383613148565b81010312610b2b57612b8a906131e4565b610dc1565b3d9150612b6c565b60405162461bcd60e51b8152602060048201526011602482015270149958da5c1a595b9d081b9bdd081cd95d607a1b6044820152606490fd5b60405162461bcd60e51b815260206004820152600b60248201526a119959481b9bdd081cd95d60aa1b6044820152606490fd5b50346102015780600319360112610201576040517f00000000000000000000000000000000000000000000000000000000000000006001600160a01b03168152602090f35b5034610201578060031936011261020157612c61613811565b80546001600160a01b03198116825581906001600160a01b03167f8be0079c531659141344cd1fd0a4f28419497f9722a3daafe3b4186f6b6457e08280a380f35b503461020157604036600319011261020157612cbc613063565b6001600160a01b03168152600a602052604081208054602435929083101561020157602061028d84846130e9565b50346102015780600319360112610201576002546040516001600160a01b039091168152602090f35b50346102015780600319360112610201576040517f00000000000000000000000000000000000000000000000000000000000000006001600160a01b03168152602090f35b50346102015760203660031901126102015760206001600160a01b03612d7c613063565b161515604051908152f35b5034610201576020366003190112610201576001600160a01b03612da9613063565b168152600b60205260408120604051918260208354918281520192825260208220915b818110612df357612def85612de381870382613148565b60405191829182613079565b0390f35b82546001600160a01b0316845260209093019260019283019201612dcc565b503461020157606036600319011261020157602061023d604435602435600435613789565b5034610201578060031936011261020157600154600954600554600454604080516001600160a01b038087168252909416602085015283019190915260ff60a093841c16151560608301526080820152f35b50346102015760c036600319011261020157612ea3613063565b906024356001600160401b03811161204957612ec39036906004016130bc565b9190926044356001600160401b03811161042457612ee59036906004016130bc565b9094606435906084359160a435938415158503611beb578798879897969396508887878783878787600160a01b60019003600154169f612f26975b8d613426565b6001600160a01b0381168a1180612fba575b612fa057506000198114610b4257600101996103e88b1015612f6b57612f26978b919b878991878f878991879f97612f20565b60405162461bcd60e51b815260206004820152600d60248201526c139bc81d985b1a59081cd85b1d609a1b6044820152606490fd5b604080519283526001600160a01b03909116602083015290f35b50803b15612f38565b50346102015780600319360112610201576006546040516001600160a01b039091168152602090f35b8234610201576020366003190112610201576001600160a01b0361300e613063565b168152600a602052604081209081548084526020840192825260208220915b81811061304457612def85612de381870382613148565b82546001600160a01b031684526020909301926001928301920161302d565b600435906001600160a01b0382168203611c3957565b602060408183019282815284518094520192019060005b81811061309d5750505090565b82516001600160a01b0316845260209384019390920191600101613090565b9181601f84011215611c39578235916001600160401b038311611c395760208381860195010111611c3957565b80548210156131015760005260206000200190600090565b634e487b7160e01b600052603260045260246000fd5b60e081019081106001600160401b0382111761313257604052565b634e487b7160e01b600052604160045260246000fd5b90601f801991011681019081106001600160401b0382111761313257604052565b1561317057565b60405162461bcd60e51b815260206004820152601060248201526f14185e5b595b9d08191a5cd8589b195960821b6044820152606490fd5b156131af57565b60405162461bcd60e51b815260206004820152600d60248201526c151bdad95b881b9bdd081cd95d609a1b6044820152606490fd5b51908115158203611c3957565b156131f857565b60405162461bcd60e51b815260206004820152600960248201526805072696365203c20360bc1b6044820152606490fd5b51908160020b8203611c3957565b60005b83811061324a5750506000910152565b818101518382015260200161323a565b908060209392818452848401376000828201840152601f01601f1916010190565b96939897949160c09693610100806132aa8b6132c49660e082526020815194838660e081960152019101613237565b601f01601f19168a018a8103820160208c0152019161325a565b60408701989098526001600160a01b03908116606087015260808601919091521660a08401521515910152565b51906001600160a01b0382168203611c3957565b9190820180921161331257565b634e487b7160e01b600052601160045260246000fd5b81516001600160a01b03908116825260208084015182169083015260408084015162ffffff16908301526060808401518216908301526080808401519083015260a0808401519083015260c092830151169181019190915260e00190565b6001600160401b0381116131325760051b60200190565b8054600160401b811015613132576133ba916001820181556130e9565b81546001600160a01b0393841660039290921b91821b9390911b1916919091179055565b8054600160401b811015613132576133fb916001820181556130e9565b819291549060031b91821b91600019901b1916179055565b8181029291811591840414171561331257565b92936134c06134f7956134b2600b9b6134e799613475600a60209d9e9d809a998a6040519b8c928484013781016920627920536861646f7760b01b83820152030160151981018a520188613148565b6124309b8c9961348a8a6040519c018c613148565b8d8b52898b019d61383b8f3960018060a01b0360085416926040519889978c89019b8c61327b565b03601f198101835282613148565b6040519586946134d8858701998a9251928391613237565b85019151809385840190613237565b010103601f198101835282613148565b5190209060405191604083015260208201523081520160ff8153605590206001600160a01b031690565b519061ffff82168203611c3957565b600154604051630b4c774160e11b81526001600160a01b0391821660048201527f000000000000000000000000000000000000000000000000000000000000000082166024820152612710604482015290602090829060649082907f0000000000000000000000000000000000000000000000000000000000000000165afa9081156136f357600091613735575b506001600160a01b031680156136ff5760e060049160405192838092633850c7bd851b82525afa9081156136f35760009161366a575b506001600160a01b03168015613635578061360e91613413565b670de0b6b3a7640000810290808204670de0b6b3a764000014901517156133125760c01c90565b60405162461bcd60e51b815260206004820152600d60248201526c496e76616c696420707269636560981b6044820152606490fd5b60e0813d60e0116136eb575b8161368360e09383613148565b8101031261204957613694816132f1565b916136a160208301613229565b506136ae60408301613521565b506136bb60608301613521565b506136c860808301613521565b5060a082015160ff811603610201575060c06136e491016131e4565b50386135f4565b3d9150613676565b6040513d6000823e3d90fd5b60405162461bcd60e51b815260206004820152600e60248201526d141bdbdb081b9bdd08199bdd5b9960921b6044820152606490fd5b90506020813d602011613767575b8161375060209383613148565b81010312611c3957613761906132f1565b386135be565b3d9150613743565b60ff60015460a01c16156137835760055490565b60045490565b919082156137df5781156137ae576137aa91670de0b6b3a764000004613413565b0490565b60405162461bcd60e51b815260206004820152600960248201526805072696365203e20360bc1b6044820152606490fd5b60405162461bcd60e51b815260206004820152600a6024820152690537570706c79203e20360b41b6044820152606490fd5b6000546001600160a01b0316330361382557565b63118cdaa760e01b6000523360045260246000fdfe6101406040523461075a576124308038038061001a8161075f565b92833981019060e08183031261075a5780516001600160401b03811161075a5782610046918301610784565b602082015190926001600160401b03821161075a57610066918301610784565b604082015191610078606082016107ef565b60808201519260c061008c60a085016107ef565b93015195861515870361075a578051906001600160401b0382116106575760035490600182811c92168015610750575b60208310146106375781601f8493116106e0575b50602090601f83116001146106785760009261066d575b50508160011b916000199060031b1c1916176003555b8051906001600160401b0382116106575760045490600182811c9216801561064d575b60208310146106375781601f8493116105c7575b50602090601f831160011461055f57600092610554575b50508160011b916000199060031b1c1916176004555b6001600160a01b031690811561053e57600580546001600160a01b031981168417909155604051919083906001600160a01b03167f8be0079c531659141344cd1fd0a4f28419497f9722a3daafe3b4186f6b6457e0600080a373740b1c1de25031c31ff4fc9a62f554a55cdc1bad60805273655c406ebfa14ee2006250925e54ec43ad184f8b60a05273bb00ff08d01d300023c629e8ffffcb65a5a578ce60c05273be0f5544ec67e9b3b2d979aaa43f18fd87e6257f60e052600680546001600160a01b03199081168517909155600780548216339081179091556009869055600b80549092166001600160a01b039390931692909217905515610528576000815233602082015233907f2104353cc58ca0c6ad696b26db13e649786d01460e22153f66760403a168262060403292a333321415908161051d575b50610346575b506102af8160025461082c565b600255600033815280602052604081208281540190556040519182527fddf252ad1be2c89b69c2b068fc378daa952ba7f163c4a11628f55a4df523b3ef60203393a360ff19600d5416600d5561012052604051611b8a9081610886823960805181610df6015260a05181610a4f015260c05181610479015260e0518161043401526101005181611170015261012051816102690152f35b60ff600d541680610511575b15610470575060008051602061241083398151915260405160a08152806103c961039d60a08301604090601081526f57686974656c6973742061637469766560801b60208201520190565b8281036020840152604090601081526f57686974656c6973742061637469766560801b60208201520190565b3260408301523360608301528460808301520390a132600052600e602052604060002054156104395761043361271061041360025432600052600e60205260406000205490610803565b0432600052600060205261042c8360406000205461082c565b1115610839565b386102a2565b60405162461bcd60e51b815260206004820152600f60248201526e139bdd081dda1a5d195b1a5cdd1959608a1b6044820152606490fd5b6103e861041361050c9260008051602061241083398151915260405160a08152806104ef6104c160a08301604090601281527157686974656c69737420696e61637469766560701b60208201520190565b8281036020840152604090601281527157686974656c69737420696e61637469766560701b60208201520190565b3260408301523360608301528860808301520390a1600254610803565b610433565b50600c54421115610352565b90503214153861029c565b63ec442f0560e01b600052600060045260246000fd5b631e4fbdf760e01b600052600060045260246000fd5b01519050388061014b565b600460009081528281209350601f198516905b8181106105af5750908460019594939210610596575b505050811b01600455610161565b015160001960f88460031b161c19169055388080610588565b92936020600181928786015181550195019301610572565b60046000529091507f8a35acfbc15ff81a39ae7d344fd709f28e8600b4aa8c65c6b64bfe7fe36bd19b601f840160051c8101916020851061062d575b90601f859493920160051c01905b81811061061e5750610134565b60008155849350600101610611565b9091508190610603565b634e487b7160e01b600052602260045260246000fd5b91607f1691610120565b634e487b7160e01b600052604160045260246000fd5b0151905038806100e7565b600360009081528281209350601f198516905b8181106106c857509084600195949392106106af575b505050811b016003556100fd565b015160001960f88460031b161c191690553880806106a1565b9293602060018192878601518155019501930161068b565b60036000529091507fc2575a0e9e593c00f959f8c92f12db2869c3395a3b0502d05e2516446f71f85b601f840160051c81019160208510610746575b90601f859493920160051c01905b81811061073757506100d0565b6000815584935060010161072a565b909150819061071c565b91607f16916100bc565b600080fd5b6040519190601f01601f191682016001600160401b0381118382101761065757604052565b81601f8201121561075a578051906001600160401b038211610657576107b3601f8301601f191660200161075f565b928284526020838301011161075a5760005b8281106107da57505060206000918301015290565b806020809284010151828287010152016107c5565b51906001600160a01b038216820361075a57565b8181029291811591840414171561081657565b634e487b7160e01b600052601160045260246000fd5b9190820180921161081657565b1561084057565b60405162461bcd60e51b815260206004820152601360248201527f4d61782077616c6c6574206578636565646564000000000000000000000000006044820152606490fdfe608080604052600436101561001357600080fd5b60003560e01c90816302ce5813146116a35750806306c933d814610b5b57806306fdde03146115e4578063095ea7b31461155e5780630d43e8ad146115355780631755ff211461150c57806318160ddd146114ee57806323b872dd14611401578063313ce567146113e557806337b2152a146113b457806340c10f191461114957806342966c6814610e43578063599ca39714610e255780635b54918214610de0578063612fc62f14610b95578063636cd86c14610b5b5780636ab77ded14610b1c57806370a0823114610adb578063715018a614610a7e578063791b98bc14610a3957806384ad98791461065c5780638da5cb5b1461063357806393e59dc11461060a57806395d89b4114610502578063a9059cbb146104d1578063ac600a3c146104a8578063c31c9c0714610463578063c6bbd5a71461041e578063cdfb2b4e14610376578063d5f394881461034d578063dd62ed3e146102fc578063e9e15b4f146102ac578063ebdfd7221461028e578063ee4892e614610251578063f1d033491461020f5763f2fde38b146101ab57600080fd5b3461020a57602036600319011261020a576101c46116c3565b5060405162461bcd60e51b815260206004820152601e60248201527f4f776e657273686970207472616e736665722069732064697361626c656400006044820152606490fd5b600080fd5b3461020a57602036600319011261020a5760043560105481101561020a57610238602091611769565b905460405160039290921b1c6001600160a01b03168152f35b3461020a57600036600319011261020a5760206040517f000000000000000000000000000000000000000000000000000000000000000015158152f35b3461020a57600036600319011261020a576020600c54604051908152f35b3461020a57602036600319011261020a576102c56116c3565b6102da60018060a01b0360075416331461182c565b600880546001600160a01b0319166001600160a01b0392909216919091179055005b3461020a57604036600319011261020a576103156116c3565b61031d6116d9565b6001600160a01b039182166000908152600160209081526040808320949093168252928352819020549051908152f35b3461020a57600036600319011261020a576006546040516001600160a01b039091168152602090f35b3461020a57600036600319011261020a5761039c60018060a01b0360075416331461182c565b600d5460ff81166103d95760019060ff191617600d5561025842018042116103c357600c55005b634e487b7160e01b600052601160045260246000fd5b60405162461bcd60e51b815260206004820152601860248201527f57686974656c69737420616c72656164792061637469766500000000000000006044820152606490fd5b3461020a57600036600319011261020a576040517f00000000000000000000000000000000000000000000000000000000000000006001600160a01b03168152602090f35b3461020a57600036600319011261020a576040517f00000000000000000000000000000000000000000000000000000000000000006001600160a01b03168152602090f35b3461020a57600036600319011261020a576007546040516001600160a01b039091168152602090f35b3461020a57604036600319011261020a576104f76104ed6116c3565b6024359033611866565b602060405160018152f35b3461020a57600036600319011261020a5760405160006004548060011c90600181168015610600575b6020831081146105ec578285529081156105c85750600114610568575b610564836105588185038261179a565b604051918291826116ef565b0390f35b91905060046000527f8a35acfbc15ff81a39ae7d344fd709f28e8600b4aa8c65c6b64bfe7fe36bd19b916000905b8082106105ae57509091508101602001610558610548565b919260018160209254838588010152019101909291610596565b60ff191660208086019190915291151560051b840190910191506105589050610548565b634e487b7160e01b84526022600452602484fd5b91607f169161052b565b3461020a57600036600319011261020a57600b546040516001600160a01b039091168152602090f35b3461020a57600036600319011261020a576005546040516001600160a01b039091168152602090f35b3461020a57600036600319011261020a57600b54604051636d02802760e01b815290600090829060049082906001600160a01b03165afa908115610a2d576000908192610903575b5060005b6010548110156106e157806106be600192611769565b838060a01b0391549060031b1c16600052600e60205260006040812055016106a8565b5060206040516106f1828261179a565b60008152600036813780519067ffffffffffffffff82116107ca57600160401b82116107ca578290601054836010558084106108a1575b5001601060005260005b8281106108665750505060005b82518110156107e0576107528185611818565b516001600160a01b036107658386611818565b51166000908152600e845260409020556001600160a01b036107878285611818565b51169060105491600160401b8310156107ca576107ab836001809501601055611769565b819291549060031b91821b91858060a01b03901b19161790550161073f565b634e487b7160e01b600052604160045260246000fd5b509160405192839260408401604085528151809152826060860192019060005b818110610846575050508381038285015281808451928381520193019160005b82811061082f57505050500390f35b835185528695509381019392810192600101610820565b82516001600160a01b031684528796509284019291840191600101610800565b81516001600160a01b03167f1b6847dc741a1b0cd08d278845f9d819d87b734759afb55fe2de5cb82a9ae67282015590830190600101610732565b7f1b6847dc741a1b0cd08d278845f9d819d87b734759afb55fe2de5cb82a9ae67201837f1b6847dc741a1b0cd08d278845f9d819d87b734759afb55fe2de5cb82a9ae672015b8181106108f45750610728565b600081558593506001016108e7565b9091503d8083833e610915818361179a565b8101604082820312610a2957815167ffffffffffffffff81116109f95782019181601f840112156109f957825161094b816117ed565b93610959604051958661179a565b81855260208086019260051b82010190848211610a2557602001915b818310610a015750505060208101519067ffffffffffffffff82116109fd570181601f820112156109f9578051906109ac826117ed565b946109ba604051968761179a565b82865260208087019360051b8301019384116109f65750602001905b8282106109e657505050826106a4565b81518152602091820191016109d6565b80fd5b8380fd5b8480fd5b82516001600160a01b0381168103610a2157815260209283019201610975565b8780fd5b8680fd5b8280fd5b6040513d6000823e3d90fd5b3461020a57600036600319011261020a576040517f00000000000000000000000000000000000000000000000000000000000000006001600160a01b03168152602090f35b3461020a57600036600319011261020a57610a97611a61565b600580546001600160a01b031981169091556000906001600160a01b03167f8be0079c531659141344cd1fd0a4f28419497f9722a3daafe3b4186f6b6457e08280a3005b3461020a57602036600319011261020a576020610b14610af96116c3565b6001600160a01b031660009081526020819052604090205490565b604051908152f35b3461020a57602036600319011261020a576001600160a01b03610b3d6116c3565b166000526012602052602060ff604060002054166040519015158152f35b3461020a57602036600319011261020a576001600160a01b03610b7c6116c3565b16600052600e6020526020604060002054604051908152f35b3461020a57604036600319011261020a5760043567ffffffffffffffff811161020a57610bc6903690600401611738565b9060243567ffffffffffffffff811161020a57610be7903690600401611738565b90818403610da2578315610d6e576000805b838110610c97575033600052600060205260406000205410610c535760005b848110610c2157005b80610c4d610c3a610c3560019489896117bc565b6117cc565b610c458387876117bc565b359033611866565b01610c18565b606460405162461bcd60e51b815260206004820152602060248201527f496e73756666696369656e742062616c616e636520666f722061697264726f706044820152fd5b90610ca38285856117bc565b3515610d29576001600160a01b03610cbf610c358489896117bc565b1615610ce457610cdd600191610cd68487876117bc565b35906117e0565b9101610bf9565b60405162461bcd60e51b815260206004820152601960248201527f496e76616c696420726563697069656e742061646472657373000000000000006044820152606490fd5b60405162461bcd60e51b815260206004820152601760248201527f416d6f756e74206d75737420626520706f7369746976650000000000000000006044820152606490fd5b60405162461bcd60e51b815260206004820152600c60248201526b456d7074792061727261797360a01b6044820152606490fd5b60405162461bcd60e51b8152602060048201526016602482015275082e4e4c2f2e640d8cadccee8d040dad2e6dac2e8c6d60531b6044820152606490fd5b3461020a57600036600319011261020a576040517f00000000000000000000000000000000000000000000000000000000000000006001600160a01b03168152602090f35b3461020a57600036600319011261020a576020600954604051908152f35b3461020a57602036600319011261020a57600435610e5f611a61565b6008546001600160a01b0316908115611115576001600160a01b03821660009081526020819052604090205481116110d05760009060405183815282602082015233907f2104353cc58ca0c6ad696b26db13e649786d01460e22153f66760403a168262060403292a36007546001600160a01b0316321415806110bb575b610f6f575b82610f1d5791600080516020611b15833981519152602084610f0785966002546117e0565b6002555b8060025403600255604051908152a380f35b828252816020526040822054818110610f57576020828593600080516020611b158339815191529386978752868452036040862055610f0b565b60649363391434e360e21b8452600452602452604452fd5b60ff600d5416806110af575b1561105257600080516020611b3583398151915260405160a0815280610fb3610fa660a08301611af1565b8281036020840152611af1565b3260408301523360608301528460808301520390a1328252600e60205260408220541561101b57611016612710610ff9600254328652600e602052604086205490611805565b043284528360205261100f8360408620546117e0565b1115611aaf565b610ee2565b60405162461bcd60e51b815260206004820152600f60248201526e139bdd081dda1a5d195b1a5cdd1959608a1b6044820152606490fd5b600080516020611b3583398151915260405160a081528061108561107860a08301611a8a565b8281036020840152611a8a565b3260408301523360608301528460808301520390a16110166103e8610ff960025460095490611805565b50600c54421115610f7b565b506006546001600160a01b0316321415610edd565b60405162461bcd60e51b815260206004820152601760248201527f496e73756666696369656e74204c502062616c616e63650000000000000000006044820152606490fd5b60405162461bcd60e51b815260206004820152600c60248201526b141bdbdb081b9bdd081cd95d60a21b6044820152606490fd5b3461020a57604036600319011261020a576111626116c3565b6024359061116e611a61565b7f00000000000000000000000000000000000000000000000000000000000000001561136f576001600160a01b03168015611359576040516000815281602082015233907f2104353cc58ca0c6ad696b26db13e649786d01460e22153f66760403a168262060403292a36007546001600160a01b031632141580611344575b611232575b816112016020936002546117e0565b600255600080516020611b15833981519152600093849284845283825260408420818154019055604051908152a380f35b60ff600d541680611338575b156112d457600080516020611b3583398151915260405160a0815280611269610fa660a08301611af1565b3260408301523360608301528560808301520390a132600052600e6020526040600020541561101b576020916112cd6127106112b560025432600052600e875260406000205490611805565b04326000526000855261100f836040600020546117e0565b91506111f2565b602091600080516020611b3583398151915260405160a08152806113096112fd60a08301611a8a565b82810388840152611a8a565b3260408301523360608301528460808301520390a16113336103e86112b560025460095490611805565b6112cd565b50600c5442111561123e565b506006546001600160a01b03163214156111ed565b63ec442f0560e01b600052600060045260246000fd5b60405162461bcd60e51b815260206004820152601a60248201527f546f6b656e3a206d696e74696e672069732064697361626c65640000000000006044820152606490fd5b3461020a57602036600319011261020a57600435600052600f602052602060ff604060002054166040519015158152f35b3461020a57600036600319011261020a57602060405160128152f35b3461020a57606036600319011261020a5761141a6116c3565b6114226116d9565b6001600160a01b0382166000818152600160209081526040808320338452909152902054909260443592916000198110611462575b506104f79350611866565b8381106114d15784156114bb5733156114a5576104f7946000526001602052604060002060018060a01b0333166000526020528360406000209103905584611457565b634a1406b160e11b600052600060045260246000fd5b63e602df0560e01b600052600060045260246000fd5b8390637dc7a0d960e11b6000523360045260245260445260646000fd5b3461020a57600036600319011261020a576020600254604051908152f35b3461020a57600036600319011261020a576008546040516001600160a01b039091168152602090f35b3461020a57600036600319011261020a57600a546040516001600160a01b039091168152602090f35b3461020a57604036600319011261020a576115776116c3565b6024359033156114bb576001600160a01b03169081156114a557336000526001602052604060002082600052602052806040600020556040519081527f8c5be1e5ebec7d5bd14f71427d1e84f3dd0314c0f7b2291e5b200ac8c7c3b92560203392a3602060405160018152f35b3461020a57600036600319011261020a5760405160006003548060011c90600181168015611699575b6020831081146105ec578285529081156105c8575060011461163957610564836105588185038261179a565b91905060036000527fc2575a0e9e593c00f959f8c92f12db2869c3395a3b0502d05e2516446f71f85b916000905b80821061167f57509091508101602001610558610548565b919260018160209254838588010152019101909291611667565b91607f169161160d565b3461020a57600036600319011261020a5760209060ff600d541615158152f35b600435906001600160a01b038216820361020a57565b602435906001600160a01b038216820361020a57565b91909160208152825180602083015260005b818110611722575060409293506000838284010152601f8019910116010190565b8060208092870101516040828601015201611701565b9181601f8401121561020a5782359167ffffffffffffffff831161020a576020808501948460051b01011161020a57565b60105481101561178457601060005260206000200190600090565b634e487b7160e01b600052603260045260246000fd5b90601f8019910116810190811067ffffffffffffffff8211176107ca57604052565b91908110156117845760051b0190565b356001600160a01b038116810361020a5790565b919082018092116103c357565b67ffffffffffffffff81116107ca5760051b60200190565b818102929181159184041417156103c357565b80518210156117845760209160051b010190565b1561183357565b60405162461bcd60e51b815260206004820152600b60248201526a4f6e6c7920536861646f7760a81b6044820152606490fd5b6001600160a01b0316908115611a4b576001600160a01b03169182156113595760405182815283602082015233907f2104353cc58ca0c6ad696b26db13e649786d01460e22153f66760403a168262060403292a36007546001600160a01b031632141580611a36575b61193b575b6000828152806020526040812054828110611921579160408282600080516020611b15833981519152958760209652828652038282205586815280845220818154019055604051908152a3565b916064928463391434e360e21b8452600452602452604452fd5b60ff600d541680611a2a575b156119da57600080516020611b3583398151915260405160a0815280611972610fa660a08301611af1565b3260408301523360608301528460808301520390a132600052600e6020526040600020541561101b576119d56127106119bc60025432600052600e60205260406000205490611805565b0432600052600060205261100f836040600020546117e0565b6118d4565b600080516020611b3583398151915260405160a0815280611a0061107860a08301611a8a565b3260408301523360608301528460808301520390a16119d56103e86119bc60025460095490611805565b50600c54421115611947565b506006546001600160a01b03163214156118cf565b634b637e8f60e11b600052600060045260246000fd5b6005546001600160a01b03163303611a7557565b63118cdaa760e01b6000523360045260246000fd5b601281527157686974656c69737420696e61637469766560701b602082015260400190565b15611ab657565b60405162461bcd60e51b815260206004820152601360248201527213585e081dd85b1b195d08195e18d959591959606a1b6044820152606490fd5b601081526f57686974656c6973742061637469766560801b60208201526040019056feddf252ad1be2c89b69c2b068fc378daa952ba7f163c4a11628f55a4df523b3efffa86076c28a64f8e7435b118c7d899db97b6c39a0b188d1e243c089c4cd5b91a26469706673582212202ef555be060577625338660982012dfeeca095a1ce8feef86f45729b22a1715264736f6c634300081b0033ffa86076c28a64f8e7435b118c7d899db97b6c39a0b188d1e243c089c4cd5b91a264697066735822122064e000c7dbd2e93602f235c595fafaedafc435bb479d9f9af5f32633cf02e1ca64736f6c634300081b003360e03461019f57601f6107a738819003918201601f19168301916001600160401b038311848410176101a45780849260609460405283398101031261019f57610047816101ba565b906100606040610059602084016101ba565b92016101ba565b916001600160a01b0381161561015a576001600160a01b03821615610121576001600160a01b038316156100e85760805260a05260c052600080546001600160a01b031916331790556040516105d890816101cf82396080518181816101aa0152610377015260a05181818161021101526103de015260c05181818161025301526104150152f35b60405162461bcd60e51b815260206004820152601160248201527024b73b30b634b210103bb0b63632ba101960791b6044820152606490fd5b60405162461bcd60e51b8152602060048201526011602482015270496e76616c6964202077616c6c6574203160781b6044820152606490fd5b60405162461bcd60e51b815260206004820152601360248201527f496e76616c696420666565732077616c6c6574000000000000000000000000006044820152606490fd5b600080fd5b634e487b7160e01b600052604160045260246000fd5b51906001600160a01b038216820361019f5756fe6080806040526004361015610025575b50361561001b57600080fd5b610023610375565b005b60003560e01c908162f54f0a146102405750806318eeef80146101fb5780634f5eff09146101d95780637e44d2cc146101945780637e4913ca1461018f5780638d64f62b1461018f5780638da5cb5b14610166578063dbc938d8146101525763f2fde38b14610094573861000f565b3461014d57602036600319011261014d576004356001600160a01b0381169081900361014d576000546001600160a01b038116330361011c5781156100e3576001600160a01b03191617600055005b60405162461bcd60e51b815260206004820152601160248201527024b73b30b634b2103732bb9037bbb732b960791b6044820152606490fd5b60405162461bcd60e51b81526020600482015260096024820152682737ba1037bbb732b960b91b6044820152606490fd5b600080fd5b600036600319011261014d57610023610375565b3461014d57600036600319011261014d576000546040516001600160a01b039091168152602090f35b610282565b3461014d57600036600319011261014d576040517f00000000000000000000000000000000000000000000000000000000000000006001600160a01b03168152602090f35b3461014d57600036600319011261014d57602060405166b1a2bc2ec500008152f35b3461014d57600036600319011261014d576040517f00000000000000000000000000000000000000000000000000000000000000006001600160a01b03168152602090f35b3461014d57600036600319011261014d577f00000000000000000000000000000000000000000000000000000000000000006001600160a01b03168152602090f35b3461014d57600036600319011261014d57602060405160328152f35b919082039182116102ab57565b634e487b7160e01b600052601160045260246000fd5b3d15610324573d9067ffffffffffffffff821161030e5760405191601f8101601f19908116603f0116830167ffffffffffffffff81118482101761030e5760405282523d6000602084013e565b634e487b7160e01b600052604160045260246000fd5b606090565b1561033057565b60405162461bcd60e51b815260206004820152601e60248201527f5472616e7366657220746f20666565732077616c6c6574206661696c656400006044820152606490fd5b7f000000000000000000000000000000000000000000000000000000000000000034813166b1a2bc2ec500008110610508575b508091501580156103b7575050565b603282029082820460321417156102ab5760646103d69104809261029e565b6000808080857f00000000000000000000000000000000000000000000000000000000000000005af16104076102c1565b50156104c3576000808080847f00000000000000000000000000000000000000000000000000000000000000005af161043e6102c1565b501561047e577f312c5308f42848705a866c73dec11fd0783c2d64aac6a97e94467062ad3f405891606091604051916000835260208301526040820152a1565b60405162461bcd60e51b815260206004820152601c60248201527f5472616e7366657220746f202077616c6c65742032206661696c6564000000006044820152606490fd5b60405162461bcd60e51b815260206004820152601c60248201527f5472616e7366657220746f202077616c6c65742031206661696c6564000000006044820152606490fd5b66b1a2bc2ec500000366b1a2bc2ec5000081116102ab5734811061057c57508061056560008080806060967f312c5308f42848705a866c73dec11fd0783c2d64aac6a97e94467062ad3f4058985af161055f6102c1565b50610329565b6040519081526000602082015260006040820152a1565b905061059560008080808561059b975af161055f6102c1565b3461029e565b80386103a856fea264697066735822122095888c49c95dea095f7e5137d26f7305ae9e7af495b45b6d035672d0c9c4bab664736f6c634300081b0033",
  "linkReferences": {
    "contracts/ShadowMathLib.sol": {
      "ShadowMathLib": [
        {
          "length": 20,
          "start": 4682
        }
      ]
    }
  },
  "deployedLinkReferences": {
    "contracts/ShadowMathLib.sol": {
      "ShadowMathLib": [
        {
          "length": 20,
          "start": 3716
        }
      ]
    }
  }
}