{
  "_format": "hh-sol-artifact-1",
  "contractName": "ShadowCreator",
  "sourceName": "contracts/ShadowCreator.sol",
  "abi": [
    {
      "inputs": [
        {
          "internalType": "address",
          "name": "weth_",
          "type": "address"
        },
        {
          "internalType": "address",
          "name": "uniswapV3Factory_",
          "type": "address"
        },
        {
          "internalType": "address",
          "name": "positionManager_",
          "type": "address"
        },
        {
          "internalType": "address",
          "name": "swapRouter_",
          "type": "address"
        },
        {
          "internalType": "address",
          "name": "owner_",
          "type": "address"
        }
      ],
      "stateMutability": "nonpayable",
      "type": "constructor"
    },
    {
      "inputs": [],
      "name": "InvalidTokenOrder",
      "type": "error"
    },
    {
      "anonymous": false,
      "inputs": [
        {
          "indexed": false,
          "internalType": "bool",
          "name": "enabled",
          "type": "bool"
        }
      ],
      "name": "CreationStatusChanged",
      "type": "event"
    },
    {
      "anonymous": false,
      "inputs": [
        {
          "indexed": false,
          "internalType": "string",
          "name": "message",
          "type": "string"
        }
      ],
      "name": "Debug",
      "type": "event"
    },
    {
      "anonymous": false,
      "inputs": [
        {
          "indexed": true,
          "internalType": "address",
          "name": "previousOwner",
          "type": "address"
        },
        {
          "indexed": true,
          "internalType": "address",
          "name": "newOwner",
          "type": "address"
        }
      ],
      "name": "OwnershipTransferred",
      "type": "event"
    },
    {
      "anonymous": false,
      "inputs": [
        {
          "indexed": false,
          "internalType": "address",
          "name": "tokenAddress",
          "type": "address"
        },
        {
          "indexed": false,
          "internalType": "address",
          "name": "deployer",
          "type": "address"
        },
        {
          "indexed": false,
          "internalType": "string",
          "name": "name",
          "type": "string"
        },
        {
          "indexed": false,
          "internalType": "string",
          "name": "symbol",
          "type": "string"
        },
        {
          "indexed": false,
          "internalType": "uint256",
          "name": "supply",
          "type": "uint256"
        }
      ],
      "name": "TokenCreated",
      "type": "event"
    },
    {
      "inputs": [],
      "name": "TICK_SPACING",
      "outputs": [
        {
          "internalType": "int24",
          "name": "",
          "type": "int24"
        }
      ],
      "stateMutability": "view",
      "type": "function"
    },
    {
      "inputs": [
        {
          "internalType": "string",
          "name": "name",
          "type": "string"
        },
        {
          "internalType": "string",
          "name": "symbol",
          "type": "string"
        },
        {
          "internalType": "uint256",
          "name": "supply",
          "type": "uint256"
        },
        {
          "internalType": "int24",
          "name": "tick",
          "type": "int24"
        },
        {
          "internalType": "uint24",
          "name": "fee",
          "type": "uint24"
        },
        {
          "internalType": "bytes32",
          "name": "salt",
          "type": "bytes32"
        },
        {
          "internalType": "address",
          "name": "deployer",
          "type": "address"
        }
      ],
      "name": "deployToken",
      "outputs": [],
      "stateMutability": "payable",
      "type": "function"
    },
    {
      "inputs": [
        {
          "internalType": "address",
          "name": "deployer",
          "type": "address"
        },
        {
          "internalType": "string",
          "name": "name",
          "type": "string"
        },
        {
          "internalType": "string",
          "name": "symbol",
          "type": "string"
        },
        {
          "internalType": "uint256",
          "name": "supply",
          "type": "uint256"
        }
      ],
      "name": "generateSalt",
      "outputs": [
        {
          "internalType": "bytes32",
          "name": "salt",
          "type": "bytes32"
        },
        {
          "internalType": "address",
          "name": "token",
          "type": "address"
        }
      ],
      "stateMutability": "view",
      "type": "function"
    },
    {
      "inputs": [],
      "name": "isCreationEnabled",
      "outputs": [
        {
          "internalType": "bool",
          "name": "",
          "type": "bool"
        }
      ],
      "stateMutability": "view",
      "type": "function"
    },
    {
      "inputs": [],
      "name": "owner",
      "outputs": [
        {
          "internalType": "address",
          "name": "",
          "type": "address"
        }
      ],
      "stateMutability": "view",
      "type": "function"
    },
    {
      "inputs": [],
      "name": "positionManager",
      "outputs": [
        {
          "internalType": "contract INonfungiblePositionManager",
          "name": "",
          "type": "address"
        }
      ],
      "stateMutability": "view",
      "type": "function"
    },
    {
      "inputs": [
        {
          "internalType": "address",
          "name": "deployer",
          "type": "address"
        },
        {
          "internalType": "string",
          "name": "name",
          "type": "string"
        },
        {
          "internalType": "string",
          "name": "symbol",
          "type": "string"
        },
        {
          "internalType": "uint256",
          "name": "supply",
          "type": "uint256"
        },
        {
          "internalType": "bytes32",
          "name": "salt",
          "type": "bytes32"
        }
      ],
      "name": "predictToken",
      "outputs": [
        {
          "internalType": "address",
          "name": "",
          "type": "address"
        }
      ],
      "stateMutability": "view",
      "type": "function"
    },
    {
      "inputs": [],
      "name": "renounceOwnership",
      "outputs": [],
      "stateMutability": "nonpayable",
      "type": "function"
    },
    {
      "inputs": [
        {
          "internalType": "bool",
          "name": "enabled",
          "type": "bool"
        }
      ],
      "name": "setCreationEnabled",
      "outputs": [],
      "stateMutability": "nonpayable",
      "type": "function"
    },
    {
      "inputs": [],
      "name": "swapRouter",
      "outputs": [
        {
          "internalType": "address",
          "name": "",
          "type": "address"
        }
      ],
      "stateMutability": "view",
      "type": "function"
    },
    {
      "inputs": [
        {
          "internalType": "address",
          "name": "newOwner",
          "type": "address"
        }
      ],
      "name": "transferOwnership",
      "outputs": [],
      "stateMutability": "nonpayable",
      "type": "function"
    },
    {
      "inputs": [],
      "name": "uniswapV3Factory",
      "outputs": [
        {
          "internalType": "contract IUniswapV3Factory",
          "name": "",
          "type": "address"
        }
      ],
      "stateMutability": "view",
      "type": "function"
    },
    {
      "inputs": [],
      "name": "weth",
      "outputs": [
        {
          "internalType": "address",
          "name": "",
          "type": "address"
        }
      ],
      "stateMutability": "view",
      "type": "function"
    },
    {
      "stateMutability": "payable",
      "type": "receive"
    }
  ],
  "bytecode": "0x6101003461011257601f61231a38819003918201601f19168301916001600160401b038311848410176101175780849260a094604052833981010312610112576100488161012d565b6100546020830161012d565b6100606040840161012d565b9161009d61007c60806100756060880161012d565b960161012d565b61008533610141565b6000805460ff60a01b1916600160a01b179055610141565b6080526001600160a01b0390811660a0521660c05260e052604051612191908161018982396080518181816103600152818161085a01526109c4015260a0518181816102ef015281816109630152610c34015260c051818181610317015281816107070152610c5c015260e051816106730152f35b600080fd5b634e487b7160e01b600052604160045260246000fd5b51906001600160a01b038216820361011257565b600080546001600160a01b039283166001600160a01b03198216811783559216907f8be0079c531659141344cd1fd0a4f28419497f9722a3daafe3b4186f6b6457e09080a356fe6080604052600436101561001b575b361561001957600080fd5b005b60003560e01c80632b66df51146109f35780633fc8cef3146109ae57806346ca626b146109925780635b5491821461094d578063680c6354146107fb5780636a5dab9f1461078f578063715018a614610736578063791b98bc146106f15780638da5cb5b146106c8578063a10b521b146106a2578063c31c9c071461065d578063e2a0cb721461017b5763f2fde38b0361000e5734610176576020366003190112610176576100c8610a75565b6100d0610cf4565b6001600160a01b0316801561012257600080546001600160a01b03198116831782556001600160a01b0316907f8be0079c531659141344cd1fd0a4f28419497f9722a3daafe3b4186f6b6457e09080a3005b60405162461bcd60e51b815260206004820152602660248201527f4f776e61626c653a206e6577206f776e657220697320746865207a65726f206160448201526564647265737360d01b6064820152608490fd5b600080fd5b60e03660031901126101765760043567ffffffffffffffff8111610176576101a7903690600401610adb565b60243567ffffffffffffffff8111610176576101c7903690600401610adb565b9060443590606435918260020b809303610176576084359262ffffff84168094036101765760c4356001600160a01b03811694908590036101765760ff60005460a01c16156106185782156105d357841561058e578351156105525785511561051457612710036104dc57620d89e719811215806104cf575b156104965760c8900760020b61045a57604051610290600a602083865161026c81848401858b01610b32565b81016920627920536861646f7760b01b838201520301601519810184520182610ab9565b60405161140f918282019282841067ffffffffffffffff851117610444576102d7916102c991610d4d853960c0855260c0850190610b55565b838103602085015287610b55565b60408301849052606083018690526001600160a01b037f0000000000000000000000000000000000000000000000000000000000000000811660808501527f00000000000000000000000000000000000000000000000000000000000000001660a09093019290925260a43591819003906000f58015610438576001600160a01b0390811692907f0000000000000000000000000000000000000000000000000000000000000000168310156103e7577f6e6ae68e7d7d45fbd855c40d1eaafa8de46c5fbec3ee26f1af88730e400bc92c946103ce6103dc926040519687968752602087015260a0604087015260a0860190610b55565b908482036060860152610b55565b9060808301520390a1005b60405162461bcd60e51b8152602060048201526024808201527f546f6b656e2061646472657373206d757374206265206c657373207468616e206044820152630ae8aa8960e31b6064820152608490fd5b6040513d6000823e3d90fd5b634e487b7160e01b600052604160045260246000fd5b60405162461bcd60e51b8152602060048201526014602482015273496e76616c6964207469636b2073706163696e6760601b6044820152606490fd5b60405162461bcd60e51b81526020600482015260116024820152705469636b206f7574206f662072616e676560781b6044820152606490fd5b50620d89e8811315610240565b60405162461bcd60e51b815260206004820152601060248201526f24b73b30b634b2103332b2903a34b2b960811b6044820152606490fd5b60405162461bcd60e51b815260206004820152601660248201527553796d626f6c2063616e6e6f7420626520656d70747960501b6044820152606490fd5b60405162461bcd60e51b81526020600482015260146024820152734e616d652063616e6e6f7420626520656d70747960601b6044820152606490fd5b60405162461bcd60e51b815260206004820152601860248201527f496e76616c6964206465706c6f796572206164647265737300000000000000006044820152606490fd5b60405162461bcd60e51b815260206004820152601d60248201527f537570706c79206d7573742062652067726561746572207468616e20300000006044820152606490fd5b60405162461bcd60e51b815260206004820152601a60248201527f546f6b656e206372656174696f6e2069732064697361626c65640000000000006044820152606490fd5b34610176576000366003190112610176576040517f00000000000000000000000000000000000000000000000000000000000000006001600160a01b03168152602090f35b3461017657600036600319011261017657602060ff60005460a01c166040519015158152f35b34610176576000366003190112610176576000546040516001600160a01b039091168152602090f35b34610176576000366003190112610176576040517f00000000000000000000000000000000000000000000000000000000000000006001600160a01b03168152602090f35b346101765760003660031901126101765761074f610cf4565b600080546001600160a01b0319811682556001600160a01b03167f8be0079c531659141344cd1fd0a4f28419497f9722a3daafe3b4186f6b6457e08280a3005b34610176576020366003190112610176576004358015158091036101765760207f1a3f40fae3a310ca113098ad34d161433ab7e470c2a167b60a190a80364043bc916107d9610cf4565b6000805460ff60a01b191660a083901b60ff60a01b16179055604051908152a1005b3461017657608036600319011261017657610814610a75565b60243567ffffffffffffffff811161017657610834903690600401610a8b565b91906044359067ffffffffffffffff82116101765790610858903690600401610a8b565b7f00000000000000000000000000000000000000000000000000000000000000006001600160a01b03169391606435919060005b61089b818585858c8b8b610b7a565b6001600160a01b038116881180610944575b61092a5750600019811461091457600101966103e88810156108cf579661088c565b60405162461bcd60e51b815260206004820152601960248201527f436f756c64206e6f742066696e642076616c69642073616c74000000000000006044820152606490fd5b634e487b7160e01b600052601160045260246000fd5b604080519283526001600160a01b03909116602083015290f35b50803b156108ad565b34610176576000366003190112610176576040517f00000000000000000000000000000000000000000000000000000000000000006001600160a01b03168152602090f35b3461017657600036600319011261017657602060405160c88152f35b34610176576000366003190112610176576040517f00000000000000000000000000000000000000000000000000000000000000006001600160a01b03168152602090f35b346101765760a036600319011261017657610a0c610a75565b60243567ffffffffffffffff811161017657610a2c903690600401610a8b565b91906044359167ffffffffffffffff831161017657602093610a55610a63943690600401610a8b565b916084359460643594610b7a565b6040516001600160a01b039091168152f35b600435906001600160a01b038216820361017657565b9181601f840112156101765782359167ffffffffffffffff8311610176576020838186019501011161017657565b90601f8019910116810190811067ffffffffffffffff82111761044457604052565b81601f820112156101765780359067ffffffffffffffff82116104445760405192610b10601f8401601f191660200185610ab9565b8284526020838301011161017657816000926020809301838601378301015290565b60005b838110610b455750506000910152565b8181015183820152602001610b35565b90602091610b6e81518092818552858086019101610b32565b601f01601f1916010190565b936020610cc69360559896610c9f83600b9a610bc5600a83610cd69a88604051998a928484013781016920627920536861646f7760b01b838201520301601519810188520186610ab9565b61140f9960405197610bd9848d018a610ab9565b8b89528389019b610d4d8d3960405195869382610c018787019a60c08c5260e0880190610b55565b868103601f190160408801528181529487860137600084840187015260608501526001600160a01b0390811660808501527f0000000000000000000000000000000000000000000000000000000000000000811660a08501527f00000000000000000000000000000000000000000000000000000000000000001660c0840152601f01601f1990811690910191909103909101908101835282610ab9565b604051958694610cb7858701998a9251928391610b32565b85019151809385840190610b32565b010103601f198101835282610ab9565b5190209060405191604083015260208201523081520160ff81532090565b6000546001600160a01b03163303610d0857565b606460405162461bcd60e51b815260206004820152602060248201527f4f776e61626c653a2063616c6c6572206973206e6f7420746865206f776e65726044820152fdfe60c0604052346104785761140f803803806100198161047d565b928339810160c0828203126104785781516001600160401b03811161047857816100449184016104a2565b602083015190916001600160401b038211610478576100649184016104a2565b906040830151916100776060850161050d565b9061009060a06100896080880161050d565b960161050d565b835190936001600160401b0382116103755760035490600182811c9216801561046e575b60208310146103555781601f8493116103fe575b50602090601f83116001146103965760009261038b575b50508160011b916000199060031b1c1916176003555b8051906001600160401b0382116103755760045490600182811c9216801561036b575b60208310146103555781601f8493116102e5575b50602090601f831160011461027d57600092610272575b50508160011b916000199060031b1c1916176004555b61016233610521565b61016b81610521565b600680546001600160a01b03199081166001600160a01b0393909316928317909155600780549091163317905560809390935260a052811561022d57600254908082018092116102175760207fddf252ad1be2c89b69c2b068fc378daa952ba7f163c4a11628f55a4df523b3ef9160009360025584845283825260408420818154019055604051908152a3604051610ea4908161056b8239608051816105da015260a051816104f70152f35b634e487b7160e01b600052601160045260246000fd5b60405162461bcd60e51b815260206004820152601f60248201527f45524332303a206d696e7420746f20746865207a65726f2061646472657373006044820152606490fd5b015190503880610143565b600460009081528281209350601f198516905b8181106102cd57509084600195949392106102b4575b505050811b01600455610159565b015160001960f88460031b161c191690553880806102a6565b92936020600181928786015181550195019301610290565b60046000529091507f8a35acfbc15ff81a39ae7d344fd709f28e8600b4aa8c65c6b64bfe7fe36bd19b601f840160051c8101916020851061034b575b90601f859493920160051c01905b81811061033c575061012c565b6000815584935060010161032f565b9091508190610321565b634e487b7160e01b600052602260045260246000fd5b91607f1691610118565b634e487b7160e01b600052604160045260246000fd5b0151905038806100df565b600360009081528281209350601f198516905b8181106103e657509084600195949392106103cd575b505050811b016003556100f5565b015160001960f88460031b161c191690553880806103bf565b929360206001819287860151815501950193016103a9565b60036000529091507fc2575a0e9e593c00f959f8c92f12db2869c3395a3b0502d05e2516446f71f85b601f840160051c81019160208510610464575b90601f859493920160051c01905b81811061045557506100c8565b60008155849350600101610448565b909150819061043a565b91607f16916100b4565b600080fd5b6040519190601f01601f191682016001600160401b0381118382101761037557604052565b81601f82011215610478578051906001600160401b038211610375576104d1601f8301601f191660200161047d565b92828452602083830101116104785760005b8281106104f857505060206000918301015290565b806020809284010151828287010152016104e3565b51906001600160a01b038216820361047857565b600580546001600160a01b039283166001600160a01b0319821681179092559091167f8be0079c531659141344cd1fd0a4f28419497f9722a3daafe3b4186f6b6457e0600080a356fe608080604052600436101561001357600080fd5b60003560e01c90816306fdde0314610a2457508063095ea7b3146109fe5780630d43e8ad146109d55780631755ff21146109ac57806318160ddd1461098e57806323b872dd146108d0578063313ce567146108b4578063395093511461086257806340c10f191461079a57806342966c6814610627578063599ca397146106095780635b549182146105c457806370a0823114610583578063715018a614610526578063791b98bc146104e15780638da5cb5b146104b857806395d89b4114610397578063a457c2d7146102f0578063a9059cbb146102bf578063ac600a3c14610296578063d5f394881461026d578063dd62ed3e1461021c578063e9e15b4f1461018b5763f2fde38b1461012757600080fd5b3461018657602036600319011261018657610140610b40565b5060405162461bcd60e51b815260206004820152601e60248201527f4f776e657273686970207472616e736665722069732064697361626c656400006044820152606490fd5b600080fd5b34610186576020366003190112610186576101a4610b40565b6007546001600160a01b031633036101d857600880546001600160a01b0319166001600160a01b0392909216919091179055005b606460405162461bcd60e51b815260206004820152602060248201527f4f6e6c7920536861646f772063616e2073657420706f6f6c20616464726573736044820152fd5b3461018657604036600319011261018657610235610b40565b61023d610b56565b6001600160a01b039182166000908152600160209081526040808320949093168252928352819020549051908152f35b34610186576000366003190112610186576006546040516001600160a01b039091168152602090f35b34610186576000366003190112610186576007546040516001600160a01b039091168152602090f35b34610186576040366003190112610186576102e56102db610b40565b6024359033610c97565b602060405160018152f35b3461018657604036600319011261018657610309610b40565b60243590336000526001602052604060002060018060a01b03821660005260205260406000205491808310610344576102e592039033610b8f565b60405162461bcd60e51b815260206004820152602560248201527f45524332303a2064656372656173656420616c6c6f77616e63652062656c6f77604482015264207a65726f60d81b6064820152608490fd5b346101865760003660031901126101865760405160006004548060011c906001811680156104ae575b60208310811461049a5782855290811561047e5750600114610427575b50819003601f01601f191681019067ffffffffffffffff8211818310176104115761040d82918260405282610af7565b0390f35b634e487b7160e01b600052604160045260246000fd5b905060046000527f8a35acfbc15ff81a39ae7d344fd709f28e8600b4aa8c65c6b64bfe7fe36bd19b6000905b828210610468575060209150820101826103dd565b6001816020925483858801015201910190610453565b90506020925060ff191682840152151560051b820101826103dd565b634e487b7160e01b84526022600452602484fd5b91607f16916103c0565b34610186576000366003190112610186576005546040516001600160a01b039091168152602090f35b34610186576000366003190112610186576040517f00000000000000000000000000000000000000000000000000000000000000006001600160a01b03168152602090f35b346101865760003660031901126101865761053f610e16565b600580546001600160a01b031981169091556000906001600160a01b03167f8be0079c531659141344cd1fd0a4f28419497f9722a3daafe3b4186f6b6457e08280a3005b346101865760203660031901126101865760206105bc6105a1610b40565b6001600160a01b031660009081526020819052604090205490565b604051908152f35b34610186576000366003190112610186576040517f00000000000000000000000000000000000000000000000000000000000000006001600160a01b03168152602090f35b34610186576000366003190112610186576020600954604051908152f35b3461018657602036600319011261018657600435610643610e16565b6008546001600160a01b0316908115610766576001600160a01b038216600090815260208190526040902054811161072157600091808352826020526040832054918083106106d1576020817fddf252ad1be2c89b69c2b068fc378daa952ba7f163c4a11628f55a4df523b3ef9286958587528684520360408620558060025403600255604051908152a380f35b60405162461bcd60e51b815260206004820152602260248201527f45524332303a206275726e20616d6f756e7420657863656564732062616c616e604482015261636560f01b6064820152608490fd5b60405162461bcd60e51b815260206004820152601760248201527f496e73756666696369656e74204c502062616c616e63650000000000000000006044820152606490fd5b60405162461bcd60e51b815260206004820152600c60248201526b141bdbdb081b9bdd081cd95d60a21b6044820152606490fd5b34610186576040366003190112610186576107b3610b40565b602435906107bf610e16565b6001600160a01b031690811561081d577fddf252ad1be2c89b69c2b068fc378daa952ba7f163c4a11628f55a4df523b3ef602082610801600094600254610b6c565b60025584845283825260408420818154019055604051908152a3005b60405162461bcd60e51b815260206004820152601f60248201527f45524332303a206d696e7420746f20746865207a65726f2061646472657373006044820152606490fd5b34610186576040366003190112610186576102e561087e610b40565b336000526001602052604060002060018060a01b0382166000526020526108ad60406000206024359054610b6c565b9033610b8f565b3461018657600036600319011261018657602060405160128152f35b34610186576060366003190112610186576108e9610b40565b6108f1610b56565b6001600160a01b038216600090815260016020818152604080842033855290915290912054926044359291840161092d575b6102e59350610c97565b82841061094957610944836102e595033383610b8f565b610923565b60405162461bcd60e51b815260206004820152601d60248201527f45524332303a20696e73756666696369656e7420616c6c6f77616e63650000006044820152606490fd5b34610186576000366003190112610186576020600254604051908152f35b34610186576000366003190112610186576008546040516001600160a01b039091168152602090f35b3461018657600036600319011261018657600a546040516001600160a01b039091168152602090f35b34610186576040366003190112610186576102e5610a1a610b40565b6024359033610b8f565b346101865760003660031901126101865760006003548060011c90600181168015610aed575b60208310811461049a5782855290811561047e5750600114610a965750819003601f01601f191681019067ffffffffffffffff8211818310176104115761040d82918260405282610af7565b905060036000527fc2575a0e9e593c00f959f8c92f12db2869c3395a3b0502d05e2516446f71f85b6000905b828210610ad7575060209150820101826103dd565b6001816020925483858801015201910190610ac2565b91607f1691610a4a565b91909160208152825180602083015260005b818110610b2a575060409293506000838284010152601f8019910116010190565b8060208092870101516040828601015201610b09565b600435906001600160a01b038216820361018657565b602435906001600160a01b038216820361018657565b91908201809211610b7957565b634e487b7160e01b600052601160045260246000fd5b6001600160a01b0316908115610c46576001600160a01b0316918215610bf65760207f8c5be1e5ebec7d5bd14f71427d1e84f3dd0314c0f7b2291e5b200ac8c7c3b925918360005260018252604060002085600052825280604060002055604051908152a3565b60405162461bcd60e51b815260206004820152602260248201527f45524332303a20617070726f766520746f20746865207a65726f206164647265604482015261737360f01b6064820152608490fd5b60405162461bcd60e51b8152602060048201526024808201527f45524332303a20617070726f76652066726f6d20746865207a65726f206164646044820152637265737360e01b6064820152608490fd5b6001600160a01b0316908115610dc3576001600160a01b0316918215610d7257816000526000602052604060002054818110610d1e57817fddf252ad1be2c89b69c2b068fc378daa952ba7f163c4a11628f55a4df523b3ef9260209285600052600084520360406000205584600052600082526040600020818154019055604051908152a3565b60405162461bcd60e51b815260206004820152602660248201527f45524332303a207472616e7366657220616d6f756e7420657863656564732062604482015265616c616e636560d01b6064820152608490fd5b60405162461bcd60e51b815260206004820152602360248201527f45524332303a207472616e7366657220746f20746865207a65726f206164647260448201526265737360e81b6064820152608490fd5b60405162461bcd60e51b815260206004820152602560248201527f45524332303a207472616e736665722066726f6d20746865207a65726f206164604482015264647265737360d81b6064820152608490fd5b6005546001600160a01b03163303610e2a57565b606460405162461bcd60e51b815260206004820152602060248201527f4f776e61626c653a2063616c6c6572206973206e6f7420746865206f776e65726044820152fdfea26469706673582212201756c0e28e935d9842f779dc070136511d03075b617ffbf957c7b008edeb93c864736f6c634300081b0033a2646970667358221220f3afdc7423ac3dde735553f72345eb56596912ce1293d04832ed6d2eecb4152e64736f6c634300081b0033",
  "linkReferences": {},
  "deployedLinkReferences": {}
}