{
  "_format": "hh-sol-artifact-1",
  "contractName": "Token",
  "sourceName": "contracts/Shadow.sol",
  "abi": [
    {
      "inputs": [
        {
          "internalType": "string",
          "name": "name_",
          "type": "string"
        },
        {
          "internalType": "string",
          "name": "symbol_",
          "type": "string"
        },
        {
          "internalType": "uint256",
          "name": "maxSupply_",
          "type": "uint256"
        },
        {
          "internalType": "address",
          "name": "deployer_",
          "type": "address"
        },
        {
          "internalType": "address",
          "name": "_uniswapV3Factory",
          "type": "address"
        },
        {
          "internalType": "address",
          "name": "_positionManager",
          "type": "address"
        },
        {
          "internalType": "uint256",
          "name": "_maxWalletPercentage",
          "type": "uint256"
        },
        {
          "internalType": "bool",
          "name": "_fullAccess",
          "type": "bool"
        }
      ],
      "stateMutability": "nonpayable",
      "type": "constructor"
    },
    {
      "inputs": [
        {
          "internalType": "address",
          "name": "spender",
          "type": "address"
        },
        {
          "internalType": "uint256",
          "name": "allowance",
          "type": "uint256"
        },
        {
          "internalType": "uint256",
          "name": "needed",
          "type": "uint256"
        }
      ],
      "name": "ERC20InsufficientAllowance",
      "type": "error"
    },
    {
      "inputs": [
        {
          "internalType": "address",
          "name": "sender",
          "type": "address"
        },
        {
          "internalType": "uint256",
          "name": "balance",
          "type": "uint256"
        },
        {
          "internalType": "uint256",
          "name": "needed",
          "type": "uint256"
        }
      ],
      "name": "ERC20InsufficientBalance",
      "type": "error"
    },
    {
      "inputs": [
        {
          "internalType": "address",
          "name": "approver",
          "type": "address"
        }
      ],
      "name": "ERC20InvalidApprover",
      "type": "error"
    },
    {
      "inputs": [
        {
          "internalType": "address",
          "name": "receiver",
          "type": "address"
        }
      ],
      "name": "ERC20InvalidReceiver",
      "type": "error"
    },
    {
      "inputs": [
        {
          "internalType": "address",
          "name": "sender",
          "type": "address"
        }
      ],
      "name": "ERC20InvalidSender",
      "type": "error"
    },
    {
      "inputs": [
        {
          "internalType": "address",
          "name": "spender",
          "type": "address"
        }
      ],
      "name": "ERC20InvalidSpender",
      "type": "error"
    },
    {
      "inputs": [
        {
          "internalType": "address",
          "name": "owner",
          "type": "address"
        }
      ],
      "name": "OwnableInvalidOwner",
      "type": "error"
    },
    {
      "inputs": [
        {
          "internalType": "address",
          "name": "account",
          "type": "address"
        }
      ],
      "name": "OwnableUnauthorizedAccount",
      "type": "error"
    },
    {
      "anonymous": false,
      "inputs": [
        {
          "indexed": true,
          "internalType": "address",
          "name": "owner",
          "type": "address"
        },
        {
          "indexed": true,
          "internalType": "address",
          "name": "spender",
          "type": "address"
        },
        {
          "indexed": false,
          "internalType": "uint256",
          "name": "value",
          "type": "uint256"
        }
      ],
      "name": "Approval",
      "type": "event"
    },
    {
      "anonymous": false,
      "inputs": [
        {
          "indexed": true,
          "internalType": "address",
          "name": "previousOwner",
          "type": "address"
        },
        {
          "indexed": true,
          "internalType": "address",
          "name": "newOwner",
          "type": "address"
        }
      ],
      "name": "OwnershipTransferred",
      "type": "event"
    },
    {
      "anonymous": false,
      "inputs": [
        {
          "indexed": true,
          "internalType": "address",
          "name": "from",
          "type": "address"
        },
        {
          "indexed": true,
          "internalType": "address",
          "name": "to",
          "type": "address"
        },
        {
          "indexed": false,
          "internalType": "uint256",
          "name": "value",
          "type": "uint256"
        }
      ],
      "name": "Transfer",
      "type": "event"
    },
    {
      "inputs": [
        {
          "internalType": "address",
          "name": "owner",
          "type": "address"
        },
        {
          "internalType": "address",
          "name": "spender",
          "type": "address"
        }
      ],
      "name": "allowance",
      "outputs": [
        {
          "internalType": "uint256",
          "name": "",
          "type": "uint256"
        }
      ],
      "stateMutability": "view",
      "type": "function"
    },
    {
      "inputs": [
        {
          "internalType": "address",
          "name": "spender",
          "type": "address"
        },
        {
          "internalType": "uint256",
          "name": "value",
          "type": "uint256"
        }
      ],
      "name": "approve",
      "outputs": [
        {
          "internalType": "bool",
          "name": "",
          "type": "bool"
        }
      ],
      "stateMutability": "nonpayable",
      "type": "function"
    },
    {
      "inputs": [
        {
          "internalType": "address",
          "name": "account",
          "type": "address"
        }
      ],
      "name": "balanceOf",
      "outputs": [
        {
          "internalType": "uint256",
          "name": "",
          "type": "uint256"
        }
      ],
      "stateMutability": "view",
      "type": "function"
    },
    {
      "inputs": [
        {
          "internalType": "uint256",
          "name": "amount",
          "type": "uint256"
        }
      ],
      "name": "burn",
      "outputs": [],
      "stateMutability": "nonpayable",
      "type": "function"
    },
    {
      "inputs": [],
      "name": "decimals",
      "outputs": [
        {
          "internalType": "uint8",
          "name": "",
          "type": "uint8"
        }
      ],
      "stateMutability": "view",
      "type": "function"
    },
    {
      "inputs": [],
      "name": "deployer",
      "outputs": [
        {
          "internalType": "address",
          "name": "",
          "type": "address"
        }
      ],
      "stateMutability": "view",
      "type": "function"
    },
    {
      "inputs": [],
      "name": "feeDistributor",
      "outputs": [
        {
          "internalType": "address payable",
          "name": "",
          "type": "address"
        }
      ],
      "stateMutability": "view",
      "type": "function"
    },
    {
      "inputs": [],
      "name": "maxWalletPercentage",
      "outputs": [
        {
          "internalType": "uint256",
          "name": "",
          "type": "uint256"
        }
      ],
      "stateMutability": "view",
      "type": "function"
    },
    {
      "inputs": [
        {
          "internalType": "address",
          "name": "to",
          "type": "address"
        },
        {
          "internalType": "uint256",
          "name": "amount",
          "type": "uint256"
        }
      ],
      "name": "mint",
      "outputs": [],
      "stateMutability": "nonpayable",
      "type": "function"
    },
    {
      "inputs": [],
      "name": "name",
      "outputs": [
        {
          "internalType": "string",
          "name": "",
          "type": "string"
        }
      ],
      "stateMutability": "view",
      "type": "function"
    },
    {
      "inputs": [],
      "name": "owner",
      "outputs": [
        {
          "internalType": "address",
          "name": "",
          "type": "address"
        }
      ],
      "stateMutability": "view",
      "type": "function"
    },
    {
      "inputs": [],
      "name": "poolAddress",
      "outputs": [
        {
          "internalType": "address",
          "name": "",
          "type": "address"
        }
      ],
      "stateMutability": "view",
      "type": "function"
    },
    {
      "inputs": [],
      "name": "positionManager",
      "outputs": [
        {
          "internalType": "address",
          "name": "",
          "type": "address"
        }
      ],
      "stateMutability": "view",
      "type": "function"
    },
    {
      "inputs": [],
      "name": "renounceOwnership",
      "outputs": [],
      "stateMutability": "nonpayable",
      "type": "function"
    },
    {
      "inputs": [
        {
          "internalType": "address",
          "name": "_poolAddress",
          "type": "address"
        }
      ],
      "name": "setPoolAddress",
      "outputs": [],
      "stateMutability": "nonpayable",
      "type": "function"
    },
    {
      "inputs": [],
      "name": "shadow",
      "outputs": [
        {
          "internalType": "address",
          "name": "",
          "type": "address"
        }
      ],
      "stateMutability": "view",
      "type": "function"
    },
    {
      "inputs": [],
      "name": "symbol",
      "outputs": [
        {
          "internalType": "string",
          "name": "",
          "type": "string"
        }
      ],
      "stateMutability": "view",
      "type": "function"
    },
    {
      "inputs": [],
      "name": "totalSupply",
      "outputs": [
        {
          "internalType": "uint256",
          "name": "",
          "type": "uint256"
        }
      ],
      "stateMutability": "view",
      "type": "function"
    },
    {
      "inputs": [
        {
          "internalType": "address",
          "name": "to",
          "type": "address"
        },
        {
          "internalType": "uint256",
          "name": "value",
          "type": "uint256"
        }
      ],
      "name": "transfer",
      "outputs": [
        {
          "internalType": "bool",
          "name": "",
          "type": "bool"
        }
      ],
      "stateMutability": "nonpayable",
      "type": "function"
    },
    {
      "inputs": [
        {
          "internalType": "address",
          "name": "from",
          "type": "address"
        },
        {
          "internalType": "address",
          "name": "to",
          "type": "address"
        },
        {
          "internalType": "uint256",
          "name": "value",
          "type": "uint256"
        }
      ],
      "name": "transferFrom",
      "outputs": [
        {
          "internalType": "bool",
          "name": "",
          "type": "bool"
        }
      ],
      "stateMutability": "nonpayable",
      "type": "function"
    },
    {
      "inputs": [
        {
          "internalType": "address",
          "name": "",
          "type": "address"
        }
      ],
      "name": "transferOwnership",
      "outputs": [],
      "stateMutability": "nonpayable",
      "type": "function"
    },
    {
      "inputs": [],
      "name": "uniswapV3Factory",
      "outputs": [
        {
          "internalType": "address",
          "name": "",
          "type": "address"
        }
      ],
      "stateMutability": "view",
      "type": "function"
    }
  ],
  "bytecode": "0x60e0604052346104c1576112e180380380610019816104c6565b9283398101610100828203126104c15781516001600160401b0381116104c157816100459184016104eb565b602083015190916001600160401b0382116104c1576100659184016104eb565b9160408101519261007860608301610556565b61008460808401610556565b9061009160a08501610556565b9260e060c08601519501519586151587036104c1578051906001600160401b0382116103be5760035490600182811c921680156104b7575b602083101461039e5781601f849311610447575b50602090601f83116001146103df576000926103d4575b50508160011b916000199060031b1c1916176003555b8051906001600160401b0382116103be5760045490600182811c921680156103b4575b602083101461039e5781601f84931161032e575b50602090601f83116001146102c6576000926102bb575b50508160011b916000199060031b1c1916176004555b6001600160a01b031680156102a557600580546001600160a01b03198116831790915581906001600160a01b03167f8be0079c531659141344cd1fd0a4f28419497f9722a3daafe3b4186f6b6457e0600080a360018060a01b031960065416176006553360018060a01b0319600754161760075560805260a05260095560c052331561028f57600060025482810180911161027b5760025533815280602052604081208281540190556040519182527fddf252ad1be2c89b69c2b068fc378daa952ba7f163c4a11628f55a4df523b3ef60203393a3604051610d76908161056b823960805181818161051d0152610c8f015260a05181818161043a0152610c5c015260c051816106e80152f35b634e487b7160e01b82526011600452602482fd5b63ec442f0560e01b600052600060045260246000fd5b631e4fbdf760e01b600052600060045260246000fd5b015190503880610158565b600460009081528281209350601f198516905b81811061031657509084600195949392106102fd575b505050811b0160045561016e565b015160001960f88460031b161c191690553880806102ef565b929360206001819287860151815501950193016102d9565b60046000529091507f8a35acfbc15ff81a39ae7d344fd709f28e8600b4aa8c65c6b64bfe7fe36bd19b601f840160051c81019160208510610394575b90601f859493920160051c01905b8181106103855750610141565b60008155849350600101610378565b909150819061036a565b634e487b7160e01b600052602260045260246000fd5b91607f169161012d565b634e487b7160e01b600052604160045260246000fd5b0151905038806100f4565b600360009081528281209350601f198516905b81811061042f5750908460019594939210610416575b505050811b0160035561010a565b015160001960f88460031b161c19169055388080610408565b929360206001819287860151815501950193016103f2565b60036000529091507fc2575a0e9e593c00f959f8c92f12db2869c3395a3b0502d05e2516446f71f85b601f840160051c810191602085106104ad575b90601f859493920160051c01905b81811061049e57506100dd565b60008155849350600101610491565b9091508190610483565b91607f16916100c9565b600080fd5b6040519190601f01601f191682016001600160401b038111838210176103be57604052565b81601f820112156104c1578051906001600160401b0382116103be5761051a601f8301601f19166020016104c6565b92828452602083830101116104c15760005b82811061054157505060206000918301015290565b8060208092840101518282870101520161052c565b51906001600160a01b03821682036104c15756fe608080604052600436101561001357600080fd5b60003560e01c90816306fdde03146109b557508063095ea7b31461092f5780630d43e8ad146109065780631755ff21146108dd57806318160ddd146108bf57806323b872dd146107d2578063313ce567146107b657806340c10f19146106c157806342966c681461056a578063599ca3971461054c5780635b5491821461050757806370a08231146104c6578063715018a614610469578063791b98bc146104245780638da5cb5b146103fb57806395d89b41146102da578063a9059cbb146102a9578063ac600a3c14610280578063d5f3948814610257578063dd62ed3e14610206578063e9e15b4f146101755763f2fde38b1461011157600080fd5b346101705760203660031901126101705761012a610ad1565b5060405162461bcd60e51b815260206004820152601e60248201527f4f776e657273686970207472616e736665722069732064697361626c656400006044820152606490fd5b600080fd5b346101705760203660031901126101705761018e610ad1565b6007546001600160a01b031633036101c257600880546001600160a01b0319166001600160a01b0392909216919091179055005b606460405162461bcd60e51b815260206004820152602060248201527f4f6e6c7920536861646f772063616e2073657420706f6f6c20616464726573736044820152fd5b346101705760403660031901126101705761021f610ad1565b610227610ae7565b6001600160a01b039182166000908152600160209081526040808320949093168252928352819020549051908152f35b34610170576000366003190112610170576006546040516001600160a01b039091168152602090f35b34610170576000366003190112610170576007546040516001600160a01b039091168152602090f35b34610170576040366003190112610170576102cf6102c5610ad1565b6024359033610afd565b602060405160018152f35b346101705760003660031901126101705760405160006004548060011c906001811680156103f1575b6020831081146103dd578285529081156103c1575060011461036a575b50819003601f01601f191681019067ffffffffffffffff8211818310176103545761035082918260405282610a88565b0390f35b634e487b7160e01b600052604160045260246000fd5b905060046000527f8a35acfbc15ff81a39ae7d344fd709f28e8600b4aa8c65c6b64bfe7fe36bd19b6000905b8282106103ab57506020915082010182610320565b6001816020925483858801015201910190610396565b90506020925060ff191682840152151560051b82010182610320565b634e487b7160e01b84526022600452602484fd5b91607f1691610303565b34610170576000366003190112610170576005546040516001600160a01b039091168152602090f35b34610170576000366003190112610170576040517f00000000000000000000000000000000000000000000000000000000000000006001600160a01b03168152602090f35b3461017057600036600319011261017057610482610cea565b600580546001600160a01b031981169091556000906001600160a01b03167f8be0079c531659141344cd1fd0a4f28419497f9722a3daafe3b4186f6b6457e08280a3005b346101705760203660031901126101705760206104ff6104e4610ad1565b6001600160a01b031660009081526020819052604090205490565b604051908152f35b34610170576000366003190112610170576040517f00000000000000000000000000000000000000000000000000000000000000006001600160a01b03168152602090f35b34610170576000366003190112610170576020600954604051908152f35b3461017057602036600319011261017057600435610586610cea565b6008546001600160a01b031690811561068d576001600160a01b038216600090815260208190526040902054811161064857600090826105f65791600080516020610d218339815191526020846105e08596600254610d13565b6002555b8060025403600255604051908152a380f35b828252816020526040822054818110610630576020828593600080516020610d2183398151915293869787528684520360408620556105e4565b60649363391434e360e21b8452600452602452604452fd5b60405162461bcd60e51b815260206004820152601760248201527f496e73756666696369656e74204c502062616c616e63650000000000000000006044820152606490fd5b60405162461bcd60e51b815260206004820152600c60248201526b141bdbdb081b9bdd081cd95d60a21b6044820152606490fd5b34610170576040366003190112610170576106da610ad1565b602435906106e6610cea565b7f000000000000000000000000000000000000000000000000000000000000000015610771576001600160a01b0316801561075b57602091600080516020610d218339815191526000938261073e8694600254610d13565b60025584845283825260408420818154019055604051908152a380f35b63ec442f0560e01b600052600060045260246000fd5b60405162461bcd60e51b815260206004820152601a60248201527f546f6b656e3a206d696e74696e672069732064697361626c65640000000000006044820152606490fd5b3461017057600036600319011261017057602060405160128152f35b34610170576060366003190112610170576107eb610ad1565b6107f3610ae7565b6001600160a01b0382166000818152600160208181526040808420338552909152909120549193604435939290918101610833575b506102cf9350610afd565b8381106108a257841561088c573315610876576102cf946000526001602052604060002060018060a01b0333166000526020528360406000209103905584610828565b634a1406b160e11b600052600060045260246000fd5b63e602df0560e01b600052600060045260246000fd5b8390637dc7a0d960e11b6000523360045260245260445260646000fd5b34610170576000366003190112610170576020600254604051908152f35b34610170576000366003190112610170576008546040516001600160a01b039091168152602090f35b3461017057600036600319011261017057600a546040516001600160a01b039091168152602090f35b3461017057604036600319011261017057610948610ad1565b60243590331561088c576001600160a01b031690811561087657336000526001602052604060002082600052602052806040600020556040519081527f8c5be1e5ebec7d5bd14f71427d1e84f3dd0314c0f7b2291e5b200ac8c7c3b92560203392a3602060405160018152f35b346101705760003660031901126101705760006003548060011c90600181168015610a7e575b6020831081146103dd578285529081156103c15750600114610a275750819003601f01601f191681019067ffffffffffffffff8211818310176103545761035082918260405282610a88565b905060036000527fc2575a0e9e593c00f959f8c92f12db2869c3395a3b0502d05e2516446f71f85b6000905b828210610a6857506020915082010182610320565b6001816020925483858801015201910190610a53565b91607f16916109db565b91909160208152825180602083015260005b818110610abb575060409293506000838284010152601f8019910116010190565b8060208092870101516040828601015201610a9a565b600435906001600160a01b038216820361017057565b602435906001600160a01b038216820361017057565b6001600160a01b0316908115610cd4576001600160a01b031691821561075b576007546001600160a01b031683141580610cbf575b80610c8c575b80610c59575b80610c44575b610bb0575b6000828152806020526040812054828110610b96579160408282600080516020610d21833981519152958760209652828652038282205586815280845220818154019055604051908152a3565b916064928463391434e360e21b8452600452602452604452fd5b60025460095490818102918183041490151715610c2e5760649084600052600060205204610be382604060002054610d13565b1115610b495760405162461bcd60e51b815260206004820152601e60248201527f4d61782077616c6c65742070657263656e7461676520657863656564656400006044820152606490fd5b634e487b7160e01b600052601160045260246000fd5b506008546001600160a01b0316831415610b44565b507f00000000000000000000000000000000000000000000000000000000000000006001600160a01b0316831415610b3e565b507f00000000000000000000000000000000000000000000000000000000000000006001600160a01b0316831415610b38565b506007546001600160a01b0316821415610b32565b634b637e8f60e11b600052600060045260246000fd5b6005546001600160a01b03163303610cfe57565b63118cdaa760e01b6000523360045260246000fd5b91908201809211610c2e5756feddf252ad1be2c89b69c2b068fc378daa952ba7f163c4a11628f55a4df523b3efa2646970667358221220011c6cc1554fbb51a0c44560e093393001cbe99d4281fa86676be3910b459e8664736f6c634300081b0033",
  "linkReferences": {},
  "deployedLinkReferences": {}
}