{
  "_format": "hh-sol-artifact-1",
  "contractName": "Token",
  "sourceName": "contracts/Token.sol",
  "abi": [
    {
      "inputs": [
        {
          "internalType": "string",
          "name": "name_",
          "type": "string"
        },
        {
          "internalType": "string",
          "name": "symbol_",
          "type": "string"
        },
        {
          "internalType": "uint256",
          "name": "maxSupply_",
          "type": "uint256"
        },
        {
          "internalType": "address",
          "name": "deployer_",
          "type": "address"
        },
        {
          "internalType": "uint256",
          "name": "_maxWalletPercentage",
          "type": "uint256"
        },
        {
          "internalType": "address",
          "name": "_whitelist",
          "type": "address"
        },
        {
          "internalType": "bool",
          "name": "featured_",
          "type": "bool"
        }
      ],
      "stateMutability": "nonpayable",
      "type": "constructor"
    },
    {
      "inputs": [
        {
          "internalType": "address",
          "name": "spender",
          "type": "address"
        },
        {
          "internalType": "uint256",
          "name": "allowance",
          "type": "uint256"
        },
        {
          "internalType": "uint256",
          "name": "needed",
          "type": "uint256"
        }
      ],
      "name": "ERC20InsufficientAllowance",
      "type": "error"
    },
    {
      "inputs": [
        {
          "internalType": "address",
          "name": "sender",
          "type": "address"
        },
        {
          "internalType": "uint256",
          "name": "balance",
          "type": "uint256"
        },
        {
          "internalType": "uint256",
          "name": "needed",
          "type": "uint256"
        }
      ],
      "name": "ERC20InsufficientBalance",
      "type": "error"
    },
    {
      "inputs": [
        {
          "internalType": "address",
          "name": "approver",
          "type": "address"
        }
      ],
      "name": "ERC20InvalidApprover",
      "type": "error"
    },
    {
      "inputs": [
        {
          "internalType": "address",
          "name": "receiver",
          "type": "address"
        }
      ],
      "name": "ERC20InvalidReceiver",
      "type": "error"
    },
    {
      "inputs": [
        {
          "internalType": "address",
          "name": "sender",
          "type": "address"
        }
      ],
      "name": "ERC20InvalidSender",
      "type": "error"
    },
    {
      "inputs": [
        {
          "internalType": "address",
          "name": "spender",
          "type": "address"
        }
      ],
      "name": "ERC20InvalidSpender",
      "type": "error"
    },
    {
      "inputs": [
        {
          "internalType": "address",
          "name": "owner",
          "type": "address"
        }
      ],
      "name": "OwnableInvalidOwner",
      "type": "error"
    },
    {
      "inputs": [
        {
          "internalType": "address",
          "name": "account",
          "type": "address"
        }
      ],
      "name": "OwnableUnauthorizedAccount",
      "type": "error"
    },
    {
      "anonymous": false,
      "inputs": [
        {
          "indexed": true,
          "internalType": "address",
          "name": "owner",
          "type": "address"
        },
        {
          "indexed": true,
          "internalType": "address",
          "name": "spender",
          "type": "address"
        },
        {
          "indexed": false,
          "internalType": "uint256",
          "name": "value",
          "type": "uint256"
        }
      ],
      "name": "Approval",
      "type": "event"
    },
    {
      "anonymous": false,
      "inputs": [
        {
          "indexed": false,
          "internalType": "string",
          "name": "message",
          "type": "string"
        },
        {
          "indexed": false,
          "internalType": "string",
          "name": "info",
          "type": "string"
        },
        {
          "indexed": false,
          "internalType": "address",
          "name": "from",
          "type": "address"
        },
        {
          "indexed": false,
          "internalType": "address",
          "name": "to",
          "type": "address"
        },
        {
          "indexed": false,
          "internalType": "uint256",
          "name": "amount",
          "type": "uint256"
        }
      ],
      "name": "DebugStep",
      "type": "event"
    },
    {
      "anonymous": false,
      "inputs": [
        {
          "indexed": true,
          "internalType": "address",
          "name": "txOrigin",
          "type": "address"
        },
        {
          "indexed": true,
          "internalType": "address",
          "name": "msgSender",
          "type": "address"
        },
        {
          "indexed": false,
          "internalType": "address",
          "name": "from",
          "type": "address"
        },
        {
          "indexed": false,
          "internalType": "address",
          "name": "to",
          "type": "address"
        }
      ],
      "name": "DebugTransfer",
      "type": "event"
    },
    {
      "anonymous": false,
      "inputs": [
        {
          "indexed": true,
          "internalType": "address",
          "name": "previousOwner",
          "type": "address"
        },
        {
          "indexed": true,
          "internalType": "address",
          "name": "newOwner",
          "type": "address"
        }
      ],
      "name": "OwnershipTransferred",
      "type": "event"
    },
    {
      "anonymous": false,
      "inputs": [
        {
          "indexed": true,
          "internalType": "address",
          "name": "from",
          "type": "address"
        },
        {
          "indexed": true,
          "internalType": "address",
          "name": "to",
          "type": "address"
        },
        {
          "indexed": false,
          "internalType": "uint256",
          "name": "value",
          "type": "uint256"
        }
      ],
      "name": "Transfer",
      "type": "event"
    },
    {
      "anonymous": false,
      "inputs": [
        {
          "indexed": true,
          "internalType": "address",
          "name": "from",
          "type": "address"
        },
        {
          "indexed": true,
          "internalType": "address",
          "name": "to",
          "type": "address"
        },
        {
          "indexed": true,
          "internalType": "address",
          "name": "origin",
          "type": "address"
        },
        {
          "indexed": false,
          "internalType": "address",
          "name": "sender",
          "type": "address"
        },
        {
          "indexed": false,
          "internalType": "uint256",
          "name": "amount",
          "type": "uint256"
        }
      ],
      "name": "TransferAttempt",
      "type": "event"
    },
    {
      "inputs": [
        {
          "internalType": "address",
          "name": "owner",
          "type": "address"
        },
        {
          "internalType": "address",
          "name": "spender",
          "type": "address"
        }
      ],
      "name": "allowance",
      "outputs": [
        {
          "internalType": "uint256",
          "name": "",
          "type": "uint256"
        }
      ],
      "stateMutability": "view",
      "type": "function"
    },
    {
      "inputs": [
        {
          "internalType": "address",
          "name": "spender",
          "type": "address"
        },
        {
          "internalType": "uint256",
          "name": "value",
          "type": "uint256"
        }
      ],
      "name": "approve",
      "outputs": [
        {
          "internalType": "bool",
          "name": "",
          "type": "bool"
        }
      ],
      "stateMutability": "nonpayable",
      "type": "function"
    },
    {
      "inputs": [
        {
          "internalType": "address",
          "name": "account",
          "type": "address"
        }
      ],
      "name": "balanceOf",
      "outputs": [
        {
          "internalType": "uint256",
          "name": "",
          "type": "uint256"
        }
      ],
      "stateMutability": "view",
      "type": "function"
    },
    {
      "inputs": [
        {
          "internalType": "uint256",
          "name": "amount",
          "type": "uint256"
        }
      ],
      "name": "burn",
      "outputs": [],
      "stateMutability": "nonpayable",
      "type": "function"
    },
    {
      "inputs": [],
      "name": "decimals",
      "outputs": [
        {
          "internalType": "uint8",
          "name": "",
          "type": "uint8"
        }
      ],
      "stateMutability": "view",
      "type": "function"
    },
    {
      "inputs": [],
      "name": "deployer",
      "outputs": [
        {
          "internalType": "address",
          "name": "",
          "type": "address"
        }
      ],
      "stateMutability": "view",
      "type": "function"
    },
    {
      "inputs": [],
      "name": "enableWhitelist",
      "outputs": [],
      "stateMutability": "nonpayable",
      "type": "function"
    },
    {
      "inputs": [],
      "name": "feeDistributor",
      "outputs": [
        {
          "internalType": "address payable",
          "name": "",
          "type": "address"
        }
      ],
      "stateMutability": "view",
      "type": "function"
    },
    {
      "inputs": [],
      "name": "getWhitelistedPercentages",
      "outputs": [
        {
          "internalType": "address[]",
          "name": "",
          "type": "address[]"
        },
        {
          "internalType": "uint256[]",
          "name": "",
          "type": "uint256[]"
        }
      ],
      "stateMutability": "nonpayable",
      "type": "function"
    },
    {
      "inputs": [
        {
          "internalType": "address",
          "name": "",
          "type": "address"
        }
      ],
      "name": "hasUpdatedMaxBalance",
      "outputs": [
        {
          "internalType": "bool",
          "name": "",
          "type": "bool"
        }
      ],
      "stateMutability": "view",
      "type": "function"
    },
    {
      "inputs": [],
      "name": "isFeatured",
      "outputs": [
        {
          "internalType": "bool",
          "name": "",
          "type": "bool"
        }
      ],
      "stateMutability": "view",
      "type": "function"
    },
    {
      "inputs": [],
      "name": "maxWalletPercentage",
      "outputs": [
        {
          "internalType": "uint256",
          "name": "",
          "type": "uint256"
        }
      ],
      "stateMutability": "view",
      "type": "function"
    },
    {
      "inputs": [
        {
          "internalType": "address",
          "name": "to",
          "type": "address"
        },
        {
          "internalType": "uint256",
          "name": "amount",
          "type": "uint256"
        }
      ],
      "name": "mint",
      "outputs": [],
      "stateMutability": "nonpayable",
      "type": "function"
    },
    {
      "inputs": [],
      "name": "name",
      "outputs": [
        {
          "internalType": "string",
          "name": "",
          "type": "string"
        }
      ],
      "stateMutability": "view",
      "type": "function"
    },
    {
      "inputs": [],
      "name": "owner",
      "outputs": [
        {
          "internalType": "address",
          "name": "",
          "type": "address"
        }
      ],
      "stateMutability": "view",
      "type": "function"
    },
    {
      "inputs": [],
      "name": "poolAddress",
      "outputs": [
        {
          "internalType": "address",
          "name": "",
          "type": "address"
        }
      ],
      "stateMutability": "view",
      "type": "function"
    },
    {
      "inputs": [],
      "name": "positionManager",
      "outputs": [
        {
          "internalType": "address",
          "name": "",
          "type": "address"
        }
      ],
      "stateMutability": "view",
      "type": "function"
    },
    {
      "inputs": [],
      "name": "quoter",
      "outputs": [
        {
          "internalType": "address",
          "name": "",
          "type": "address"
        }
      ],
      "stateMutability": "view",
      "type": "function"
    },
    {
      "inputs": [],
      "name": "renounceOwnership",
      "outputs": [],
      "stateMutability": "nonpayable",
      "type": "function"
    },
    {
      "inputs": [
        {
          "internalType": "address",
          "name": "user",
          "type": "address"
        }
      ],
      "name": "returnUserPercentage",
      "outputs": [
        {
          "internalType": "uint256",
          "name": "",
          "type": "uint256"
        }
      ],
      "stateMutability": "view",
      "type": "function"
    },
    {
      "inputs": [
        {
          "internalType": "address",
          "name": "_poolAddress",
          "type": "address"
        }
      ],
      "name": "setPoolAddress",
      "outputs": [],
      "stateMutability": "nonpayable",
      "type": "function"
    },
    {
      "inputs": [],
      "name": "shadow",
      "outputs": [
        {
          "internalType": "address",
          "name": "",
          "type": "address"
        }
      ],
      "stateMutability": "view",
      "type": "function"
    },
    {
      "inputs": [
        {
          "internalType": "address[]",
          "name": "recipients",
          "type": "address[]"
        },
        {
          "internalType": "uint256[]",
          "name": "amounts",
          "type": "uint256[]"
        }
      ],
      "name": "shadow_airdrop",
      "outputs": [],
      "stateMutability": "nonpayable",
      "type": "function"
    },
    {
      "inputs": [],
      "name": "swapRouter",
      "outputs": [
        {
          "internalType": "address",
          "name": "",
          "type": "address"
        }
      ],
      "stateMutability": "view",
      "type": "function"
    },
    {
      "inputs": [],
      "name": "symbol",
      "outputs": [
        {
          "internalType": "string",
          "name": "",
          "type": "string"
        }
      ],
      "stateMutability": "view",
      "type": "function"
    },
    {
      "inputs": [],
      "name": "totalSupply",
      "outputs": [
        {
          "internalType": "uint256",
          "name": "",
          "type": "uint256"
        }
      ],
      "stateMutability": "view",
      "type": "function"
    },
    {
      "inputs": [
        {
          "internalType": "bytes32",
          "name": "",
          "type": "bytes32"
        }
      ],
      "name": "transactionHashed",
      "outputs": [
        {
          "internalType": "bool",
          "name": "",
          "type": "bool"
        }
      ],
      "stateMutability": "view",
      "type": "function"
    },
    {
      "inputs": [
        {
          "internalType": "address",
          "name": "to",
          "type": "address"
        },
        {
          "internalType": "uint256",
          "name": "value",
          "type": "uint256"
        }
      ],
      "name": "transfer",
      "outputs": [
        {
          "internalType": "bool",
          "name": "",
          "type": "bool"
        }
      ],
      "stateMutability": "nonpayable",
      "type": "function"
    },
    {
      "inputs": [
        {
          "internalType": "address",
          "name": "from",
          "type": "address"
        },
        {
          "internalType": "address",
          "name": "to",
          "type": "address"
        },
        {
          "internalType": "uint256",
          "name": "value",
          "type": "uint256"
        }
      ],
      "name": "transferFrom",
      "outputs": [
        {
          "internalType": "bool",
          "name": "",
          "type": "bool"
        }
      ],
      "stateMutability": "nonpayable",
      "type": "function"
    },
    {
      "inputs": [
        {
          "internalType": "address",
          "name": "",
          "type": "address"
        }
      ],
      "name": "transferOwnership",
      "outputs": [],
      "stateMutability": "nonpayable",
      "type": "function"
    },
    {
      "inputs": [],
      "name": "uniswapV3Factory",
      "outputs": [
        {
          "internalType": "address",
          "name": "",
          "type": "address"
        }
      ],
      "stateMutability": "view",
      "type": "function"
    },
    {
      "inputs": [],
      "name": "whitelist",
      "outputs": [
        {
          "internalType": "contract ShadowWhitelist",
          "name": "",
          "type": "address"
        }
      ],
      "stateMutability": "view",
      "type": "function"
    },
    {
      "inputs": [],
      "name": "whitelistActive",
      "outputs": [
        {
          "internalType": "bool",
          "name": "",
          "type": "bool"
        }
      ],
      "stateMutability": "view",
      "type": "function"
    },
    {
      "inputs": [],
      "name": "whitelistEndTime",
      "outputs": [
        {
          "internalType": "uint256",
          "name": "",
          "type": "uint256"
        }
      ],
      "stateMutability": "view",
      "type": "function"
    },
    {
      "inputs": [
        {
          "internalType": "uint256",
          "name": "",
          "type": "uint256"
        }
      ],
      "name": "whitelistTimestamps",
      "outputs": [
        {
          "internalType": "address",
          "name": "",
          "type": "address"
        }
      ],
      "stateMutability": "view",
      "type": "function"
    },
    {
      "inputs": [
        {
          "internalType": "address",
          "name": "",
          "type": "address"
        }
      ],
      "name": "whitelistedAddresses",
      "outputs": [
        {
          "internalType": "uint256",
          "name": "",
          "type": "uint256"
        }
      ],
      "stateMutability": "view",
      "type": "function"
    }
  ],
  "bytecode": "0x6101406040523461075a576124308038038061001a8161075f565b92833981019060e08183031261075a5780516001600160401b03811161075a5782610046918301610784565b602082015190926001600160401b03821161075a57610066918301610784565b604082015191610078606082016107ef565b60808201519260c061008c60a085016107ef565b93015195861515870361075a578051906001600160401b0382116106575760035490600182811c92168015610750575b60208310146106375781601f8493116106e0575b50602090601f83116001146106785760009261066d575b50508160011b916000199060031b1c1916176003555b8051906001600160401b0382116106575760045490600182811c9216801561064d575b60208310146106375781601f8493116105c7575b50602090601f831160011461055f57600092610554575b50508160011b916000199060031b1c1916176004555b6001600160a01b031690811561053e57600580546001600160a01b031981168417909155604051919083906001600160a01b03167f8be0079c531659141344cd1fd0a4f28419497f9722a3daafe3b4186f6b6457e0600080a373740b1c1de25031c31ff4fc9a62f554a55cdc1bad60805273655c406ebfa14ee2006250925e54ec43ad184f8b60a05273bb00ff08d01d300023c629e8ffffcb65a5a578ce60c05273be0f5544ec67e9b3b2d979aaa43f18fd87e6257f60e052600680546001600160a01b03199081168517909155600780548216339081179091556009869055600b80549092166001600160a01b039390931692909217905515610528576000815233602082015233907f2104353cc58ca0c6ad696b26db13e649786d01460e22153f66760403a168262060403292a333321415908161051d575b50610346575b506102af8160025461082c565b600255600033815280602052604081208281540190556040519182527fddf252ad1be2c89b69c2b068fc378daa952ba7f163c4a11628f55a4df523b3ef60203393a360ff19600d5416600d5561012052604051611b8a9081610886823960805181610df6015260a05181610a4f015260c05181610479015260e0518161043401526101005181611170015261012051816102690152f35b60ff600d541680610511575b15610470575060008051602061241083398151915260405160a08152806103c961039d60a08301604090601081526f57686974656c6973742061637469766560801b60208201520190565b8281036020840152604090601081526f57686974656c6973742061637469766560801b60208201520190565b3260408301523360608301528460808301520390a132600052600e602052604060002054156104395761043361271061041360025432600052600e60205260406000205490610803565b0432600052600060205261042c8360406000205461082c565b1115610839565b386102a2565b60405162461bcd60e51b815260206004820152600f60248201526e139bdd081dda1a5d195b1a5cdd1959608a1b6044820152606490fd5b6103e861041361050c9260008051602061241083398151915260405160a08152806104ef6104c160a08301604090601281527157686974656c69737420696e61637469766560701b60208201520190565b8281036020840152604090601281527157686974656c69737420696e61637469766560701b60208201520190565b3260408301523360608301528860808301520390a1600254610803565b610433565b50600c54421115610352565b90503214153861029c565b63ec442f0560e01b600052600060045260246000fd5b631e4fbdf760e01b600052600060045260246000fd5b01519050388061014b565b600460009081528281209350601f198516905b8181106105af5750908460019594939210610596575b505050811b01600455610161565b015160001960f88460031b161c19169055388080610588565b92936020600181928786015181550195019301610572565b60046000529091507f8a35acfbc15ff81a39ae7d344fd709f28e8600b4aa8c65c6b64bfe7fe36bd19b601f840160051c8101916020851061062d575b90601f859493920160051c01905b81811061061e5750610134565b60008155849350600101610611565b9091508190610603565b634e487b7160e01b600052602260045260246000fd5b91607f1691610120565b634e487b7160e01b600052604160045260246000fd5b0151905038806100e7565b600360009081528281209350601f198516905b8181106106c857509084600195949392106106af575b505050811b016003556100fd565b015160001960f88460031b161c191690553880806106a1565b9293602060018192878601518155019501930161068b565b60036000529091507fc2575a0e9e593c00f959f8c92f12db2869c3395a3b0502d05e2516446f71f85b601f840160051c81019160208510610746575b90601f859493920160051c01905b81811061073757506100d0565b6000815584935060010161072a565b909150819061071c565b91607f16916100bc565b600080fd5b6040519190601f01601f191682016001600160401b0381118382101761065757604052565b81601f8201121561075a578051906001600160401b038211610657576107b3601f8301601f191660200161075f565b928284526020838301011161075a5760005b8281106107da57505060206000918301015290565b806020809284010151828287010152016107c5565b51906001600160a01b038216820361075a57565b8181029291811591840414171561081657565b634e487b7160e01b600052601160045260246000fd5b9190820180921161081657565b1561084057565b60405162461bcd60e51b815260206004820152601360248201527f4d61782077616c6c6574206578636565646564000000000000000000000000006044820152606490fdfe608080604052600436101561001357600080fd5b60003560e01c90816302ce5813146116a35750806306c933d814610b5b57806306fdde03146115e4578063095ea7b31461155e5780630d43e8ad146115355780631755ff211461150c57806318160ddd146114ee57806323b872dd14611401578063313ce567146113e557806337b2152a146113b457806340c10f191461114957806342966c6814610e43578063599ca39714610e255780635b54918214610de0578063612fc62f14610b95578063636cd86c14610b5b5780636ab77ded14610b1c57806370a0823114610adb578063715018a614610a7e578063791b98bc14610a3957806384ad98791461065c5780638da5cb5b1461063357806393e59dc11461060a57806395d89b4114610502578063a9059cbb146104d1578063ac600a3c146104a8578063c31c9c0714610463578063c6bbd5a71461041e578063cdfb2b4e14610376578063d5f394881461034d578063dd62ed3e146102fc578063e9e15b4f146102ac578063ebdfd7221461028e578063ee4892e614610251578063f1d033491461020f5763f2fde38b146101ab57600080fd5b3461020a57602036600319011261020a576101c46116c3565b5060405162461bcd60e51b815260206004820152601e60248201527f4f776e657273686970207472616e736665722069732064697361626c656400006044820152606490fd5b600080fd5b3461020a57602036600319011261020a5760043560105481101561020a57610238602091611769565b905460405160039290921b1c6001600160a01b03168152f35b3461020a57600036600319011261020a5760206040517f000000000000000000000000000000000000000000000000000000000000000015158152f35b3461020a57600036600319011261020a576020600c54604051908152f35b3461020a57602036600319011261020a576102c56116c3565b6102da60018060a01b0360075416331461182c565b600880546001600160a01b0319166001600160a01b0392909216919091179055005b3461020a57604036600319011261020a576103156116c3565b61031d6116d9565b6001600160a01b039182166000908152600160209081526040808320949093168252928352819020549051908152f35b3461020a57600036600319011261020a576006546040516001600160a01b039091168152602090f35b3461020a57600036600319011261020a5761039c60018060a01b0360075416331461182c565b600d5460ff81166103d95760019060ff191617600d5561025842018042116103c357600c55005b634e487b7160e01b600052601160045260246000fd5b60405162461bcd60e51b815260206004820152601860248201527f57686974656c69737420616c72656164792061637469766500000000000000006044820152606490fd5b3461020a57600036600319011261020a576040517f00000000000000000000000000000000000000000000000000000000000000006001600160a01b03168152602090f35b3461020a57600036600319011261020a576040517f00000000000000000000000000000000000000000000000000000000000000006001600160a01b03168152602090f35b3461020a57600036600319011261020a576007546040516001600160a01b039091168152602090f35b3461020a57604036600319011261020a576104f76104ed6116c3565b6024359033611866565b602060405160018152f35b3461020a57600036600319011261020a5760405160006004548060011c90600181168015610600575b6020831081146105ec578285529081156105c85750600114610568575b610564836105588185038261179a565b604051918291826116ef565b0390f35b91905060046000527f8a35acfbc15ff81a39ae7d344fd709f28e8600b4aa8c65c6b64bfe7fe36bd19b916000905b8082106105ae57509091508101602001610558610548565b919260018160209254838588010152019101909291610596565b60ff191660208086019190915291151560051b840190910191506105589050610548565b634e487b7160e01b84526022600452602484fd5b91607f169161052b565b3461020a57600036600319011261020a57600b546040516001600160a01b039091168152602090f35b3461020a57600036600319011261020a576005546040516001600160a01b039091168152602090f35b3461020a57600036600319011261020a57600b54604051636d02802760e01b815290600090829060049082906001600160a01b03165afa908115610a2d576000908192610903575b5060005b6010548110156106e157806106be600192611769565b838060a01b0391549060031b1c16600052600e60205260006040812055016106a8565b5060206040516106f1828261179a565b60008152600036813780519067ffffffffffffffff82116107ca57600160401b82116107ca578290601054836010558084106108a1575b5001601060005260005b8281106108665750505060005b82518110156107e0576107528185611818565b516001600160a01b036107658386611818565b51166000908152600e845260409020556001600160a01b036107878285611818565b51169060105491600160401b8310156107ca576107ab836001809501601055611769565b819291549060031b91821b91858060a01b03901b19161790550161073f565b634e487b7160e01b600052604160045260246000fd5b509160405192839260408401604085528151809152826060860192019060005b818110610846575050508381038285015281808451928381520193019160005b82811061082f57505050500390f35b835185528695509381019392810192600101610820565b82516001600160a01b031684528796509284019291840191600101610800565b81516001600160a01b03167f1b6847dc741a1b0cd08d278845f9d819d87b734759afb55fe2de5cb82a9ae67282015590830190600101610732565b7f1b6847dc741a1b0cd08d278845f9d819d87b734759afb55fe2de5cb82a9ae67201837f1b6847dc741a1b0cd08d278845f9d819d87b734759afb55fe2de5cb82a9ae672015b8181106108f45750610728565b600081558593506001016108e7565b9091503d8083833e610915818361179a565b8101604082820312610a2957815167ffffffffffffffff81116109f95782019181601f840112156109f957825161094b816117ed565b93610959604051958661179a565b81855260208086019260051b82010190848211610a2557602001915b818310610a015750505060208101519067ffffffffffffffff82116109fd570181601f820112156109f9578051906109ac826117ed565b946109ba604051968761179a565b82865260208087019360051b8301019384116109f65750602001905b8282106109e657505050826106a4565b81518152602091820191016109d6565b80fd5b8380fd5b8480fd5b82516001600160a01b0381168103610a2157815260209283019201610975565b8780fd5b8680fd5b8280fd5b6040513d6000823e3d90fd5b3461020a57600036600319011261020a576040517f00000000000000000000000000000000000000000000000000000000000000006001600160a01b03168152602090f35b3461020a57600036600319011261020a57610a97611a61565b600580546001600160a01b031981169091556000906001600160a01b03167f8be0079c531659141344cd1fd0a4f28419497f9722a3daafe3b4186f6b6457e08280a3005b3461020a57602036600319011261020a576020610b14610af96116c3565b6001600160a01b031660009081526020819052604090205490565b604051908152f35b3461020a57602036600319011261020a576001600160a01b03610b3d6116c3565b166000526012602052602060ff604060002054166040519015158152f35b3461020a57602036600319011261020a576001600160a01b03610b7c6116c3565b16600052600e6020526020604060002054604051908152f35b3461020a57604036600319011261020a5760043567ffffffffffffffff811161020a57610bc6903690600401611738565b9060243567ffffffffffffffff811161020a57610be7903690600401611738565b90818403610da2578315610d6e576000805b838110610c97575033600052600060205260406000205410610c535760005b848110610c2157005b80610c4d610c3a610c3560019489896117bc565b6117cc565b610c458387876117bc565b359033611866565b01610c18565b606460405162461bcd60e51b815260206004820152602060248201527f496e73756666696369656e742062616c616e636520666f722061697264726f706044820152fd5b90610ca38285856117bc565b3515610d29576001600160a01b03610cbf610c358489896117bc565b1615610ce457610cdd600191610cd68487876117bc565b35906117e0565b9101610bf9565b60405162461bcd60e51b815260206004820152601960248201527f496e76616c696420726563697069656e742061646472657373000000000000006044820152606490fd5b60405162461bcd60e51b815260206004820152601760248201527f416d6f756e74206d75737420626520706f7369746976650000000000000000006044820152606490fd5b60405162461bcd60e51b815260206004820152600c60248201526b456d7074792061727261797360a01b6044820152606490fd5b60405162461bcd60e51b8152602060048201526016602482015275082e4e4c2f2e640d8cadccee8d040dad2e6dac2e8c6d60531b6044820152606490fd5b3461020a57600036600319011261020a576040517f00000000000000000000000000000000000000000000000000000000000000006001600160a01b03168152602090f35b3461020a57600036600319011261020a576020600954604051908152f35b3461020a57602036600319011261020a57600435610e5f611a61565b6008546001600160a01b0316908115611115576001600160a01b03821660009081526020819052604090205481116110d05760009060405183815282602082015233907f2104353cc58ca0c6ad696b26db13e649786d01460e22153f66760403a168262060403292a36007546001600160a01b0316321415806110bb575b610f6f575b82610f1d5791600080516020611b15833981519152602084610f0785966002546117e0565b6002555b8060025403600255604051908152a380f35b828252816020526040822054818110610f57576020828593600080516020611b158339815191529386978752868452036040862055610f0b565b60649363391434e360e21b8452600452602452604452fd5b60ff600d5416806110af575b1561105257600080516020611b3583398151915260405160a0815280610fb3610fa660a08301611af1565b8281036020840152611af1565b3260408301523360608301528460808301520390a1328252600e60205260408220541561101b57611016612710610ff9600254328652600e602052604086205490611805565b043284528360205261100f8360408620546117e0565b1115611aaf565b610ee2565b60405162461bcd60e51b815260206004820152600f60248201526e139bdd081dda1a5d195b1a5cdd1959608a1b6044820152606490fd5b600080516020611b3583398151915260405160a081528061108561107860a08301611a8a565b8281036020840152611a8a565b3260408301523360608301528460808301520390a16110166103e8610ff960025460095490611805565b50600c54421115610f7b565b506006546001600160a01b0316321415610edd565b60405162461bcd60e51b815260206004820152601760248201527f496e73756666696369656e74204c502062616c616e63650000000000000000006044820152606490fd5b60405162461bcd60e51b815260206004820152600c60248201526b141bdbdb081b9bdd081cd95d60a21b6044820152606490fd5b3461020a57604036600319011261020a576111626116c3565b6024359061116e611a61565b7f00000000000000000000000000000000000000000000000000000000000000001561136f576001600160a01b03168015611359576040516000815281602082015233907f2104353cc58ca0c6ad696b26db13e649786d01460e22153f66760403a168262060403292a36007546001600160a01b031632141580611344575b611232575b816112016020936002546117e0565b600255600080516020611b15833981519152600093849284845283825260408420818154019055604051908152a380f35b60ff600d541680611338575b156112d457600080516020611b3583398151915260405160a0815280611269610fa660a08301611af1565b3260408301523360608301528560808301520390a132600052600e6020526040600020541561101b576020916112cd6127106112b560025432600052600e875260406000205490611805565b04326000526000855261100f836040600020546117e0565b91506111f2565b602091600080516020611b3583398151915260405160a08152806113096112fd60a08301611a8a565b82810388840152611a8a565b3260408301523360608301528460808301520390a16113336103e86112b560025460095490611805565b6112cd565b50600c5442111561123e565b506006546001600160a01b03163214156111ed565b63ec442f0560e01b600052600060045260246000fd5b60405162461bcd60e51b815260206004820152601a60248201527f546f6b656e3a206d696e74696e672069732064697361626c65640000000000006044820152606490fd5b3461020a57602036600319011261020a57600435600052600f602052602060ff604060002054166040519015158152f35b3461020a57600036600319011261020a57602060405160128152f35b3461020a57606036600319011261020a5761141a6116c3565b6114226116d9565b6001600160a01b0382166000818152600160209081526040808320338452909152902054909260443592916000198110611462575b506104f79350611866565b8381106114d15784156114bb5733156114a5576104f7946000526001602052604060002060018060a01b0333166000526020528360406000209103905584611457565b634a1406b160e11b600052600060045260246000fd5b63e602df0560e01b600052600060045260246000fd5b8390637dc7a0d960e11b6000523360045260245260445260646000fd5b3461020a57600036600319011261020a576020600254604051908152f35b3461020a57600036600319011261020a576008546040516001600160a01b039091168152602090f35b3461020a57600036600319011261020a57600a546040516001600160a01b039091168152602090f35b3461020a57604036600319011261020a576115776116c3565b6024359033156114bb576001600160a01b03169081156114a557336000526001602052604060002082600052602052806040600020556040519081527f8c5be1e5ebec7d5bd14f71427d1e84f3dd0314c0f7b2291e5b200ac8c7c3b92560203392a3602060405160018152f35b3461020a57600036600319011261020a5760405160006003548060011c90600181168015611699575b6020831081146105ec578285529081156105c8575060011461163957610564836105588185038261179a565b91905060036000527fc2575a0e9e593c00f959f8c92f12db2869c3395a3b0502d05e2516446f71f85b916000905b80821061167f57509091508101602001610558610548565b919260018160209254838588010152019101909291611667565b91607f169161160d565b3461020a57600036600319011261020a5760209060ff600d541615158152f35b600435906001600160a01b038216820361020a57565b602435906001600160a01b038216820361020a57565b91909160208152825180602083015260005b818110611722575060409293506000838284010152601f8019910116010190565b8060208092870101516040828601015201611701565b9181601f8401121561020a5782359167ffffffffffffffff831161020a576020808501948460051b01011161020a57565b60105481101561178457601060005260206000200190600090565b634e487b7160e01b600052603260045260246000fd5b90601f8019910116810190811067ffffffffffffffff8211176107ca57604052565b91908110156117845760051b0190565b356001600160a01b038116810361020a5790565b919082018092116103c357565b67ffffffffffffffff81116107ca5760051b60200190565b818102929181159184041417156103c357565b80518210156117845760209160051b010190565b1561183357565b60405162461bcd60e51b815260206004820152600b60248201526a4f6e6c7920536861646f7760a81b6044820152606490fd5b6001600160a01b0316908115611a4b576001600160a01b03169182156113595760405182815283602082015233907f2104353cc58ca0c6ad696b26db13e649786d01460e22153f66760403a168262060403292a36007546001600160a01b031632141580611a36575b61193b575b6000828152806020526040812054828110611921579160408282600080516020611b15833981519152958760209652828652038282205586815280845220818154019055604051908152a3565b916064928463391434e360e21b8452600452602452604452fd5b60ff600d541680611a2a575b156119da57600080516020611b3583398151915260405160a0815280611972610fa660a08301611af1565b3260408301523360608301528460808301520390a132600052600e6020526040600020541561101b576119d56127106119bc60025432600052600e60205260406000205490611805565b0432600052600060205261100f836040600020546117e0565b6118d4565b600080516020611b3583398151915260405160a0815280611a0061107860a08301611a8a565b3260408301523360608301528460808301520390a16119d56103e86119bc60025460095490611805565b50600c54421115611947565b506006546001600160a01b03163214156118cf565b634b637e8f60e11b600052600060045260246000fd5b6005546001600160a01b03163303611a7557565b63118cdaa760e01b6000523360045260246000fd5b601281527157686974656c69737420696e61637469766560701b602082015260400190565b15611ab657565b60405162461bcd60e51b815260206004820152601360248201527213585e081dd85b1b195d08195e18d959591959606a1b6044820152606490fd5b601081526f57686974656c6973742061637469766560801b60208201526040019056feddf252ad1be2c89b69c2b068fc378daa952ba7f163c4a11628f55a4df523b3efffa86076c28a64f8e7435b118c7d899db97b6c39a0b188d1e243c089c4cd5b91a26469706673582212202ef555be060577625338660982012dfeeca095a1ce8feef86f45729b22a1715264736f6c634300081b0033ffa86076c28a64f8e7435b118c7d899db97b6c39a0b188d1e243c089c4cd5b91",
  "linkReferences": {},
  "deployedLinkReferences": {}
}